:020000040800F2
:10000000B82B0020850400083D0200083F020008CC
:1000100043020008470200084B02000800000000ED
:100020000000000000000000000000004F02000877
:1000300051020008000000005302000855020008A9
:100040009F0400089F0400089F0400089F04000804
:100050009F0400089F0400089F0400089F040008F4
:100060009F0400089F0400089F0400089F040008E4
:100070009F0400089F0400089F0400089F040008D4
:100080009F0400089F0400089F0400089F040008C4
:100090009F0400089F0400089F0400089F040008B4
:1000A0009F0400089F0400089F0400089F040008A4
:1000B0009F0400089F0400089F0400089F04000894
:1000C0009F0400089F0400089F0400089F04000884
:1000D0009F0400089F040008670200089F040008AE
:1000E0009F0400089F0400089F0400089F04000864
:1000F0009F0400089F0400089F0400089F04000854
:100100009F0400089F0400089F0400089F04000843
:100110009F0400089F0400089F0400089F04000833
:100120009F0400089F0400089F0400089F04000823
:100130009F0400089F0400089F0400089F04000813
:100140009F0400089F0400089F0400089F04000803
:100150009F0400089F0400089F0400089F040008F3
:100160009F0400089F0400089F0400089F040008E3
:100170009F0400089F0400089F0400089F040008D3
:100180009F0400089F04000800F002F800F03CF80B
:100190000AA090E8000C82448344AAF10107DA45E2
:1001A00001D100F031F8AFF2090EBAE80F0013F0F8
:1001B000010F18BFFB1A43F001031847186B00002A
:1001C000386B0000103A24BF78C878C1FAD85207BB
:1001D00024BF30C830C144BF04680C6070470000C1
:1001E0000023002400250026103A28BF78C1FBD840
:1001F000520728BF30C148BF0B6070471FB506F0DB
:1002000049FD1FBD10B510BD06F0C7FB1146FFF735
:10021000F5FF00F009F806F0E5FB03B4FFF7F2FF85
:1002200003BC06F0E9FB000001F020FB0249087066
:1002300001E001F066FCFCE700000020704700BF11
:10024000FEE700BFFEE700BFFEE700BFFEE7704726
:100250007047704710B506480068401C04490860A4
:1002600003F0AFFB10BD10B503F0B1FC10BD0000F2
:10027000440000200CB500200190009076480068F2
:1002800040F480307449086000BF7348006800F48F
:10029000003000900198401C0190009818B9019816
:1002A000B0F5A04FF1D16C48006800F4003010B1F7
:1002B0000120009001E0002000900098012846D124
:1002C00065484030006840F0805063494031086024
:1002D0006248006840F44040604908605E48083069
:1002E00000685D49083108600846006840F4004035
:1002F00008600846006840F4A05008605848091F8C
:100300000860081F006840F08070091F086000BF87
:100310005148006800F000700028F9D040F20570E4
:10032000504908604C480830006820F003004A49F2
:10033000083108600846006840F00200086000BF0D
:1003400045480830006800F00C000828F8D10CBDC2
:1003500010B54548006840F47000434908603E48C5
:10036000006840F001003C49086000203A4908312B
:100370000860394800683D490840374908603C48F2
:10038000091D0860081F006820F48020091F08600C
:10039000002031490C310860FFF76CFF4FF000601E
:1003A00031498039086010BD70B500200022022359
:1003B00000240221284D08352D6805F00C0020B1DD
:1003C000042806D0082834D107E02A4D2A4E35608B
:1003D00033E02A4D284E35602FE01F4D2D1D2D682E
:1003E000C5F380541C4D2D1D2D6805F03F0154B1FF
:1003F000224DB5FBF1F5184E361D3668C6F388164A
:1004000005FB06F209E01B4DB5FBF1F5124E361D5A
:100410003668C6F3881605FB06F20F4D2D1D2D68B4
:10042000C5F301456D1C6B00B2FBF3F5124E356050
:1004300003E0104D104E356000BF00BF064D08357B
:100440002D68C5F303150E4E705D0B4D2D68C5402C
:10045000094E356070BD0000003802400070004059
:1004600008544007003C024088ED00E0FFFFF6FE24
:10047000103000240024F4000400002000127A0050
:10048000080000200948804709480047FEE7FEE7CA
:10049000FEE7FEE7FEE7FEE7FEE7FEE7FEE7FEE734
:1004A00004480549054A064B7047000051030008FF
:1004B00089010008B8250020B82B0020B8270020AB
:1004C000B827002032490143324A1160704770B5A5
:1004D000002100230F22C4781CB32E4C246804F49E
:1004E000E064C4F5E064C4F30721C1F10404E3B29D
:1004F0000A4144789C40E1B28478144021430C07BF
:10050000210E254C05786155047804F01F0501245F
:10051000AC4005786D11AD0005F1E025C5F800414E
:1005200009E0047804F01F050124AC401B4D067857
:10053000761145F8264070BD194A0A400243154B12
:100540001B1F1A60704739B1124A121D126802430C
:10055000104B1B1D1A6006E00E4A121D12688243E2
:100560000C4B1B1D1A607047042808D14FF0E02186
:10057000096941F004014FF0E022116107E04FF0FA
:10058000E021096921F004014FF0E0221161704778
:100590000000FA050CED00E000E400E080E100E07E
:1005A00080FFFF1F10B504469848844208D10121FE
:1005B000084600F086FB0021012000F082FB76E077
:1005C0009348844208D10121022000F07AFB0021E7
:1005D000022000F076FB6AE08E48844208D10121B7
:1005E000042000F06EFB0021042000F06AFB5EE0B6
:1005F0008948844208D10121082000F062FB0021D3
:10060000082000F05EFB52E08448844208D10121BA
:10061000102000F056FB0021102000F052FB46E0B5
:100620007F48844208D10121202000F04AFB0021AC
:10063000202000F046FB3AE07A48844208D10121AC
:10064000402000F03EFB0021402000F03AFB2EE06D
:100650007548844208D10121802000F032FB00213E
:10066000802000F02EFB22E07048844208D1012156
:10067000801500F026FB0021A01500F022FB16E0FB
:100680006B48844208D10121401500F01AFB00217B
:10069000601500F016FB0AE06648844207D101218C
:1006A000001500F00EFB0021201500F00AFB10BD24
:1006B000F0B50A4600210023002400BF3DE00125DB
:1006C00005FA01F3156805EA03049C4234D1056874
:1006D0004F000326BE40B543056015794E00B54076
:1006E0000668354305601579012D02D01579022D74
:1006F00016D185684F000326BE40B5438560557905
:100700004E00B540866835438560456801268E40B9
:10071000B5434560456896798E40B6B2354345602D
:10072000C5684F000326BE40B543C560D5794E006D
:10073000B540C6683543C560491C1029BFD3F0BD1C
:100740004FF6FF7101600021017141718171C1712A
:10075000704708B54FF480320092009A0A43009225
:10076000009AC261C161009AC261C2690092C26905
:10077000009208BD0246002013690B400BB1012016
:1007800000E0002070470146086980B270470246C9
:10079000002053690B400BB1012000E0002070479E
:1007A0000146486980B270470183704741837047B2
:1007B0000AB1018300E0418370474161704742699B
:1007C0004A4042617047F0B5002300244D07ED0E0A
:1007D00002FA05F3CE1000F1200555F826504E0719
:1007E000F70E0F26BE40B543CF1000F1200646F8A5
:1007F0002750CE1000F1200555F8265045EA030495
:10080000CE1000F1200545F82640F0BD0000024062
:100810000004024000080240000C024000100240A8
:100820000014024000180240001C02400020024058
:100830000024024000280240F948006840F001000E
:10084000F74908600020F64908310860F44800685C
:10085000F4490840F2490860F348091D0860F3486C
:10086000EF4984310860F0481038091D0860EC48F1
:10087000006820F48020EA4908600020E8490C3133
:100880000860E7498C31086070470021E44A921CF7
:10089000117011460870704710B501460022002300
:1008A00000204A11012A02D1DD4C236808E0022A07
:1008B00003D1DB4C7034236802E0D94C74342368D4
:1008C00001F01F02012494401C400CB1012000E003
:1008D000002010BD38B5002000900024002500BF86
:1008E0003120FFF7D9FF05460098401C0090009882
:1008F000B0F5A04F01D0002DF2D03120FFF7CCFF92
:1009000008B1012400E00024204638BD0146002043
:10091000C34A106820F0F80040EAC1001060704738
:10092000C349086070470021BD4A703211701170D0
:10093000012802D004280AD104E00121B84A70320B
:10094000117005E00521B64A7032117000E000BF59
:1009500000BF7047B7490860704770B5049C41EA12
:1009600082150126C6EB530645EA0645054345EACE
:100970000465AB4E361D356070BDAD4908667047E5
:10098000820142EA0172A64B84331A607047A8497B
:100990008866704710B5830143EA016343EA027336
:1009A0009F4C8834236010BDA14908677047A04957
:1009B000C864704702460020994B0833186820F03D
:1009C000EC6042EA01031843954B08331860704706
:1009D00002460020924B0833186820F0784042EA23
:1009E000010318438E4B08331860704701460020FE
:1009F0008B4A0832106820F00300084310607047EB
:100A000087480830006800F00C007047014600205D
:100A1000834A0832106820F0F000084310607047E5
:100A2000014600207E4A0832106820F4E050084356
:100A30001060704701460020794A0832106820F49F
:100A4000604040EAC10010607047F0B5002100220C
:100A50000024022500260223714F08373F6807F063
:100A60000C0121B1042905D0082937D105E0724FC6
:100A7000076036E0714F076033E0694F3F1D3F6804
:100A8000C7F38056664F3F1D3F6807F03F036EB1C6
:100A90006A4FB7FBF3F7DFF888C10CF1040CDCF800
:100AA00000C0CCF3881C07FB0CF40CE0624FB7FBD2
:100AB000F3F7DFF86CC10CF1040CDCF800C0CCF3E8
:100AC000881C07FB0CF4564F3F1D3F68C7F30147D6
:100AD0007F1C7D00B4FBF5F7076002E0564F07600E
:100AE00000BF00BF4E4F08373F6807F0F00109090B
:100AF000534F7A5C0768D7404760494F08373F68D3
:100B000007F4E051890A4E4F7A5C4768D740876006
:100B1000434F08373F6807F46041490B484F7A5C00
:100B20004768D740C760F0BD002100F44072B2F5BD
:100B3000407F0AD13A4A0832116821F4F811414A3B
:100B400002401143364A08321160354A7032126849
:100B5000C0F30B031A43324B70331A6070473549A8
:100B60004439086070473349403908607047364956
:100B70000860704701460020294A8C32106820F036
:100B80001F004A1E1043264A8C32106070470146EF
:100B90000020234A8C32106820F4F8504A1E40EAA4
:100BA00002201F4A8C3210607047014600201C4A08
:100BB0008C32106820F440100843106070470146E2
:100BC0000020174A8C32106820F44000084310605F
:100BD000704701460020124A8C32106820F44030E1
:100BE00008431060704719490860704739B10C4AD2
:100BF0003032126802430A4B30331A6006E0084A6A
:100C0000303212688243064B30331A607047F9B1B4
:100C1000034A343212680243014B34331A601CE039
:100C200000380240FFFFF6EA1030002400300020B8
:100C300000004742800E47420024F40000127A0070
:100C400018000020FFFCFF0F5C014742E011474203
:100C50008F4A126882438E4B1A60704739B18C4AB2
:100C6000121D126802438A4B1B1D1A6006E0884A57
:100C7000121D12688243864B1B1D1A60704739B1E2
:100C8000834A0C3212680243814B0C331A6006E02F
:100C90007F4A0C32126882437D4B0C331A607047D6
:100CA00039B17B4A103212680243794B10331A6013
:100CB00006E0774A103212688243754B10331A608F
:100CC000704739B1724A243A12680243704B243B90
:100CD0001A6006E06E4A243A126882436C4B243B49
:100CE0001A60704739B16A4A203A12680243684B69
:100CF000203B1A6006E0664A203A12688243644B41
:100D0000203B1A60704739B1614A1C3A12680243AD
:100D10005F4B1C3B1A6006E05D4A1C3A1268824336
:100D20005B4B1C3B1A60704739B1594A143A126840
:100D30000243574B143B1A6006E0554A143A1268B6
:100D40008243534B143B1A60704739B1504A103AF2
:100D5000126802434E4B103B1A6006E04C4A103AB0
:100D6000126882434A4B103B1A60704739B1484AB7
:100D70001C3212680243464B1C331A6006E0444A98
:100D80001C3212688243424B1C331A60704739B1DF
:100D90003F4A2032126802433D4B20331A6006E07E
:100DA0003B4A203212688243394B20331A60704725
:100DB00039B1374A243212680243354B24331A6062
:100DC00006E0334A243212688243314B24331A60DE
:100DD000704739B12E4A2C32126802432C4B2C3307
:100DE0001A6006E02A4A2C3212688243284B2C33C0
:100DF0001A60704739B1264A303212680243244BD8
:100E000030331A6006E0224A303212688243204BA7
:100E100030331A607047012808D11D493C310968F8
:100E200041F008011A4A3C32116007E018493C3190
:100E3000096821F00801164A3C321160704739B147
:100E4000134A273A12780243114B273B1A7006E0E7
:100E50000F4A273A127882430D4B273B1A7070478E
:100E60000B484030006840F080700949403108600C
:100E7000704701460020064A283A12680A400AB123
:100E8000012000E0002070470149263908707047B2
:100E90003438024010B50446FB48844208D1012191
:100EA0008014FFF752FF0021A014FFF74EFF3CE033
:100EB000F648844208D101210014FFF735FF0021D4
:100EC0002014FFF731FF30E0F148844208D10121BE
:100ED000C013FFF729FF0021E013FFF725FF24E0EF
:100EE000EC48844208D101214014FFF72EFF002175
:100EF0006014FFF72AFF18E0E748844209D1012176
:100F00000805FFF722FF00214FF48010FFF71DFFB7
:100F10000BE0E248844208D101214805FFF715FFA4
:100F200000214FF40010FFF710FF10BD10B5002294
:100F3000028802F441520B884C8823438C88234357
:100F4000CC8823430C8923434C8923438C89234336
:100F5000CC8923431A430280838B4FF2FF742340D2
:100F600083830B8A038210BD2DE9F04F00250223F5
:100F700000244FF0010900220026002794469046E5
:100F8000B0F81CA04FF2400B0AEA0B0AA0F81CA014
:100F90004FF0020AA0F820A0858BD1F808A0BAF182
:100FA000020F01D100BF82E0B1F804A0BAF1000F36
:100FB00002D14FF0010901E04FF00209DFF8E0A291
:100FC000DAF800A00AF4000ABAF1000F09D0DFF83D
:100FD000D0A2DAF800A02AF4000ADFF8C4B2CBF8F5
:100FE00000A0DFF8BCA20AF17C0ADAF800A0CAF37C
:100FF000881CDFF8ACA20AF17C0ADAF800A0CAF378
:101000000278DFF89CA2AAF1040ADAF800A00AF03C
:101010003F07DFF88CA2AAF1040ADAF800A00AF46C
:10102000800ABAF5800F08D1DFF878A2BAFBF7FA88
:101030000AFB0CFABAFBF8F607E0DFF86CA2BAFB81
:10104000F7FA0AFB0CFABAFBF8F6B1F806A0BAF503
:10105000007F0ED14FEA162A0AEB8A0A4FEA4A0AA3
:10106000D1F808B0BAFBFBFA0AF1050A1FFA8AF2B6
:101070000FE04FEA491AB6FBFAFA0AEB8A0A4FEA7E
:101080004A0AD1F808B0BAFBFBFA0AF1050A1FFABE
:101090008AF24FF00A0AB2FBFAF202F00104A2EB64
:1010A000040ACAF34F034FF6FF7A0AEA0424022B1C
:1010B00001DBFF2B01DD02230024B1F806A04AEA80
:1010C000040A4AEA030AA0F820A0B1F804A0B1F883
:1010D0000CB04AEA0B0AB1F802B04AEA0B0AB1F8BE
:1010E00000B04AEA0B0A4AF4006A4AEA0505858319
:1010F000BDE8F08F0021018041808180C1800181A5
:1011000041818181C18107210182704700210180D5
:1011100041808180C18002218160002181817047EE
:1011200021B1028842F04002028004E002884FF6BA
:10113000BF731A400280704721B1828B42F48062F3
:10114000828304E0828B4FF6FF331A40828370471C
:1011500002884FF2FF731A40028002880A4302801D
:101160007047B1F5804F04D1028842F4804202807A
:1011700004E002884BF6FF731A40028070474FF676
:10118000FF62914204D0028842F48072028004E03F
:1011900002884FF6FF631A400280704721B18288AF
:1011A00042F00402828004E082884FF6FB731A400A
:1011B0008280704721B1828842F01002828004E070
:1011C00082884FF6EF731A408280704730B5002254
:1011D0000023848B4FF240052C4084830224048436
:1011E000828B0C88B4F5007F01D00C8814B94FF4C1
:1011F000807308E00C88B4F5407F03D00C88B4F508
:10120000807F00D100238C888D892C434D882C430E
:101210001C4344F400642243828330BD0146888924
:1012200070478181704721B1028842F400520280E8
:1012300004E002884DF6FF731A400280704701886F
:1012400041F480510180704702460020012901D0FD
:10125000108B00E0908A70470146088A70471AB1E7
:1012600083880B43838002E083888B4383807047AD
:1012700030B5002400230C110125A540ABB2AAB162
:1012800085881D43858014E000300140003800400F
:10129000003C004000340140005001400054014037
:1012A0000838024000127A000024F40085889D432B
:1012B000858030BD0246002013890B400BB1012010
:1012C00000E000207047CA4302817047F0B5024633
:1012D000002000240023002501F00F070126BE4056
:1012E000B4B20B1101269E40B3B2968806EA0305FC
:1012F0001689264016B10DB1012000E00020F0BD96
:1013000010B5002201F00F040123A3409AB2D34389
:10131000038110BD10B50446FA48844208D101216A
:101320001020FFF712FD00211020FFF70EFD57E0FF
:10133000F548844209D101214804FFF7F5FC00215A
:101340004FF40030FFF7F0FC4AE0F048844209D146
:1013500001218804FFF7E8FC00214FF48020FFF70B
:10136000E3FC3DE0EA48844209D10121C804FFF7CB
:10137000DBFC00214FF40020FFF7D6FC30E0E5480D
:10138000844209D101210805FFF7CEFC00214FF46A
:101390008010FFF7C9FC23E0DF48844208D1012117
:1013A0002020FFF7D2FC00212020FFF7CEFC17E021
:1013B000DA48844209D101218807FFF7B5FC0021F2
:1013C0004FF08040FFF7B0FC0AE0D548844207D1D7
:1013D00001214005FFF7A8FC00216005FFF7A4FCF0
:1013E00010BD2DE9FF4705460E460024A14600BF6B
:1013F000A046B08900B100BF2C8A24F44054F08884
:1014000004432C82AC8941F20C608443B08831895A
:101410000843718908430443AC81AC8A24F44074C6
:10142000B0890443AC826846FFF70FFBB54885429C
:1014300002D0B948854202D1DDF80C9001E0DDF818
:101440000890A88900F4004040B109EBC90000EB06
:10145000091031684900B0FBF1F707E009EBC9005A
:1014600000EB091031688900B0FBF1F76420B7FB8D
:10147000F0F004012009642101FB1078A88900F430
:10148000004040B1322000EBC800B0FBF1F000F0AA
:101490000700044308E0322000EB08106421B0FB91
:1014A000F1F000F00F0004432C81BDE8FF874FF4FA
:1014B0001651016000218180C18001810C21418190
:1014C00000218181704710B502460020108A20F467
:1014D00070600B884C8823438C882343CC8823433B
:1014E0001843108210BD0021018041808180C1809D
:1014F000704721B1828942F40052828104E08289DE
:101500004DF6FF731A4082817047028B02F47F42CE
:101510000283028B0A430283704721B1828942F41D
:101520000042828103E08289C2F30E028281704709
:1015300021B1828A42F40062828204E0828A4FF200
:10154000FF731A4082827047C1F30802828070479D
:1015500001468888C0F308007047028A4FF6F0738E
:101560001A400282028A0A430282704721B18289AC
:1015700042F00202828104E082894FF6FD731A4034
:101580008281704782894FF2FF731A40828182897B
:101590000A4382817047028A4FF6DF731A40028243
:1015A000028A0A430282704721B1028A42F48042D1
:1015B000028204E0028A4BF6FF731A4002827047EF
:1015C000818941F001018181704721B1828A42F015
:1015D0000802828204E0828A4FF6F7731A40828200
:1015E0007047028BD2B20283028B42EA012202834D
:1015F000704721B1828A42F02002828204E0828A0E
:101600004FF6DF731A408282704721B1828A42F01E
:101610001002828204E0828A4FF6EF731A408282BF
:101620007047828A4FF6FB731A408282828A0A438D
:101630008282704721B1828A42F00202828204E0F3
:10164000828A4FF6FD731A40828270471AB1838AEC
:101650000B43838202E0838A8B4383827047F0B519
:101660000346002400260025002040F66A17B942F0
:1016700000D100BF1846C1F3421401F01F06012734
:1016800007FA06F5012C01D10C3004E0022C01D13F
:10169000103000E014301AB107682F43076002E0F1
:1016A0000768AF430760F0BD02460020B1F5007F38
:1016B00000D100BF13880B400BB1012000E00020D7
:1016C000704701F40072B2F5007F00D100BFCA4339
:1016D0000280704770B502460024002300250020D8
:1016E00040F66A16B14200D100BFC1F3421501F0C5
:1016F0001F03012606FA03F3012D13D19689334007
:1017000017E0000000100140004400400048004085
:10171000004C0040005000400014014000780040A0
:10172000007C0040022D02D1168A334001E0968AE7
:1017300033400C12012606FA04F41688344013B123
:101740000CB1012000E0002070BD10B50022002384
:1017500040F66A14A14200D100BF0A12012494404D
:10176000A3B2DC43048010BD10B504466FF0040042
:10177000FEF7FAFEE11704EB5171C1F3C701394AD4
:1017800011701046007800EB4001C1EBC0104FF61D
:10179000FF7101EAC0003449088010BD0146314A9A
:1017A00012784A434FF0E0235A6100229A611A46A8
:1017B000126942F001021A6100BF4FF0E022106985
:1017C00000F001021AB100F48032002AF5D04FF087
:1017D000E022126922F001024FF0E0231A61002298
:1017E0009A6170470146204A12884A434FF0E0232D
:1017F0005A6100229A611A46126942F001021A6186
:1018000000BF4FF0E022106900F001021AB100F4AD
:101810008032002AF5D04FF0E022126922F0010256
:101820004FF0E0231A6100229A61704770B50446B8
:101830004FF4077094FBF0F0C6B24FF4077094FBBE
:10184000F0F100FB114085B205E04FF40770FFF79F
:10185000C9FF701EC6B2002EF7D115B12846FFF79A
:10186000C1FF70BD280000202A00002010B5A8206C
:10187000FFF77AFF4FF48060FEF724FE02F040F895
:1018800000F016F800F096F8074802F02DF902F083
:101890000EF8642002F089F800200449086002F084
:1018A00006F9012010BD000020A10700A4824242D9
:1018B0001CB501211120FFF799F91C200090002090
:1018C0008DF8040003208DF8050001208DF8070035
:1018D00069463548FEF7ECFE0120009002208DF8A5
:1018E000070069463148FEF7E3FE1CBD10B504460B
:1018F00014B101202E4908702D480078002837D0F7
:1019000010212948FEF736FF78B108212648FEF756
:1019100031FF50B104212448FEF72CFF28B10121EA
:101920002248FEF727FF012822D10A20FFF77EFF79
:1019300000201F49087010211B48FEF71BFF08B943
:10194000012010BD08211848FEF714FF08B9022035
:10195000F7E704211448FEF70DFF08B90320F0E76C
:1019600001211248FEF706FF01281BD10420E8E7F9
:1019700010210D48FEF7FEFE012813D108210A4868
:10198000FEF7F8FE01280DD104210748FEF7F2FE0C
:10199000012807D101210548FEF7ECFE10B901200E
:1019A000034908700020CCE700100240000002400C
:1019B0002C0000201CB501212020FFF717F94FF45F
:1019C000C060009001208DF8040000208DF8060012
:1019D00003208DF8050001208DF8070069460448B2
:1019E000FEF766FE4FF4C0610148FEF7DDFE1CBD48
:1019F000001402406448C089401C6349C8810846FD
:101A00008088401C00B288800846C088401C00B214
:101A1000C88008460089401C00B2088108464089F9
:101A2000401C00B2488108468089401C00B2888171
:101A300008460078012804D108464078401C4870C8
:101A400002E0012050490870704710B5012001F0F4
:101A5000F7FF00F0DFFA10BD10B52DED028B00206E
:101A600001F0EEFFDFED490A80EE201AB0EE418A68
:101A700001F077FF00EE100AB8EE400ADFED430AEE
:101A800080EE201A424880ED001A01F06AFF00EE55
:101A9000100AB8EE400ADFED3D0A80EE201A3C48FD
:101AA00080ED011ABDEC028B10BD10B52DED028B3F
:101AB000022001F0C5FFDFED350A80EE201AB0EEFE
:101AC000418A01F04EFF00EE100AB8EE400ADFED49
:101AD0002F0A80EE201A2E4880ED021A01F041FFF5
:101AE00000EE100AB8EE400ADFED280A80EE201A58
:101AF000274880ED031ABDEC028B10BD704770477C
:101B0000704710B52048007801283BD12148008853
:101B100000B221490880FFF798FF1B48B0F9040084
:101B2000022804DB002018498880FFF795FF16483B
:101B3000B0F90600052804DB00201349C880FFF730
:101B4000B4FF1148B0F908000A2804DB00200E4950
:101B50000881FFF7D3FF0C48B0F90A00142804DB12
:101B6000002009494881FFF7CAFF0748B0F90C0077
:101B7000322804DB002004498881FFF7C1FF0020E0
:101B80000149087010BD00006C0000200024744959
:101B90007C000020540000203000002070B5054675
:101BA0000C462146FE4802F04EF870BD70B5044662
:101BB0000D46AA20FA4908704870EF20887002206C
:101BC000C8700846047145710026002005E0F449FC
:101BD000095C3144CEB2411CC8B20628F7DBF0489C
:101BE00086710721FFF7DAFF70BD70B52DED0A8B06
:101BF00082B00546B0EE408AF0EE608AB0EE419ABF
:101C0000F0EE619AB0EE42AAF0EE62AAB0EE43BAEC
:101C1000F0EE63BAB0EE44CA0024AA222146641C46
:101C2000DF4842542146641C425405F10F00C2B201
:101C30002146641CDA48425400222146641C425466
:101C40009FEDD80A28EE000ABDEEC00A10EE100A79
:101C500000B201909DF805202146641CD0484254F2
:101C60009DF804202146641C42549FEDCE0A28EEC4
:101C7000800ABDEEC00A10EE100A00B201909DF875
:101C800005202146641CC64842549DF80420204685
:101C9000611CCCB2C2490A549FEDC20A29EE000A67
:101CA000BDEEC00A10EE100A00B201909DF80520AA
:101CB0002046611CCCB2BA490A549DF80420204643
:101CC000611CCCB2B6490A549FEDB60A29EE800ACF
:101CD000BDEEC00A10EE100A00B201909DF805207A
:101CE0002046611CCCB2AE490A549DF8042020461F
:101CF000611CCCB2AA490A549FEDAA0A2AEE000A36
:101D0000BDEEC00A10EE100A00B201909DF8052049
:101D10002046611CCCB2A2490A549DF804202046FA
:101D2000611CCCB29E490A549FED9E0A2AEE800A9D
:101D3000BDEEC00A10EE100A00B201909DF8052019
:101D40002046611CCCB296490A549DF804202046D6
:101D5000611CCCB292490A549FED920A2BEE000A04
:101D6000BDEEC00A10EE100A00B201909DF80520E9
:101D70002046611CCCB28A490A549DF804202046B2
:101D8000611CCCB286490A549FED860A2BEE800A6C
:101D9000BDEEC00A10EE100A00B201909DF80520B9
:101DA0002046611CCCB27E490A549DF8042020468E
:101DB000611CCCB27A490A549FED7A0A2CEE000AD3
:101DC000BDEEC00A10EE100A00B201909DF8052089
:101DD0002046611CCCB272490A549DF8042020466A
:101DE000611CCCB26E490A54201FC8700026002026
:101DF00005E06B49095C3144CEB2411CC8B2A04237
:101E0000F7DB2046611CCCB265490E54214664487C
:101E1000FFF7C4FE02B0BDEC0A8B70BD2DE9FF4F89
:101E20002DED020B81B0054616461F46DDE911ABCC
:101E3000DDF840900024A046AA222146641C5848A0
:101E400042542146641C425405F1F000C2B22146BE
:101E5000641C5348425400222146641C42549DEDA8
:101E6000010ABDEEC00A10EE100A00B200909DF803
:101E700007202146641C4A4842549DF8062021460A
:101E8000641C42549DF805202146641C42549DF870
:101E900004202046611CCCB241490A54049800B287
:101EA00000909DF813202046611CCCB23C490A5496
:101EB0009DF812202046611CCCB239490A549DF885
:101EC00011202046611CCCB235490A549DF81020DF
:101ED0002046611CCCB232490A5400969DF801207C
:101EE0002046611CCCB22E490A549DF800202046A1
:101EF000611CCCB22A490A5400979DF80120204663
:101F0000611CCCB226490A549DF800202146601C71
:101F1000C4B223484254CDF800909DF801202046D9
:101F2000611CCCB21E490A549DF800202046611C59
:101F3000CCB21B490A54CDF800A09DF801202046E0
:101F4000611CCCB216490A549DF800202046611C41
:101F5000CCB213490A54CDF800B09DF801202046B8
:101F6000611CCCB20E490A549DF800202046611C29
:101F7000CCB20B490A54139800909DF801202046DA
:101F8000611CCCB206490A549DF800202046611C11
:101F9000CCB203490A54149800909DF8012003E044
:101FA000A400002000007A442046611CCCB2FE4907
:101FB0000A549DF800202046611CCCB2FA490A540C
:101FC000159800909DF801202046611CCCB2F6497E
:101FD0000A549DF800202046611CCCB2F2490A54F4
:101FE000201FC870002006E0EF49095C414401F061
:101FF000FF08411CC8B2A042F6DB2046611CCCB2EF
:10200000E94901F800802146E748FFF7C7FD07B01E
:10201000BDE8F08F00B587B0E4480078E44909785E
:1020200090FBF1F201FB1201E1480078801E814231
:1020300002D10120DF494874DC480078DE49097884
:1020400090FBF1F201FB1201DB480078401E814257
:1020500002D10120D7494873D4480078D74909787C
:1020600090FBF1F201FB1201D4480078801E8142FE
:1020700002D10120CF49C873CC480078401CC0B2BF
:10208000CA490870C82801DD00200870C948807856
:1020900048B10020C7498870C9480178C94800780C
:1020A000FFF784FD33E1C348407CB8B10020C1494B
:1020B00048740A20092108220723CDE90232CDE91C
:1020C00004100620052104230322CDE9001002217B
:1020D000B7EE000A0120FFF7A1FE18E1B548C0796C
:1020E00058B30020B349C871B748D0ED094AB0EEE3
:1020F000644AD0ED0A4AF0EE643AD0ED084AB0EEF8
:10210000643AD0ED054AF0EE642AD0ED064AB0EE0E
:10211000642AD0ED044AF0EE641AD0ED014AB0EE24
:10212000641AD0ED024AF0EE640AD0ED004AB0EE37
:10213000640A0120FFF759FDE9E09E48007A58B390
:1021400000209C490872A048D0ED154AB0EE644AC0
:10215000D0ED164AF0EE643AD0ED144AB0EE643A8F
:10216000D0ED114AF0EE642AD0ED124AB0EE642AA6
:10217000D0ED104AF0EE641AD0ED0D4AB0EE641ABC
:10218000D0ED0E4AF0EE640AD0ED0C4AB0EE640ACF
:102190000220FFF72AFDBAE08648407A58B30020B3
:1021A000844948728848D0ED214AB0EE644AD0EDA7
:1021B000224AF0EE643AD0ED204AB0EE643AD0ED17
:1021C0001D4AF0EE642AD0ED1E4AB0EE642AD0ED2E
:1021D0001C4AF0EE641AD0ED194AB0EE641AD0ED44
:1021E0001A4AF0EE640AD0ED184AB0EE640A0320F1
:1021F000FFF7FBFC8BE06F48807A58B300206D49F5
:1022000088727148D0ED2D4AB0EE644AD0ED2E4A66
:10221000F0EE643AD0ED2C4AB0EE643AD0ED294AA3
:10222000F0EE642AD0ED2A4AB0EE642AD0ED284AB6
:10223000F0EE641AD0ED254AB0EE641AD0ED264ACD
:10224000F0EE640AD0ED244AB0EE640A0420FFF7F1
:10225000CCFC5CE05748C07A58B300205549C8729E
:102260005948D0ED394AB0EE644AD0ED3A4AF0EE22
:10227000643AD0ED384AB0EE643AD0ED354AF0EE2B
:10228000642AD0ED364AB0EE642AD0ED344AF0EE3E
:10229000641AD0ED314AB0EE641AD0ED324AF0EE55
:1022A000640AD0ED304AB0EE640A0520FFF79DFCC9
:1022B0002DE04048007B50B300203E49087342485F
:1022C000D0ED454AB0EE644AD0ED464AF0EE643AAD
:1022D000D0ED444AB0EE643AD0ED414AF0EE642AC3
:1022E000D0ED424AB0EE642AD0ED404AF0EE641AD6
:1022F000D0ED3D4AB0EE641AD0ED3E4AF0EE640AED
:10230000D0ED3C4AB0EE640A0620FFF76EFC07B041
:1023100000BD03B587B00020069005900AE005993E
:102320000798415C06980844C0B206900598401C86
:10233000C0B205900898401E05998842EFDCDDE99F
:102340000701084410F8011C0698814201D009B029
:1023500000BD07980078AA2803D107984078AF28D5
:1023600000D0F4E707988078012818D10798007901
:10237000012814D007980079022810D00798007916
:1023800003280CD007980079042808D00798007912
:10239000212803DB07980079262800DD00BF079875
:1023A000807802282AD111E0A40000203C000020FF
:1023B0003D000020900000203E0000203F00002053
:1023C00039000020380000204801002007980079DB
:1023D000012806D1FE49C871087248728872C87215
:1023E000087307980079A02802D10120F849C87025
:1023F00007980079A12801D101F054F90798807855
:1024000010287CD107980079000200B20799497919
:102410000843019004F029FB9FEDEE0B53EC102BC9
:10242000CDE902019DED020B51EC100B04F034FBE1
:10243000CDE904019DED040B51EC100B04F0E4FA1E
:10244000E649086007988079000200B20799C979C7
:102450000843019004F009FB9FEDDE0B53EC102BB9
:10246000CDE902019DED020B51EC100B04F014FBC1
:10247000CDE904019DED040B51EC100B04F0C4FAFE
:10248000D64988600798007A000200B20799497A15
:102490000843019004F0E9FA9FEDCE0B53EC102BAA
:1024A000CDE902019DED020B51EC100B04F0F4FAA2
:1024B000CDE904019DED040B51EC100B04F0A4FADE
:1024C000C64948600798807A000200B20799C97A25
:1024D0000843019004F0C9FA9FEDBE0B53EC102B9A
:1024E000CDE902019DED020B51EC100B04F0D4FA82
:1024F000CDE904019DED040B51EC100B00E0B5E0BB
:1025000004F082FAB54908610798007B000200B226
:102510000799497B0843019004F0A7FA9FEDAD0BA2
:1025200053EC102BCDE902019DED020B51EC100B89
:1025300004F0B2FACDE904019DED040B51EC100B4F
:1025400004F062FAA54988610798807B000200B216
:102550000799C97B0843019004F087FA9FED9D0B12
:1025600053EC102BCDE902019DED020B51EC100B49
:1025700004F092FACDE904019DED040B51EC100B2F
:1025800004F042FA954948610798007C000200B2C5
:102590000799497C0843019004F067FA9FED8D0B81
:1025A00053EC102BCDE902019DED020B51EC100B09
:1025B00004F072FACDE904019DED040B51EC100B0F
:1025C00004F022FA854908620798807C000200B274
:1025D0000799C97C0843019004F047FA9FED7D0BF1
:1025E00053EC102BCDE902019DED020B51EC100BC9
:1025F00004F052FACDE904019DED040B51EC100BEF
:1026000004F002FA754988620798007D000200B262
:102610000799497D0843019004F027FA9FED6D0B5F
:1026200053EC102BCDE902019DED020B51EC100B88
:1026300004F032FACDE904019DED040B51EC100BCE
:1026400004F0E2F9654948626148807848B90120A0
:102650005F498870079880786149087061490698D9
:10266000087001F023F901205F49088007988078FD
:1026700011287CD107980079000200B207994979A6
:102680000843019004F0F1F99FED520B53EC102B2D
:10269000CDE902019DED020B51EC100B04F0FCF9A9
:1026A000CDE904019DED040B51EC100B04F0ACF9E5
:1026B0004A49086307988079000200B20799C979EE
:1026C0000843019004F0D1F99FED420B53EC102B1D
:1026D000CDE902019DED020B51EC100B04F0DCF989
:1026E000CDE904019DED040B51EC100B04F08CF9C5
:1026F0003A4988630798007A000200B20799497A3C
:102700000843019004F0B1F99FED320B53EC102B0C
:10271000CDE902019DED020B51EC100B04F0BCF968
:10272000CDE904019DED040B51EC100B04F06CF9A4
:102730002A4948630798807A000200B20799C97A4B
:102740000843019004F091F99FED220B53EC102BFC
:10275000CDE902019DED020B51EC100B04F09CF948
:10276000CDE904019DED040B51EC100B00E0C5E038
:1027700004F04AF9194908640798007B000200B286
:102780000799497B0843019004F06FF99FED110B05
:1027900053EC102BCDE902019DED020B51EC100B17
:1027A00004F07AF9CDE904019DED040B51EC100B16
:1027B00004F02AF9094988640798807B000200B276
:1027C0000799C97B0843019004F04FF90EE000001F
:1027D00090000020FCA9F1D24D62503F480100203A
:1027E00038000020390000203A0000201FED070BC0
:1027F00053EC102BCDE902019DED020B51EC100BB7
:1028000004F04AF9CDE904019DED040B51EC100BE5
:1028100004F0FAF8FE4948640798007C000200B210
:102820000799497C0843019004F01FF91FED170B2D
:1028300053EC102BCDE902019DED020B51EC100B76
:1028400004F02AF9CDE904019DED040B51EC100BC5
:1028500004F0DAF8EE4908650798807C000200B2BF
:102860000799C97C0843019004F0FFF81FED270B7E
:1028700053EC102BCDE902019DED020B51EC100B36
:1028800004F00AF9CDE904019DED040B51EC100BA5
:1028900004F0BAF8DE4988650798007D000200B2AE
:1028A0000799497D0843019004F0DFF81FED370BCD
:1028B00053EC102BCDE902019DED020B51EC100BF6
:1028C00004F0EAF8CDE904019DED040B51EC100B86
:1028D00004F09AF8CE494865CE48807848B901207E
:1028E000CC49887007988078CB490870CB49069806
:1028F000087000F0DBFF0120C94908800798807844
:1029000012287CD107980079000200B20799497912
:102910000843019004F0A9F81FED520B53EC102B63
:10292000CDE902019DED020B51EC100B04F0B4F85F
:10293000CDE904019DED040B51EC100B04F064F89B
:10294000B349086607988079000200B20799C979EF
:102950000843019004F089F81FED620B53EC102B33
:10296000CDE902019DED020B51EC100B04F094F83F
:10297000CDE904019DED040B51EC100B04F044F87B
:10298000A34988660798007A000200B20799497A3D
:102990000843019004F069F81FED720B53EC102B03
:1029A000CDE902019DED020B51EC100B04F074F81F
:1029B000CDE904019DED040B51EC100B04F024F85B
:1029C000934948660798807A000200B20799C97A4D
:1029D0000843019004F049F81FED820B53EC102BD3
:1029E000CDE902019DED020B51EC100B04F054F8FF
:1029F000CDE904019DED040B51EC100B00E0B8E0B3
:102A000004F002F8824908670798007B000200B2D0
:102A10000799497B0843019004F027F81FED930BB9
:102A200053EC102BCDE902019DED020B51EC100B84
:102A300004F032F8CDE904019DED040B51EC100BCC
:102A400003F0E2FF724988670798807B000200B2BA
:102A50000799C97B0843019004F007F81FEDA30B09
:102A600053EC102BCDE902019DED020B51EC100B44
:102A700004F012F8CDE904019DED040B51EC100BAC
:102A800003F0C2FF624948670798007C000200B269
:102A90000799497C0843019003F0E7FF1FEDB30B52
:102AA00053EC102BCDE902019DED020B51EC100B04
:102AB00003F0F2FFCDE904019DED040B51EC100B86
:102AC00003F0A2FF5249C1F880000798807C000201
:102AD00000B20799C97C0843019003F0C6FF1FEDBF
:102AE000C30B53EC102BCDE902019DED020B51EC11
:102AF000100B03F0D1FFCDE904019DED040B51EC67
:102B0000100B03F081FF4249C1F888000798007D4F
:102B1000000200B20799497D0843019003F0A5FF28
:102B20001FEDD40B53EC102BCDE902019DED020BF0
:102B300051EC100B03F0B0FFCDE904019DED040B47
:102B400051EC100B03F060FF3149C1F884003148AB
:102B5000807848B901202F498870079880782E49DD
:102B600008702E490698087000F0A0FE01202C493C
:102B700008800798807813287CD107980079000294
:102B800000B2079949790843019003F06EFF1FEDE9
:102B9000EF0B53EC102BCDE902019DED020B51EC34
:102BA000100B03F079FFCDE904019DED040B51EC0E
:102BB000100B03F029FF1649C1F89000079880799F
:102BC000000200B20799C9790843019003F04DFF54
:102BD0009FED140B53EC102BCDE902019DED020B80
:102BE00051EC100B03F058FFCDE904019DED040BEF
:102BF00051EC100B03F008FF0549C1F89800079845
:102C0000007A000200B20799497A084301900DE06A
:102C100048010020900000203800002039000020EA
:102C20003A000020FCA9F1D24D62503F03F01DFF95
:102C30001FED040B53EC102BCDE902019DED020BAF
:102C400051EC100B03F028FFCDE904019DED040BBE
:102C500051EC100B03F0D8FEFE49C1F89400079820
:102C6000807A000200B20799C97A0843019003F004
:102C7000FCFE00E0CDE01FED150B53EC102BCDE971
:102C800002019DED020B51EC100B03F005FFCDE9A5
:102C900004019DED040B51EC100B03F0B5FEED4962
:102CA000C1F8A0000798007B000200B20799497B99
:102CB0000843019003F0D9FE1FED260B53EC102BB7
:102CC000CDE902019DED020B51EC100B03F0E4FE87
:102CD000CDE904019DED040B51EC100B03F094FEC3
:102CE000DC49C1F8A8000798807B000200B2079970
:102CF000C97B0843019003F0B8FE1FED360B53EC7F
:102D0000102BCDE902019DED020B51EC100B03F0ED
:102D1000C3FECDE904019DED040B51EC100B03F053
:102D200073FECC49C1F8A4000798007C000200B2F1
:102D30000799497C0843019003F097FE1FED470B6C
:102D400053EC102BCDE902019DED020B51EC100B61
:102D500003F0A2FECDE904019DED040B51EC100B34
:102D600003F052FEBB49C1F8B0000798807C000216
:102D700000B20799C97C0843019003F076FE1FED6D
:102D8000570B53EC102BCDE902019DED020B51ECDA
:102D9000100B03F081FECDE904019DED040B51EC15
:102DA000100B03F031FEAB49C1F8B8000798007D65
:102DB000000200B20799497D0843019003F055FED7
:102DC0001FED680B53EC102BCDE902019DED020BBA
:102DD00051EC100B03F060FECDE904019DED040BF6
:102DE00051EC100B03F010FE9A49C1F8B4009A4858
:102DF000807848B901209849887007988078974969
:102E0000087097490698087000F050FD0120954918
:102E100008800798807814287DD1079800790002EF
:102E200000B2079949790843019003F01EFE1FED97
:102E3000830B53EC102BCDE902019DED020B51ECFD
:102E4000100B03F029FECDE904019DED040B51ECBC
:102E5000100B03F0D9FD7F49C1F8C00007988079B5
:102E6000000200B20799C9790843019003F0FDFD03
:102E70001FED940B53EC102BCDE902019DED020BDD
:102E800051EC100B03F008FECDE904019DED040B9D
:102E900051EC100B03F0B8FD6E49C1F8C80007985B
:102EA000007A000200B20799497A0843019003F0C2
:102EB000DCFD1FEDA40B53EC102BCDE902019DEDC1
:102EC000020B51EC100B03F0E7FDCDE904019DED81
:102ED000040B51EC100B03F097FD5E49C1F8C400E0
:102EE0000798807A000200B20799C97A08430190D6
:102EF00003F0BBFD1FEDB50B53EC102BCDE9020128
:102F00009DED020B51EC100B03F0C6FDCDE9040161
:102F10009DED040B00E0C7E051EC100B03F074FDD5
:102F20004C49C1F8D0000798007B000200B2079915
:102F3000497B0843019003F098FD1FEDC60B53EC4D
:102F4000102BCDE902019DED020B51EC100B03F0AB
:102F5000A3FDCDE904019DED040B51EC100B03F032
:102F600053FD3C49C1F8D8000798807B000200B2AD
:102F70000799C97B0843019003F077FD1FEDD70B3C
:102F800053EC102BCDE902019DED020B51EC100B1F
:102F900003F082FDCDE904019DED040B51EC100B13
:102FA00003F032FD2B49C1F8D4000798007C0002E1
:102FB00000B20799497C0843019003F056FD1FEDCC
:102FC000E70B53EC102BCDE902019DED020B51EC08
:102FD000100B03F061FDCDE904019DED040B51ECF4
:102FE000100B03F011FD1B49C1F8E0000798807C2D
:102FF000000200B20799C97C0843019003F035FD37
:103000001FEDF80B53EC102BCDE902019DED020BE7
:1030100051EC100B03F040FDCDE904019DED040BD4
:1030200051EC100B03F0F0FC0A49C1F8E8000798D6
:10303000007D000200B20799497D0843019003F02A
:1030400014FD9FED090B53EC102BCDE902019DED12
:10305000020B0DE048010020900000203800002005
:10306000390000203A000020FCA9F1D24D62503F07
:1030700051EC100B03F010FDCDE904019DED040BA4
:1030800051EC100B03F0C0FCFA49C1F8E400FA4817
:10309000807848B90120F849887007988078F74906
:1030A0000870F749069808700798807815287DD130
:1030B00007980079000200B2079949790843019006
:1030C00003F0D3FC1FED180B53EC102BCDE90201DC
:1030D0009DED020B51EC100B03F0DEFCCDE9040179
:1030E0009DED040B51EC100B03F08EFCE149C1F88F
:1030F000F00007988079000200B20799C979084367
:10310000019003F0B2FC1FED280B53EC102BCDE91E
:1031100002019DED020B51EC100B03F0BDFCCDE95B
:1031200004019DED040B51EC100B03F06DFCD14933
:10313000C1F8F8000798007A000200B20799497AAE
:103140000843019003F091FC1FED390B53EC102B59
:10315000CDE902019DED020B51EC100B03F09CFC3C
:10316000CDE904019DED040B51EC100B03F04CFC78
:10317000C049C1F8F4000798807A000200B20799AC
:10318000C97A0843019003F070FC1FED490B53EC22
:10319000102BCDE902019DED020B51EC100B03F059
:1031A0007BFCCDE904019DED040B00E0B8E051EC9F
:1031B000100B03F029FCAF49C1F800010798007B10
:1031C000000200B20799497B0843019003F04DFCCF
:1031D0001FED5B0B53EC102BCDE902019DED020BB3
:1031E00051EC100B03F058FCCDE904019DED040BEC
:1031F00051EC100B03F008FC9E49C1F80801079838
:10320000807B000200B20799C97B0843019003F05C
:103210002CFC1FED6B0B53EC102BCDE902019DED47
:10322000020B51EC100B03F037FCCDE904019DEDCE
:10323000040B51EC100B03F0E7FB8E49C1F80401BD
:103240000798007C000200B20799497C084301906E
:1032500003F00BFC1FED7C0B53EC102BCDE90201AE
:103260009DED020B51EC100B03F016FCCDE90401AF
:103270009DED040B51EC100B03F0C6FB7D49C1F82A
:1032800010010798807C000200B20799C97C0843AE
:10329000019003F0EAFB1FED8C0B53EC102BCDE9F2
:1032A00002019DED020B51EC100B03F0F5FBCDE993
:1032B00004019DED040B51EC100B03F0A5FB6D49CF
:1032C000C1F818010798007D000200B20799497DF6
:1032D0000843019003F0C9FB1FED9D0B53EC102B2D
:1032E000CDE902019DED020B51EC100B03F0D4FB74
:1032F000CDE904019DED040B51EC100B03F084FBB0
:103300005C49C1F814015C48807848B901205A49E9
:10331000887007988078594908705949069808704C
:1033200000BFFFF714B810B504465648007838B906
:10333000AA2C05D1012053490870534804705DE060
:1033400050480078012807D1AF2C05D102204D4903
:1033500008704D48447051E04A480078022807D16F
:10336000F12C05DA0320474908704748847045E08E
:103370004448007803280CD1322C0ADA0420414951
:1033800008704148C47041480470002040490870EA
:1033900034E03C480078042819D13C4800780028E3
:1033A00015DD3A480078401E3849087038480078E2
:1033B00037490978491C364A1170001D32490C54AE
:1033C00032480078D0B905202E49087016E02D4803
:1033D000007805280FD100202A4908702C48007871
:1033E000001D29490C542A480078401DC1B22648C6
:1033F000FEF78FFF02E000202249087010BD2DE982
:10340000F04106460F460024AA222146641C2148AA
:1034100042542146641C4254E0222146641C42541A
:1034200000222146641C4254002007E0335C214600
:10343000621CD4B2174A5354411CC8B2B842F5DBDF
:10344000201F1449C8700025002005E01149095CBF
:103450002944CDB2411CC8B2A042F7DB2046611C12
:10346000CCB20C490D5421460A48FEF797FBBDE843
:10347000F08100004801002090000020380000206A
:103480003900002042000020D6000020400000202B
:1034900041000020A400002038B50122F7A1F8481F
:1034A00001F03CFF0446C4B100221146F3A002F033
:1034B0002EFF044614B14FF0FF3038BD0022EFA1BB
:1034C000EF4801F02BFF04463CB10022EBA110466F
:1034D00001F024FF6FF00100EFE7EAA1EA4802F0F3
:1034E000D4FB04463CB10022E4A1104601F016FFD3
:1034F0006FF00200E1E70122E4A1E74801F039FFA3
:1035000004463CB10022DDA1104601F007FF6FF038
:103510000300D2E76B464022E049DF4801F0DBFFC1
:103520000446009880B3DC4802F034FA0122DCA1A2
:10353000D94801F01EFF04463CB10022CFA110463D
:1035400001F0ECFE6FF00300B7E76B464FF49072AA
:10355000D549D14801F0BFFF0446009848B1CE4894
:1035600002F018FA0022C5A1104601F0D7FE012092
:10357000A3E7C94802F00EFA0022C0A1104601F0EC
:10358000CDFE6FF0030098E7FFE7C34802F002FAB0
:103590000022BAA1104601F0C1FE6FF004008CE7D2
:1035A00038B50022B5A1B64801F0B8FE0446C4B152
:1035B00000221146B1A002F0AAFE044614B14FF059
:1035C000FF3038BD0022ADA1AD4801F0A7FE044692
:1035D0003CB10022A9A1104601F0A0FE6FF001004D
:1035E000EFE7A8A1A84802F050FB04463CB1002236
:1035F000A2A1104601F092FE6FF00200E1E70A225C
:10360000A2A1A54801F0B5FE04463CB100229BA151
:10361000104601F083FE6FF00300D2E76B464022B4
:103620009E499D4802F050F804467CBB9A4802F03F
:10363000B1F90A229AA1984801F09BFE04463CB1D8
:1036400000228EA1104601F069FE6FF00300B8E77A
:103650006B464FF4907294498F4802F035F8044657
:103660004CB98D4802F096F9002284A1104601F071
:1036700055FE0120A5E7884802F08CF900227FA1C1
:10368000104601F04BFE6FF003009AE7FFE7824817
:1036900002F080F9002279A1104601F03FFE6FF0A0
:1036A00004008EE710B50022012174A002F02FFE65
:1036B000B7EE000A7C4880ED000AB7EE000A80ED04
:1036C000020AB7EE000A80ED010AB7EE000A80EDAB
:1036D000040AB7EE000A80ED060AB7EE000A80ED94
:1036E000050AB7EE000A80ED080AB7EE000A80ED81
:1036F0000A0AB7EE000A80ED090AB7EE000A80ED6B
:103700000C0AB7EE000A80ED0E0AB7EE000A80ED53
:103710000D0AB7EE000A80ED100AB7EE000A80ED40
:10372000120AB7EE000A80ED110AB7EE000A80ED2A
:10373000140AB7EE000A80ED160AB7EE000A80ED13
:10374000150AB7EE000A80ED180AB7EE000A80ED00
:103750001A0AB7EE000A80ED190AB7EE000A80EDEA
:103760001C0AB7EE000A80ED1E0AB7EE000A80EDD3
:103770001D0AB7EE000A80ED200AB7EE000A80EDC0
:10378000220AB7EE000A80ED210AB7EE000A80EDAA
:10379000200AB7EE000A80ED220AB7EE000A80ED9B
:1037A000210AB7EE000A80ED240AB7EE000A80ED88
:1037B000260AB7EE000A80ED250AB7EE000A80ED72
:1037C000280AB7EE000A80ED2A0AB7EE000A80ED5B
:1037D000290AB7EE000A80ED2C0AB7EE000A80ED48
:1037E0002E0AB7EE000A80ED2D0AB7EE000A80ED32
:1037F000300AB7EE000A80ED320AB7EE000A80ED1B
:10380000310AB7EE000A80ED340AB7EE000A80ED07
:10381000360AB7EE000A80ED350AB7EE000A80EDF1
:10382000380AB7EE000A80ED3A0AB7EE000A80EDDA
:10383000390AB7EE000A80ED3C0AB7EE000A80EDC7
:103840003E0AB7EE000A80ED3D0AB7EE000A80EDB1
:10385000400AB7EE000A80ED420AB7EE000A80ED9A
:10386000410AB7EE000A80ED440AB7EE000A80ED87
:10387000460AB7EE000A80ED450A10BD303A000056
:10388000680200202F000000C022002073656E73C4
:103890006F722E62696E00009812002008010020ED
:1038A0007069642E62696E0048010020704710B58F
:1038B000FFF7F2FD0446002C04DAFFF7F3FE0120C7
:1038C0000D490870FFF7F2FF10BD10B5FFF768FE55
:1038D00010BD10B50948008820B108480088401C78
:1038E00006490880054800883C2804DD002003497B
:1038F0000880FFF7EAFF10BD430000203A000020D7
:103900007FB56846FDF7A1F84FF47A710198B0FBD6
:10391000F1F4E4082146481EB0F1807F00D31BE09B
:10392000481E4FF0E022506150170F22002807DA9E
:1039300013071E0E634B00F00F052D1F5E5503E0AD
:1039400013071D0E604B1D5400BF00204FF0E022F6
:1039500090610720106100BF6FF00400FCF704FEC7
:103960007FBD5A4A11684FF0E02252694FF0E023C0
:103970009B69D21A4FF47A735A434FF0E0235B6984
:10398000B2FBF3F201EB4103C3EBC11302EBC30043
:10399000704730B50446FFF7E4FF054600BFFFF768
:1039A000E0FF401BA042FAD330BD10B5044603E04F
:1039B0004FF47A70FFF7EDFF2000A4F10104F7D176
:1039C00010BD10B54248007800B910BD41480068EC
:1039D00040F2E731884207DA3E480068401C3D4922
:1039E0000860FEF707F829E000203A4908603A48E5
:1039F00000683B2805DA38480068401C36490860F2
:103A00001CE0002034490860344800683B2805DA8F
:103A100032480068401C314908600FE000202F49FF
:103A200008602F480068172805DA2D480068401CF8
:103A30002B49086002E000202949086000BFC4E764
:103A400010B5044604EB4400264901EB800090EDDC
:103A5000000A04EB440001EB800080ED010AFFF74F
:103A600080FF00EE100AB8EE400A04EB44001D4946
:103A700001EB800080ED000A04EB440001EB8000C4
:103A800090ED000A04EB440001EB8000D0ED010A48
:103A900030EE600A04EB440001EB800080ED020A86
:103AA00004EB440001EB800090ED020A10BD10B55C
:103AB000002404E02046FFF7C3FF601CC4B2052CBD
:103AC000F8DB10BD18ED00E000E400E04400002049
:103AD0000000002054000020500000204C00002076
:103AE00048000020DC22002010B58AB004460121E5
:103AF0004804FDF7C4F801210846FDF777F82620B1
:103B00008DF80C0002208DF80D0000208DF80E00BD
:103B100001208DF80F0003A8FCF7D9FC0722022131
:103B20006648FCF750FE072203216448FCF74BFE71
:103B30000420019002208DF808008DF80900002073
:103B40008DF80A0001208DF80B0001A95B48FCF7F5
:103B5000AFFD0820019002208DF808008DF80900C3
:103B600001208DF80A0000208DF80B0001A95348B0
:103B7000FCF79EFD06940020ADF81C00ADF81E0079
:103B8000ADF82000ADF824000C20ADF82200002094
:103B9000ADF81000ADF812004FF40070ADF814004D
:103BA0000020ADF8160006A94548FDF71AFC04A947
:103BB0004348FDF788FC012240F225514048FDF7BB
:103BC0004EFD01213E48FDF794FC0AB010BD10B532
:103BD0003B48008800F0080018B13948001D0088F3
:103BE000C4B240F225513648FDF774FD58B140F299
:103BF00025513348FDF7A9FD3148001D0088C4B2A6
:103C00002046FFF790FB40F227712D48FDF762FD3B
:103C1000C0B12C4801780078401C2A4A10702A480C
:103C2000405C2749091D088010460078274909781B
:103C3000884207D122480C30008820F080002049BB
:103C40000C31088010BD70B505460E4600240AE010
:103C5000295D1E4802780078401C1C4B18701A48D9
:103C60008154601CC4B2B442F2DB15480C300088A9
:103C700000F0800028B9012240F227711048FDF7BA
:103C8000EEFC70BD10B5002400222146641C1048D3
:103C9000425401222146641C425402222146641CE3
:103CA000425403222146641C425404222146641CCF
:103CB00042542146FFF7C7FF10BD0000000002403C
:103CC0000044004058000020182300205900002024
:103CD0001825002010B5044600BF0221F748FDF763
:103CE000E9FA0028F9D02146F448FDF79AFA00BF16
:103CF0000121F248FDF7DEFA0028F9D0EF48FDF780
:103D00008DFAC0B210BD2DE9F04104460D461646AD
:103D10001EE000BF0221E948FDF7CCFA0028F9D0E7
:103D200014B114F8010B00E0FF2007463946E348C0
:103D3000FDF777FA00BF0121E048FDF7BBFA002844
:103D4000F9D0DE48FDF76AFAC7B20DB105F8017B7C
:103D50003000A6F10106DCD13046BDE8F08170B537
:103D600005462C4600221021D548FCF721FD9F2056
:103D7000FFF7B0FFFF20FFF7ADFF04F8010BFF20B6
:103D8000FFF7A8FF04F8010BFF20FFF7A3FF04F8DB
:103D9000010B01221021CA48FCF70AFD287870BDEA
:103DA00000B589B001210846FCF720FF0121080376
:103DB000FCF776FF05221146C148FCF704FD0522F9
:103DC0000621BF48FCF7FFFC05220721BC48FCF791
:103DD000FAFCE020069002208DF81C0003208DF8EC
:103DE0001D0000208DF81E0002208DF81F0006A97E
:103DF000B348FCF75DFC1020069001208DF81C00F4
:103E000000208DF81E0001208DF81F0000208DF885
:103E10001D0006A9AA48FCF74BFCA848FDF73AF894
:103E20000020ADF804004FF48270ADF806000020C9
:103E3000ADF808000220ADF80A000120ADF80C0032
:103E40004002ADF80E001820ADF810000020ADF8CB
:103E500012000720ADF8140001A99848FDF766F894
:103E600001219648FDF75CF9012210219448FCF7E6
:103E70009FFC002210219248FCF79AFCFF20FFF7DC
:103E800029FF012210218E48FCF792FC08A8FFF7B9
:103E900066FF9DF82000EF2831D14FF4805089490A
:103EA00048809DF82200182803D14FF48050888064
:103EB0001DE09DF82200172804D14FF400608149CD
:103EC000888014E09DF82200162804D14FF4806009
:103ED0007C4988800BE09DF82200152804D14FF41E
:103EE00000707849888002E0002076498880754813
:103EF00040887449898848437249886004E00020FA
:103F00007049087009B000BD01206E49087000BFFB
:103F1000F8E710B5002210216948FCF749FC06209B
:103F2000FFF7D8FE012210216548FCF741FC10BDC7
:103F300010B5002210216248FCF73AFC0420FFF77C
:103F4000C9FE012210215E48FCF732FC10BD10B5FD
:103F5000002400BF002210215948FCF729FC05204D
:103F6000FFF7B8FEFF20FFF7B5FE0446012210213F
:103F70005348FCF71DFC04F001000028EAD110BDF5
:103F800070B504460D46FFF7C4FF002210214C48CF
:103F9000FCF70EFC2020FFF79DFEC4F30740FFF75F
:103FA00099FEC4F30720FFF795FEE0B2FFF792FEFB
:103FB000012210214248FCF7FBFB0DB1FFF7C7FFC0
:103FC00070BD70B504460D461646FFF7A2FF0022ED
:103FD00010213B48FCF7ECFB0220FFF77BFEC4F30B
:103FE0000740FFF777FEC4F30720FFF773FEE0B248
:103FF000FFF770FE03E02878FFF76CFE6D1C3000C1
:10400000A6F10106F7D1012210212D48FCF7D0FBC3
:10401000FFF79DFF70BD70B504460D4616460022A1
:1040200010212748FCF7C4FB0320FFF753FEC4F31D
:104030000740FFF74FFEC4F30720FFF74BFEE0B247
:10404000FFF748FE04E0FF20FFF744FE28706D1CD8
:104050003000A6F10106F6D1012210211848FCF724
:10406000A7FB70BD2DE9F04104460D46164600271A
:1040700000BF0DE01348428829462046FFF7CBFFDA
:104080001048408805440F4840880444781C87B293
:10409000B742EFDBBDE8F0812DE9F04104460D4663
:1040A0001646002707494888C11700EB11614FEAFF
:1040B0002128FFF72EFF00BF25E00000003001405F
:1040C000000002404C25002001212046FFF758FF48
:1040D00010494888C11700EB11614FEA212809E017
:1040E0004FF4807229462046FFF76BFF05F5807577
:1040F00004F580745FEA0800A8F101011FFA81F855
:10410000EED1781C87B2B742DEDBBDE8F081014812
:10411000704700004C250020014631B9394800683D
:10412000007808B10020704700BF00BF0120FAE707
:1041300010B504465CB9FFF7EAFF3249086008464B
:104140000068007808B9FFF72BFE002010BD0120A1
:10415000FCE72DE9F04104460F4615461E468CB992
:1041600028480068007860B126480068408800FB55
:1041700005F8B2B239464046FFF774FF0020BDE8AB
:10418000F08100BF00BF0420F9E72DE9F0410446AB
:104190000F4615461E468CB91A480068007860B173
:1041A00018480068408800FB05F8B2B2394640461E
:1041B000FFF772FF0020BDE8F08100BF00BF0420C0
:1041C000F9E70346C3B931B101290CD0022904D063
:1041D000032910D10DE0002070470A48006840888C
:1041E00010800020F8E707480068808810600020F1
:1041F000F2E70020F0E700BF00BF0420ECE700205A
:10420000704700005C00002070B503460C4603E0D8
:1042100014F8015B03F8015B1500A2F10102F7D16C
:1042200070BD30B5034601E003F8011B1400A2F194
:104230000102F9D130BDF0B503461C460D46002001
:1042400000BF1600A2F1010207D014F8017B15F897
:1042500001CBA7EB0C063000F3D0F0BD024600E026
:10426000521C107810B110788842F9D1107870473C
:104270002DE9F041044600272079F8B1E56A60781D
:1042800001232A4604F13001FFF77FFF08B101271F
:1042900014E000202071206A281AA16988420DD2FA
:1042A000E67809E0A0690544607801232A4604F114
:1042B0003001FFF76AFF761E022EF3D23846BDE8C2
:1042C000F08170B504460D460026E06AA84210D081
:1042D0002046FFF7CDFF06465EB9607801232A46E7
:1042E00004F13001FFF735FF10B14FF0FF35012623
:1042F000E562304670BD70B504462046FFF7B8FF52
:104300000546002D59D1207803284FD16079012826
:104310004CD16289002104F13000FFF782FF552162
:1043200084F82E12AA2184F82F12522084F830002B
:104330005221312001556121322001554121332084
:104340000155722184F8141284F81512412184F861
:104350001612612184F81712217C84F81812208A21
:10436000010A84F819122069010C84F81A122069D4
:10437000010E84F81B12217B84F81C12A089010A0B
:1043800084F81D12E068010C84F81E12E068010E2A
:1043900084F81F12E069401CE0626078012304F198
:1043A0003001E26AFFF7F1FE0020607160780022C0
:1043B0001146FFF706FF00B10125284670BD0246F1
:1043C000891E5069801E884201D80020704793786A
:1043D000906A01FB0300F9E72DE9F05F04460D4602
:1043E000022D02D36069A84202D84FF001098FE084
:1043F0004FF0FF392078012804D002283CD0032850
:104400007ED157E02F4607EB57076089B7FBF0F0E6
:10441000216A00EB010A51462046FFF752FF00B126
:1044200075E038467F1C6189B0FBF1F201FB120197
:1044300004F1300010F801806089B7FBF0F0216AC8
:1044400000EB010A51462046FFF73BFF00B15EE05A
:104450006089B7FBF0F100FB117104F13000405CA2
:1044600048EA002805F0010010B14FEA181001E0F9
:10447000C8F30B0081464AE0B4F80AA00AEBDA70F0
:104480004010B5FBF0F0216A00EB010B59462046C5
:10449000FFF717FF00B13AE068006189B0FBF1F265
:1044A00001FB120104F130000E183078717840EAF7
:1044B00001292CE0B4F80AA04FEAEA700AEB9070E8
:1044C0008010B5FBF0F0216A00EB010B5946204645
:1044D000FFF7F7FE00B11AE0A8006189B0FBF1F226
:1044E00001FB120104F130000E18F0780006B178DB
:1044F00040EA0140717840EA01203178084300E049
:1045000002E020F0704902E04FF0010900BF00BF57
:104510004846BDE8F09F2DE9F05F04460E46174679
:10452000022E02D36069B04202D84FF00208B3E015
:104530002078012804D0022852D0032872D172E0DA
:10454000B14609EB59096089B9FBF0F0216A00EB2B
:10455000010A51462046FFF7B4FE8046B8F1000F2D
:1045600000D098E0484609F101096189B0FBF1F2F9
:1045700001FB120104F130000D1806F0010020B11A
:10458000F9B2287861F31F1000E038462870012046
:1045900020716089B9FBF0F0216A00EB010A5146F5
:1045A0002046FFF78EFE8046B8F1000F00D072E083
:1045B0006089B9FBF0F100FB119104F130000D1896
:1045C00006F0010010B1C7F3071005E0287800F0ED
:1045D000F000C7F3032108432870012020715AE03E
:1045E000B4F80AA00AEBDA704010B6FBF0F0216ACA
:1045F00000EB010B59462046FFF763FE8046B8F1F9
:10460000000F00D047E070006189B0FBF1F201FBC0
:10461000120104F130000D182F70380A6870012063
:10462000207138E034E0B4F80AA04FEAEA700AEBEF
:1046300090708010B6FBF0F0216A00EB010B594638
:104640002046FFF73EFE8046B8F1000F00D022E082
:10465000B0006189B0FBF1F201FB120104F13000FE
:104660000D18E8780006A97840EA0140697840EA28
:1046700001202978084300F0704007432F70380A62
:104680006870380CA870380EE8700120207102E0C4
:104690004FF0020800BF00BF4046BDE8F09F2DE983
:1046A000F04104460E46022E02D36069B04201D8A2
:1046B000022727E0002721E031462046FFF78CFE45
:1046C000054605B91DE0012D01D1022719E0681C3E
:1046D00008B9012715E0002231462046FFF71BFFED
:1046E000074607B10DE02069401C30B12069401C2D
:1046F0002061607940F0010060712E466069B0422F
:10470000DAD800BF3846BDE8F0812DE9F04704460D
:104710008946B9F1000F06D1E76817B16069B84260
:1047200015D8012713E049462046FFF755FE0646F7
:10473000022E02D20120BDE8F087701C08B9304675
:10474000F9E76069B04201D93046F4E74F463D468B
:1047500000BF6D1C6069A84204D80225BD4201D982
:104760000020E8E729462046FFF736FE064606B950
:1047700009E0701C08B1012E01D13046DBE7BD42D3
:10478000E7D10020D7E700BF6FF0704229462046EE
:10479000FFF7C1FE8046B8F1000F08D1B9F1000F54
:1047A00005D02A4649462046FFF7B5FE8046B8F1B7
:1047B000000F0BD1E5602069401C78B12069401ED4
:1047C0002061607940F00100607107E0B8F1010FED
:1047D00002D14FF0FF3000E0012005462846AAE74D
:1047E00070B502460D46506A031D10684089B5FB3E
:1047F000F0F01668B678B0FBF6F400BF02CB09B94A
:10480000002070BD8C4200D202E0641A1B1DF5E747
:1048100000BF18682044F4E72DE9F04104460E4635
:10482000E680A568012D03D020684069A84202D81F
:104830000220BDE8F0812DB920680078032801D15D
:104840002068456A45B920680089B04201D8022035
:10485000EFE72068476A24E021684889C11700EB28
:10486000D16149112268927811FB02F812E02946C1
:104870002068FFF7B1FD0546681C08B90120D8E79C
:10488000022D03D320684069A84201D80220D0E756
:10489000A6EB08064645EAD229462068FFF78FFDB9
:1048A0000746E5600FB90220C3E721684889C117B0
:1048B00000EBD1614911B6FBF1F139442161216866
:1048C0004889C11700EBD1614911B6FBF1F201FB38
:1048D00012612268303202EB411161610020A8E7C9
:1048E0002DE9F04104468846E088461CB0B208B184
:1048F000206910B90420BDE8F08121684889C117FA
:1049000000EBD1614911B6FBF1F201FB1261002904
:1049100071D12069401C2061E06828B920680089B5
:10492000B04268D80420E6E721684889C11700EB47
:10493000D1614911B6FBF1F122689278521E114003
:10494000002958D1E1682068FFF746FD0546012D92
:1049500001D80220CFE7681C08B90120CBE7206806
:104960004069A84241D8B8F1000F01D10420C2E744
:10497000E1682068FFF7C9FE05460DB90720BAE7D0
:10498000012D01D10220B6E7681C08B90120B2E769
:104990002068FFF76DFC08B10120ACE721684A8967
:1049A00001F130000021FFF73CFC29462068FFF7A9
:1049B00006FD2168C86200270EE001202168087109
:1049C0002068FFF755FC08B1012094E72068C06A11
:1049D000401C2168C8627F1C20688078B842ECD8EF
:1049E0002068C06AC01B2168C862E560294620684B
:1049F000FFF7E5FC2061E68021684889C11700EBDC
:104A0000D1614911B6FBF1F201FB1261226830322B
:104A100002EB4111616100206DE72DE9F041044690
:104A20000E4600212046FFF7F7FE0546EDB90027A8
:104A300000BF21692068FFF744FC054605B113E07B
:104A400060690078E52802D06069007820B9781C98
:104A50000746B04201D107E0002701212046FFF7B9
:104A60003FFF0546002DE4D000BF042D00D10725EF
:104A70002846BDE8F08110B502468C7ECB7E44EA24
:104A800003201378032B05D10C7D4B7D44EA0323CF
:104A900040EA034010BD81760B0AC3760A0C02750A
:104AA0000B0E437570472DE9F04104460021204666
:104AB000FFF7B2FE054615B12846BDE8F08100BFFC
:104AC00021692068FFF7FDFB054605B116E0666920
:104AD00037780FB9042511E0F07A00F0080030B9FA
:104AE0000B223046A169FFF7A6FB00B906E00021C2
:104AF0002046FFF7F5FE0546002DE1D000BF284611
:104B0000DBE72DE9F04704468946042528E02169C2
:104B10002068FFF7D6FB054605B124E0D4F81480E1
:104B200098F800600EB904251DE098F80B0000F01D
:104B30003F07E52E0DD02E2E0BD00F2F09D027F0DA
:104B40002000082801D1012000E00020484500D1C4
:104B500009E000212046FFF7C3FE054605B102E04B
:104B600020690028D3D100BF0DB100202061284664
:104B7000BDE8F08770B5044601212046FFF74DFFE0
:104B8000054695B921692068FFF79BFB054665B985
:104B9000202200216069FFF744FB0B22D4E90501C4
:104BA000FFF732FB012021680871284670BD70B5FF
:104BB0000446E1882046FFF72FFE054685B92169A6
:104BC0002068FFF77EFB054655B920220021606969
:104BD000FFF727FBE5206169087001202168087153
:104BE000284670BDF0B5044601F109022669002E81
:104BF0002CD06069002310E01E465B1C855D202DD3
:104C000000D10AE0052D00D1E525092B02D12E2681
:104C100002F8016B02F8015B00BF0B2BECD3C67AE4
:104C20000E72C67F3706867F47EA0647467F47EA09
:104C30000626077F3E430E60077E467E47EA06262D
:104C40008E80877DC67D47EA0626CE8000261670B8
:104C5000F0BD2DE9F35F0198D0F8009001E009F173
:104C6000010999F800002F28F9D099F800005C2874
:104C7000F5D0009886690B2220213046FFF7D1FA43
:104C800000252F46AB464FF0080A00BF58460BF1EF
:104C9000010B19F80040202C03DD2F2C01D05C2CD7
:104CA00000D157E02E2C01D057450DD3BAF1080F93
:104CB00001D12E2C02D00620BDE8FC9F08274FF022
:104CC0000B0AA806050EE1E7802C01DB45F0030581
:104CD000812C01DB9F2C03DDE02C20DBFC2C1EDC77
:104CE00058460BF1010B19F80080B8F1400F02DBB8
:104CF000B8F17E0F05DDB8F1800F06DBB8F1FC0FCF
:104D000003DCAAF10100B84201D80620D4E73846F6
:104D10007F1C345438467F1C06F8008019E0214679
:104D2000FEA0FFF79BFA08B10620C5E7412C04DB83
:104D30005A2C02DC45F0020508E0612C06DB7A2CD7
:104D400004DC45F00105A4F12000C4B238467F1C04
:104D500034549BE700BF09EB0B0101980160202C44
:104D600001DC042000E0002004460FB90620A3E780
:104D70003078E52801D105203070BAF1080F01D153
:104D8000A806050E05F00300012801D144F0100427
:104D900005F00C00042801D144F00804F47200204E
:104DA0008AE72DE9F3410446019800782F2803D0C3
:104DB000019800785C2802D10198401C01900020E5
:104DC000A06001980078202807D200212046FFF734
:104DD00023FD05460020606128E000BF01A92046B0
:104DE000FFF737FF054605B11FE02046FFF75BFEE2
:104DF0000546A069C67A3DB1042D04D100BF06F076
:104E0000040000B9052510E006F0040000B10CE034
:104E10006769F87A00F0100008B9052505E0394601
:104E20002068FFF728FEA060D8E700BF2846BDE84D
:104E3000FC8170B502464FF0FF301568E5B111688E
:104E400000E0491C0D78212D02D30D783A2DF8D1C0
:104E50000D783A2D0FD1146814F8015BA5F13003D9
:104E60000A2B07D28C4205D1022B03D218464D1CC7
:104E70002946156070BD002000BFFBE770B50446F1
:104E80000D4600202071401EE06229462046FFF7B3
:104E900018FA08B1032070BD94F82E1294F82F026E
:104EA00041EA00204AF65521884201D00220F2E76B
:104EB00094F86900010694F8680041EA004194F80A
:104EC000670041EA002094F86610084320F07F4014
:104ED0009649884201D10020DDE794F8850001065B
:104EE00094F8840041EA004194F8830041EA0020EC
:104EF00094F88210084320F07F408C49884201D109
:104F00000020C8E70120C6E72DE9F74F8AB000214D
:104F10000A9801600B98FFF78CFF09900998002808
:104F200003DA0B200DB0BDE8F08F8149099851F8E4
:104F300020400CB90C20F5E70A980460207878B17D
:104F40006078FFF7E9F8814609F0010040B90C9854
:104F500020B109F0040008B10A20E3E70020E1E7EE
:104F600000202070099860706078FFF7E1F88146B2
:104F700009F0010008B10320D4E70C9820B109F032
:104F8000040008B10A20CDE7607804F10A0202218A
:104F9000FFF717F938B96089B0F5007F03DB608946
:104FA000B0F5805F01DD0120BCE7002739462046CF
:104FB000FFF764FF0546012D01D09DBB32E00026BE
:104FC0001AE004F5F77000EB061898F8040070B1C9
:104FD00098F80B00010698F80A0041EA004198F899
:104FE000090041EA002098F80810084300E000207A
:104FF00002A941F82600761C042EE2D3002606B151
:10500000761E00BF02A850F8267027B13946204608
:10501000FFF734FF00E0022005461DB1701C064674
:105020000428EFD3032D01D101207BE70DB10D2022
:1050300078E73B20015D94F83C0041EA002061895B
:10504000884201D00D206DE74620015D94F84700AD
:1050500041EA002ABAF1000F0ED194F85700010678
:1050600094F8560041EA004194F8550041EA0020C6
:1050700094F8541040EA010AC4F818A04020005DDA
:10508000E070E078012804D0E078022801D00D20FB
:1050900048E7E0780AFB00FA3D20005DA070A078A8
:1050A00018B1A078411E084008B10D203AE7412010
:1050B000015D94F8420041EA002020816089C11717
:1050C00000EBD1614911228992FBF1F301FB13211D
:1050D00009B10D2026E74320015D94F8440041EA20
:1050E00000200890089870B994F85300010694F8CD
:1050F000520041EA004194F8510041EA002094F83E
:105100005010084308903E20015D94F83F0041EAAA
:1051100000200190019868B90D2003E7222A2B2C6A
:105120003A3B3C3D3E3F5B5D7C7F00004641540086
:10513000600000206089C11700EBD161491122890C
:1051400092FBF1F20199514411440791DDE90710F6
:10515000884201D20D20E5E6DDE90710401AA1786A
:10516000B0FBF1FBBBF1000F01D10D20DAE6012508
:1051700040F6F670834500D302254FF6F67083455E
:1051800000D303250BF102006061E7610198384408
:10519000206207983844A062032D16D1208908B1F7
:1051A0000D20BFE694F85F00010694F85E0041EA26
:1051B000004194F85D0041EA002094F85C10084337
:1051C000606260698000069014E0208908B90D20B3
:1051D000A8E6206A50446062022D02D16069400056
:1051E00007E0207D00F00100616901EB410100EB67
:1051F000510006906089401E069908446189B0FB01
:10520000F1F0A169884201D90D208BE64FF0FF3003
:105210002061E06080206071032D5AD194F8601005
:1052200094F8610041EA0020012852D1791C2046FF
:10523000FFF747F8E8BB0020607194F82E1294F84D
:105240002F0241EA00204AF65521884241D13320FD
:10525000005D01063220005D41EA00413120005D21
:1052600041EA002094F830100843FC49884230D1CC
:1052700094F81702010694F8160241EA004194F8E6
:10528000150241EA002094F814120843F4498842B8
:105290001FD194F81B02010694F81A0241EA00415A
:1052A00094F8190241EA002094F81812084320618A
:1052B00000E00EE094F81F02010694F81E0241EA95
:1052C000004194F81D0241EA002094F81C120843A2
:1052D000E0602570E3480088401C80B2E149088006
:1052E000E08000201EE670B505462C464CB12068D3
:1052F00038B12068007820B12068C088A188884231
:1053000001D0092070BD21684878FEF705FF00F044
:10531000010008B10320F5E70020F3E7F7B582B0FC
:1053200016460398019001A8FFF783FD0546002D5E
:1053300002DA0B2005B0F0BDCB4850F825400CB187
:1053400000202070029810B1002002990870C64910
:10535000029841F82500029808B1012E01D00020E2
:10536000E8E7002203A902A8FFF7CEFD074638466A
:10537000E0E72DE9F7438AB0054616461DB9092036
:105380000DB0BDE8F0830020286006F01F0626F06F
:1053900001020BA903A8FFF7B7FD0746002F7DD137
:1053A000CDF824D003A80B99FFF7FBFC0746089C17
:1053B0000FB904B9062706F01C00002851D04FB1E0
:1053C000042F03D103A8FFF7D5FB074646F00806D4
:1053D000089C09E0E07A00F0110008B1072703E01B
:1053E00006F0040000B10827002F49D106F008009C
:1053F000002845D0FEF703FF804684F80E804FEA70
:105400001821E1734FEA184121744FEA1861617461
:105410000020E072207700216177A177E1772146B3
:105420000398FFF728FB814600212046FFF733FB56
:10543000012003990871B9F1000F21D00398D0F829
:105440002C8049460398FFF72AF90746C7B9A9F106
:1054500001000399C86041460398FEF732FF0746F2
:105460000EE06FB9E07A00F0100008B1042707E001
:1054700006F0020020B1E07A00F0010000B1072739
:1054800047B906F0080008B146F020060398C06A44
:10549000E8612C6217B9AE71002000E019E0E871F4
:1054A00021460398FFF7E7FA2861E07F0106A07F15
:1054B00041EA0041607F41EA0020217F0843E86023
:1054C0000020A860A8616862039828602868C088E6
:1054D000A880384654E72DE9FF4F85B004461546AD
:1054E0009A46DDF818B00020CAF800002046FFF701
:1054F000FAFE0490049818B1049809B0BDE8F08F42
:10550000E07908B1E079F8E7A07900F0010008B986
:105510000720F2E7D4E90210401A0290029885426F
:1055200000D9029DCBE021684989A068B0FBF1F267
:1055300001FB120000287DD121684989A068B0FBD9
:10554000F1F021688978491E084000F0FF09B9F19F
:10555000000F1FD1A06810B9206903900CE0606AA9
:1055600028B12046A168FFF73BF9039004E0616988
:105570002068FEF731FF03900398022802D2022030
:10558000E071BAE70398401C10B90120E071B4E75C
:105590000398606161692068FEF711FF064616B93D
:1055A0000220E071A9E74E4420684089B5FBF0F87D
:1055B000B8F1000F2DD009EB0800216889788842E6
:1055C00003D920688078A0EB090821684878434611
:1055D00032465946FEF7BDFD10B10120E0718CE75F
:1055E000A07900F0400078B1A069801B40450BD243
:1055F000A169891B23685B8901FB03B021684A8983
:1056000004F12801FEF700FE2068408900FB08F73E
:105610004BE0A069B04229D0A07900F0400088B1E9
:1056200021684878012304F12801A269FEF7ADFD45
:1056300020B100E01BE00120E0715EE7A07920F0DE
:105640004000A071216848780123324604F1280106
:10565000FEF77FFD50B10120E0714EE752526141EB
:10566000727241616800002060000020A66121681C
:105670004989A068B0FBF1F201FB12002168498959
:105680000F1AAF4200D92F4621684989A068B0FBA4
:10569000F1F201FB120104F1280008443A460146E8
:1056A00001905846FEF7B0FD00BFBB44A0683844E7
:1056B000A060DAF800003844CAF80000ED1B002DA5
:1056C0007FF431AF002018E72DE9FF4F83B0044687
:1056D00015469B46049801900020CBF80000204618
:1056E000FFF701FE0290029818B1029807B0BDE8DA
:1056F000F08FE07908B1E079F8E7A07900F00200D6
:1057000008B90720F2E7A0682844A168884200D2BF
:105710000025D7E021684989A068B0FBF1F201FBC0
:10572000120000287DD121684989A068B0FBF1F002
:1057300021688978491E084000F0FF0ABAF1000F7D
:1057400026D1A06838B9276997B900212068FEF7EB
:10575000DCFF07460CE0606A28B12046A168FFF72D
:105760003FF8074604E061692068FEF7CEFF074670
:1057700007B9AAE0012F02D10220E071B6E7781C38
:1057800010B90120E071B1E76761206900B92761B4
:10579000A07900F0400078B121684878012304F135
:1057A0002801A269FEF7F1FC10B10120E0719DE72C
:1057B000A07920F04000A07161692068FEF7FFFD2C
:1057C000064616B90220E07190E7564420684089E9
:1057D000B5FBF0F9B9F1000F31D00AEB09002168EF
:1057E0008978884203D920688078A0EB0A0921686B
:1057F00048784B4632460199FEF7C7FC10B10120AC
:10580000E07173E7A069801B484513D2A069831B30
:105810002068B0F80AC0019803FB0C012068428997
:1058200000E020E004F12800FEF7EEFCA07920F073
:105830004000A0712068408900FB09F835E0A069AC
:10584000B0420FD0D4E9020188420BD221684878D7
:105850000123324604F12801FEF77BFC10B1012040
:10586000E07143E7A66121684989A068B0FBF1F2C5
:1058700001FB120021684989A1EB0008A84500D965
:10588000A84621684989A068B0FBF1F201FB12012A
:1058900004F128000844424600900199FEF7B4FC48
:1058A000A07940F04000A07100BF019840440190F1
:1058B000A0684044A060DBF800004044CBF8000042
:1058C000A5EB0805002D7FF425AF00BFD4E9020148
:1058D000884201D9A068E060A07940F02000A07162
:1058E000002003E72DE9F04104462046FFF7FBFCCA
:1058F0000746002F4CD1A07900F02000002847D0A7
:10590000A07900F0400078B121684878012304F1C3
:105910002801A269FEF739FC10B10120BDE8F08131
:10592000A07920F04000A071E1692068FEF7C9FC71
:105930000746002F2CD1256AE87A40F02000E87253
:10594000207B2877A089010A6977E068010CA97794
:10595000E068010EE97728462169FFF79CF8FEF719
:105960004EFC0646AE75310AE975310C2976310ECA
:1059700069760020A8740021E974A07920F0200045
:10598000A0710120216808712068FEF7B4FC074669
:105990003846C3E770B505462846FFF7A3FF04461F
:1059A00034B92846FFF79FFC04460CB90020286054
:1059B000204670BD2DE9F04F87B004460D462046C5
:1059C000FFF791FC0690069818B1069807B0BDE85D
:1059D000F08FE07908B1E079F8E7606A00287DD0BF
:1059E000681C002843D1D4F824A05AF8040B019075
:1059F00002200090276967B300BF02970020039040
:105A00000098801C009000BF04970398401C0390EE
:105A100039462068FEF7E0FC0746012F02D8022035
:105A2000E071D3E7781C10B90120E071CEE704984B
:105A3000401C8742E8D0DDE90001884205D8039880
:105A40004AF8040B02984AF8040B20684069B842EF
:105A5000D3D80098616A0860DDE90001884203D864
:105A60000020CAF800000EE1112006900BE1E0686A
:105A7000A84200D2E568A560002DF4D0691E20463A
:105A8000FEF7AEFE606161692068FEF798FC814612
:105A9000B9F1000F02D10220E07197E7681E21687A
:105AA0004989B0FBF1F021688978491E084081449A
:105AB00021684989A068B0FBF1F201FB12000028BF
:105AC000D1D0A0694845CED0A07900F0400088B17F
:105AD00021684878012304F1280100E019E0A26957
