:020000040800F2
:10000000B0330020D50400087D0200087F020008FC
:1000100083020008870200088B020008000000002D
:100020000000000000000000000000008F02000837
:1000300091020008000000009302000895020008E9
:10004000EF040008EF040008EF040008EF040008C4
:10005000EF040008EF040008EF040008EF040008B4
:10006000EF040008EF040008EF040008EF040008A4
:10007000EF040008EF040008EF040008EF04000894
:10008000EF040008EF040008EF040008317A0008CC
:10009000477A0008EF040008EF040008EF040008A6
:1000A000EF040008EF040008EF040008EF04000864
:1000B000EF040008A7020008AF020008EF040008E0
:1000C000EF040008EF040008EF040008EF04000844
:1000D000EF040008EF040008B7020008EF0400086E
:1000E000EF040008EF040008EF040008EF04000824
:1000F000EF040008EF040008EF040008EF04000814
:10010000EF040008EF040008EF040008EF04000803
:10011000EF040008EF040008EF040008EF040008F3
:10012000EF040008EF040008EF040008EF040008E3
:10013000EF040008EF040008EF040008EF040008D3
:10014000EF040008EF040008EF040008EF040008C3
:10015000EF040008EF040008EF040008EF040008B3
:10016000EF040008EF040008EF040008EF040008A3
:10017000EF040008EF040008EF040008EF04000893
:10018000EF040008EF04000800F002F800F05CF84B
:100190000AA090E8000C82448344AAF10107DA45E2
:1001A00001D100F051F8AFF2090EBAE80F0013F0D8
:1001B000010F18BFFB1A43F001031847D8A900002C
:1001C000F8A900000A444FF0000C10F8013B13F0AE
:1001D000070408BF10F8014B1D1108BF10F8015BA0
:1001E000641E05D010F8016B641E01F8016BF9D193
:1001F00013F0080F1EBF10F8014BAD1C0C1B09D1EA
:100200006D1E58BF01F801CBFAD505E014F8016B5B
:1002100001F8016B6D1EF9D59142D6D370470000ED
:100220000023002400250026103A28BF78C1FBD8FF
:10023000520728BF30C148BF0B6070471FB50AF096
:1002400089FC1FBD10B510BD0AF0E9F81146FFF793
:10025000F5FF00F009F80AF007F903B4FFF7F2FF21
:1002600003BC0AF00BF9000002F072FE02490870AC
:1002700001E002F04EFFFCE700000020704700BFE5
:10028000FEE700BFFEE700BFFEE700BFFEE77047E6
:100290007047704710B50A480068401C084908605C
:1002A00006F03DFC10BD10B507F00FF910BD10B5FC
:1002B00007F012FA10BD10B506F037FD10BD0000B2
:1002C000C00400200CB50020019000907648006822
:1002D00040F480307449086000BF7348006800F43F
:1002E000003000900198401C0190009818B90198C6
:1002F000B0F5A04FF1D16C48006800F4003010B1A7
:100300000120009001E0002000900098012846D1D3
:1003100065484030006840F08050634940310860D3
:100320006248006840F44040604908605E48083018
:1003300000685D49083108600846006840F40040E4
:1003400008600846006840F4A05008605848091F3B
:100350000860081F006840F08070091F086000BF37
:100360005148006800F000700028F9D040F2057094
:10037000504908604C480830006820F003004A49A2
:10038000083108600846006840F00200086000BFBD
:1003900045480830006800F00C000828F8D10CBD72
:1003A00010B54548006840F47000434908603E4875
:1003B000006840F001003C49086000203A490831DB
:1003C0000860394800683D490840374908603C48A2
:1003D000091D0860081F006820F48020091F0860BC
:1003E000002031490C310860FFF76CFF4FF00060CE
:1003F00031498039086010BD70B500200022022309
:1004000000240221284D08352D6805F00C0020B18C
:10041000042806D0082834D107E02A4D2A4E35603A
:1004200033E02A4D284E35602FE01F4D2D1D2D68DD
:10043000C5F380541C4D2D1D2D6805F03F0154B1AE
:10044000224DB5FBF1F5184E361D3668C6F38816F9
:1004500005FB06F209E01B4DB5FBF1F5124E361D0A
:100460003668C6F3881605FB06F20F4D2D1D2D6864
:10047000C5F301456D1C6B00B2FBF3F5124E356000
:1004800003E0104D104E356000BF00BF064D08352B
:100490002D68C5F303150E4E705D0B4D2D68C540DC
:1004A000094E356070BD0000003802400070004009
:1004B00008544007003C024088ED00E0FFFFF6FED4
:1004C000103000240024F4000400002000127A0000
:1004D000080000200948804709480047FEE7FEE77A
:1004E000FEE7FEE7FEE7FEE7FEE7FEE7FEE7FEE7E4
:1004F00004480549054A064B70470000A10300085F
:1005000089010008B02D0020B0330020B02F00205A
:10051000B02F002032490143324A1160704770B554
:10052000002100230F22C4781CB32E4C246804F44D
:10053000E064C4F5E064C4F30721C1F10404E3B24C
:100540000A4144789C40E1B28478144021430C076E
:10055000210E254C05786155047804F01F0501240F
:10056000AC4005786D11AD0005F1E025C5F80041FE
:1005700009E0047804F01F050124AC401B4D067807
:10058000761145F8264070BD194A0A400243154BC2
:100590001B1F1A60704739B1124A121D12680243BC
:1005A000104B1B1D1A6006E00E4A121D1268824392
:1005B0000C4B1B1D1A607047042808D14FF0E02136
:1005C000096941F004014FF0E022116107E04FF0AA
:1005D000E021096921F004014FF0E0221161704728
:1005E0000000FA050CED00E000E400E080E100E02E
:1005F00080FFFF1F10B50446FE48844209D1012147
:10060000480601F0B1F800214FF0007001F0ACF89D
:1006100008E00121880601F0A7F800214FF0806072
:1006200001F0A2F810BD30B5024600200023146886
:1006300024F002041460146844F00104146000E023
:100640005B1C546804F001041CB94FF6FF74A3420C
:10065000F6D1546804F001040CB900206CE08C79E8
:10066000012C04D1146844F08004146003E0146881
:1006700024F080041460CC79012C04D1146844F077
:100680004004146003E0146824F0400414600C7A01
:10069000012C04D1146844F02004146003E01468B1
:1006A00024F0200414604C7A012C04D1146844F026
:1006B0001004146003E0146824F0100414608C7AB1
:1006C000012C04D1146844F00804146003E0146899
:1006D00024F008041460CC7A012C04D1146844F08E
:1006E0000404146003E0146824F0040414608C789B
:1006F000A407CD7844EA05640D7944EA05444D79B0
:1007000044EA05540D886D1E2C43D461146824F00E
:1007100001041460002300E05B1C546804F0010431
:100720001CB14FF6FF74A342F6D1546804F00104E3
:100730000CB1002000E0012030BD10B50021837A0B
:10074000012202FA03F1AC4A126842F00102AA4BFC
:100750001A60A94A1C3212688A43A74B1C331A60DC
:10076000027BCAB9A44A0C3212688A43A24B0C33EA
:100770001A604288C38842EA03439F4A4032847A1F
:1007800042F834300288838842EA03439A4A40326E
:10079000847A02EBC4025360027B012A19D1964A83
:1007A0000C3212680A43944B0C331A604288038857
:1007B00042EA0343904A4032847A42F83430C28895
:1007C000838842EA03438C4A4032847A02EBC402B3
:1007D0005360C27A3AB9884A121D12688A43864B1E
:1007E0001B1D1A6006E0844A121D12680A43824BE0
:1007F0001B1D1A60028932B97F4A143212688A437B
:100800007D4B14331A600289012A06D17A4A1432C8
:1008100012680A43784B14331A60427B012A06D1CE
:10082000754A1C3212680A43734B1C331A60724AB1
:10083000126822F00102704B1A6010BD0021817114
:10084000C171017241728172C1728170C1700321E4
:1008500001710221417101210180704766490968D7
:1008600041F00101644A11601146096843F60E72B5
:100870009143614A11601146096841EA0021116003
:100880001146096821F001011160704721B1026829
:1008900042F48032026003E0026822F48032026097
:1008A0007047E1B1026842F0800202604FF4C27208
:1008B000125842F480734FF4C27213504FF4CA724C
:1008C000125842F480734FF4CA7213504FF4D2722C
:1008D000125842F480734FF4D27213501BE0026836
:1008E00022F0800202604FF4C272125822F4807328
:1008F0004FF4C27213504FF4CA72125822F480732C
:100900004FF4CA7213504FF4D272125822F480730B
:100910004FF4D2721350704710B50246002093680E
:1009200003F08063B3F1806F00D110E0936803F0AF
:100930000063B3F1006F01D1012008E0936803F078
:100940008053B3F1805F01D1022000E0042004282D
:1009500079D002F5C07303EB00131B6803F00104A8
:1009600002F5C07303EB00131C600B7A7BB94B7A62
:100970000C8843EA445302F5C07404EB0014246865
:10098000234302F5C07404EB0014236010E00B7ADB
:100990004C6843EAC4034C7A234302F5C07404EB69
:1009A00000142468234302F5C07404EB0014236090
:1009B0008B7A03F00F038B7202F5C07303EB001305
:1009C0005B6823F00F0402F5C07303EB00135C6057
:1009D00002F5C07303EB00135B688C7A234302F5C6
:1009E000C07404EB001463608B7B1C064B7B44EAF1
:1009F000034403E000640040006600400B7B44EACF
:100A00000323CC7A234302F5C07404EB0014A360E3
:100A10008B7C1C064B7C44EA03440B7C44EA032396
:100A2000CC7B234302F5C07404EB0014E36002F5B1
:100A3000C07303EB00131B6843F0010402F5C0739D
:100A400003EB00131C6010BD10B50246002321B15A
:100A5000012907D002290FD109E09068F94C00EA7A
:100A600004030BE09068F84C00EA040306E0906889
:100A7000F64C00EA040301E0002300BF00BFF44C81
:100A8000181BA34216D007DC83B16FF080601844B6
:100A900070B1022818D111E0B0F5007F10D0ED4CF4
:100AA000204448B1B0F5003F0ED10BE002230DE029
:100AB00000230BE0002309E0002307E0012305E009
:100AC000012303E0012301E0002300BF00BFD8B2EF
:100AD00010BD21B1012907D002290FD109E0826898
:100AE00042F0800282600AE0826842F40042826042
:100AF00005E0826842F40002826000E000BF00BFAF
:100B0000704710B500F5D87303EB01131B6803F0B1
:100B100004031372137A53B900F5D87303EB01136E
:100B20001B6840F2FF7404EA5353136009E000F5B8
:100B3000D87303EB01131B686FF0604404EAD3031E
:100B4000536000F5D87303EB01131B6803F0020335
:100B5000537200F5D87303EB01135B6803F00F03C6
:100B6000937200F5D87303EB01135B681B0AD3740F
:100B700000F5D87303EB01139B68D37200F5D873AB
:100B800003EB01139B681C0A147300F5D87303EB85
:100B900001139B681C0C547300F5D87303EB01130D
:100BA0009B681B0E937300F5D87303EB0113DB688E
:100BB000D37300F5D87303EB0113DB681C0A1474BC
:100BC00000F5D87303EB0113DB681C0C547400F5BB
:100BD000D87303EB0113DB681B0E937421B9C36850
:100BE00043F02003C36003E0036943F02003036183
:100BF00010BD21B9C26842F02002C26003E0026960
:100C000042F02002026170470246002019B9D36801
:100C100003F0030006E0012903D1136903F0030088
:100C200000E00020704710B502460B4600204FF64A
:100C3000FF71BBB9146824F0020444F0010414608D
:100C400000E0491E546804F00304012C01D000297F
:100C5000F7D1546804F00304012C01D0002032E0E5
:100C6000012030E0012B13D1146824F00304146038
:100C700000E0491E546804F003040CB10029F8D1C7
:100C8000546804F003040CB100201CE001201AE0B9
:100C9000022B17D1146824F0010444F002041460FC
:100CA00000E0491E546804F00304022C01D000291E
:100CB000F7D1546804F00304022C01D0002002E0B4
:100CC000012000E0002010BD014600200A6822F04B
:100CD000010242F002020A604A6802F00302022A9C
:100CE00000D10120704701464FF6FF7200200B68CB
:100CF00023F002030B6000E0521E4B6803F0020376
:100D0000022B01D1002AF7D14B6803F00203022B1A
:100D100000D001207047014600208A6902F070006F
:100D20007047014600208A69100E70470146002076
:100D30008A69C2F3074070471AB143690B434361A4
:100D400002E043698B434361704710B502460020BF
:100D500001F4700343B19369C1F3130423400BB151
:100D600001202DE000202BE001F0807343B1536897
:100D7000C1F3130423400BB1012021E000201FE048
:100D800001F0006343B19368C1F3130423400BB136
:100D9000012015E0002013E001F0007343B1D36897
:100DA000C1F3130423400BB1012009E0002007E048
:100DB0001369C1F3130423400BB1012000E00020AC
:100DC00010BD0022244B994202D10023836111E01F
:100DD000C1F3130201F000730BB1C2600AE001F02D
:100DE00080630BB1026105E001F000630BB182602A
:100DF00000E0426070470246002002EA01030BB1A6
:100E0000012000E00020704770B504460D46002622
:100E100060692840002872D0B5F5807F69D01DDC5C
:100E2000082D42D006DC012D2DD0022D31D0042D0D
:100E30007FD134E0102D3ED0202D42D0402D78D1EE
:100E400045E0000003000004000300080000031058
:100E5000000100080001FFF77000F030B5F5004F09
:100E600061D009DCB5F5007F4AD0B5F5806F4DD073
:100E7000B5F5006F5DD150E0B5F5803F2DD0B5F5EB
:100E8000003F56D12FE0A0685549FFF7B4FF064652
:100E900051E0E0680321FFF7AEFF06464BE0E06853
:100EA0000821FFF7A8FF064645E0E0681021FFF79C
:100EB000A2FF06463FE020690321FFF79CFF06469C
:100EC00039E020690821FFF796FF064633E02069E4
:100ED0001021FFF790FF06462DE060680821FFF71C
:100EE0008AFF064627E060681021FFF784FF064668
:100EF00021E0A0690121FFF77EFF06461BE01BE011
:100F0000A0690221FFF777FF064614E0A0690421DB
:100F1000FFF771FF06460EE00BE0A0697021FFF7B6
:100F20006AFF064607E060680421FFF764FF064693
:100F300001E0002600BF00E00026304670BDB1F59C
:100F4000007F3AD00FDC202928D006DC01291CD0F4
:100F500004291DD0082940D11DE0402921D0B1F538
:100F6000807F3AD126E0B1F5004F31D006DCB1F5F3
:100F7000806F25D0B1F5006F2FD124E0B1F5803F0F
:100F800012D0B1F5003F28D111E0154A826025E06A
:100F90000822C26022E01022C2601FE00822026123
:100FA0001CE01022026119E00822426016E01022C3
:100FB000426013E00422426010E0042242600DE02F
:100FC000042242600AE0002282610422426005E0BD
:100FD000002282610422426000E000BF00BF70472F
:100FE0000101010010B504469848844208D101214E
:100FF000084600F086FB0021012000F082FB76E02D
:101000009348844208D10121022000F07AFB00219C
:10101000022000F076FB6AE08E48844208D101216C
:10102000042000F06EFB0021042000F06AFB5EE06B
:101030008948844208D10121082000F062FB002188
:10104000082000F05EFB52E08448844208D1012170
:10105000102000F056FB0021102000F052FB46E06B
:101060007F48844208D10121202000F04AFB002162
:10107000202000F046FB3AE07A48844208D1012162
:10108000402000F03EFB0021402000F03AFB2EE023
:101090007548844208D10121802000F032FB0021F4
:1010A000802000F02EFB22E07048844208D101210C
:1010B000801500F026FB0021A01500F022FB16E0B1
:1010C0006B48844208D10121401500F01AFB002131
:1010D000601500F016FB0AE06648844207D1012142
:1010E000001500F00EFB0021201500F00AFB10BDDA
:1010F000F0B50A4600210023002400BF3DE0012591
:1011000005FA01F3156805EA03049C4234D1056829
:101110004F000326BE40B543056015794E00B5402B
:101120000668354305601579012D02D01579022D29
:1011300016D185684F000326BE40B54385605579BA
:101140004E00B540866835438560456801268E406F
:10115000B5434560456896798E40B6B235434560E3
:10116000C5684F000326BE40B543C560D5794E0023
:10117000B540C6683543C560491C1029BFD3F0BDD2
:101180004FF6FF7101600021017141718171C171E0
:10119000704708B54FF480320092009A0A430092DB
:1011A000009AC261C161009AC261C2690092C269BB
:1011B000009208BD0246002013690B400BB10120CC
:1011C00000E0002070470146086980B2704702467F
:1011D000002053690B400BB1012000E00020704754
:1011E0000146486980B27047018370474183704768
:1011F0000AB1018300E04183704741617047426951
:101200004A4042617047F0B5002300244D07ED0EBF
:1012100002FA05F3CE1000F1200555F826504E07CE
:10122000F70E0F26BE40B543CF1000F1200646F85A
:101230002750CE1000F1200555F8265045EA03044A
:10124000CE1000F1200545F82640F0BD0000024018
:101250000004024000080240000C0240001002405E
:101260000014024000180240001C0240002002400E
:101270000024024000280240F948006840F00100C4
:10128000F74908600020F64908310860F448006812
:10129000F4490840F2490860F348091D0860F34822
:1012A000EF4984310860F0481038091D0860EC48A7
:1012B000006820F48020EA4908600020E8490C31E9
:1012C0000860E7498C31086070470021E44A921CAD
:1012D000117011460870704710B5014600220023B6
:1012E00000204A11012A02D1DD4C236808E0022ABD
:1012F00003D1DB4C7034236802E0D94C743423688A
:1013000001F01F02012494401C400CB1012000E0B8
:10131000002010BD38B5002000900024002500BF3B
:101320003120FFF7D9FF05460098401C0090009837
:10133000B0F5A04F01D0002DF2D03120FFF7CCFF47
:1013400008B1012400E00024204638BD01460020F9
:10135000C34A106820F0F80040EAC10010607047EE
:10136000C349086070470021BD4A70321170117086
:10137000012802D004280AD104E00121B84A7032C1
:10138000117005E00521B64A7032117000E000BF0F
:1013900000BF7047B7490860704770B5049C41EAC8
:1013A00082150126C6EB530645EA0645054345EA84
:1013B0000465AB4E361D356070BDAD49086670479B
:1013C000820142EA0172A64B84331A607047A84931
:1013D0008866704710B5830143EA016343EA0273EC
:1013E0009F4C8834236010BDA14908677047A0490D
:1013F000C864704702460020994B0833186820F0F3
:10140000EC6042EA01031843954B083318607047BB
:1014100002460020924B0833186820F0784042EAD8
:10142000010318438E4B08331860704701460020B3
:101430008B4A0832106820F00300084310607047A0
:1014400087480830006800F00C0070470146002013
:10145000834A0832106820F0F0000843106070479B
:10146000014600207E4A0832106820F4E05008430C
:101470001060704701460020794A0832106820F455
:10148000604040EAC10010607047F0B500210022C2
:101490000024022500260223714F08373F6807F019
:1014A0000C0121B1042905D0082937D105E0724F7C
:1014B000076036E0714F076033E0694F3F1D3F68BA
:1014C000C7F38056664F3F1D3F6807F03F036EB17C
:1014D0006A4FB7FBF3F7DFF888C10CF1040CDCF8B6
:1014E00000C0CCF3881C07FB0CF40CE0624FB7FB88
:1014F000F3F7DFF86CC10CF1040CDCF800C0CCF39E
:10150000881C07FB0CF4564F3F1D3F68C7F301478B
:101510007F1C7D00B4FBF5F7076002E0564F0760C3
:1015200000BF00BF4E4F08373F6807F0F0010909C0
:10153000534F7A5C0768D7404760494F08373F6888
:1015400007F4E051890A4E4F7A5C4768D7408760BC
:10155000434F08373F6807F46041490B484F7A5CB6
:101560004768D740C760F0BD002100F44072B2F573
:10157000407F0AD13A4A0832116821F4F811414AF1
:1015800002401143364A08321160354A70321268FF
:10159000C0F30B031A43324B70331A60704735495E
:1015A000443908607047334940390860704736490C
:1015B0000860704701460020294A8C32106820F0EC
:1015C0001F004A1E1043264A8C32106070470146A5
:1015D0000020234A8C32106820F4F8504A1E40EA5A
:1015E00002201F4A8C3210607047014600201C4ABE
:1015F0008C32106820F44010084310607047014698
:101600000020174A8C32106820F440000843106014
:10161000704701460020124A8C32106820F4403096
:1016200008431060704719490860704739B10C4A87
:101630003032126802430A4B30331A6006E0084A1F
:10164000303212688243064B30331A607047F9B16A
:10165000034A343212680243014B34331A601CE0EF
:1016600000380240FFFFF6EA10300024003000206E
:1016700000004742800E47420024F40000127A0026
:1016800018000020FFFCFF0F5C014742E0114742B9
:101690008F4A126882438E4B1A60704739B18C4A68
:1016A000121D126802438A4B1B1D1A6006E0884A0D
:1016B000121D12688243864B1B1D1A60704739B198
:1016C000834A0C3212680243814B0C331A6006E0E5
:1016D0007F4A0C32126882437D4B0C331A6070478C
:1016E00039B17B4A103212680243794B10331A60C9
:1016F00006E0774A103212688243754B10331A6045
:10170000704739B1724A243A12680243704B243B45
:101710001A6006E06E4A243A126882436C4B243BFE
:101720001A60704739B16A4A203A12680243684B1E
:10173000203B1A6006E0664A203A12688243644BF6
:10174000203B1A60704739B1614A1C3A1268024363
:101750005F4B1C3B1A6006E05D4A1C3A12688243EC
:101760005B4B1C3B1A60704739B1594A143A1268F6
:101770000243574B143B1A6006E0554A143A12686C
:101780008243534B143B1A60704739B1504A103AA8
:10179000126802434E4B103B1A6006E04C4A103A66
:1017A000126882434A4B103B1A60704739B1484A6D
:1017B0001C3212680243464B1C331A6006E0444A4E
:1017C0001C3212688243424B1C331A60704739B195
:1017D0003F4A2032126802433D4B20331A6006E034
:1017E0003B4A203212688243394B20331A607047DB
:1017F00039B1374A243212680243354B24331A6018
:1018000006E0334A243212688243314B24331A6093
:10181000704739B12E4A2C32126802432C4B2C33BC
:101820001A6006E02A4A2C3212688243284B2C3375
:101830001A60704739B1264A303212680243244B8D
:1018400030331A6006E0224A303212688243204B5D
:1018500030331A607047012808D11D493C310968AE
:1018600041F008011A4A3C32116007E018493C3146
:10187000096821F00801164A3C321160704739B1FD
:10188000134A273A12780243114B273B1A7006E09D
:101890000F4A273A127882430D4B273B1A70704744
:1018A0000B484030006840F08070094940310860C2
:1018B000704701460020064A283A12680A400AB1D9
:1018C000012000E000207047014926390870704768
:1018D0003438024010B50446FB48844208D1012147
:1018E0008014FFF752FF0021A014FFF74EFF3CE0E9
:1018F000F648844208D101210014FFF735FF00218A
:101900002014FFF731FF30E0F148844208D1012173
:10191000C013FFF729FF0021E013FFF725FF24E0A4
:10192000EC48844208D101214014FFF72EFF00212A
:101930006014FFF72AFF18E0E748844209D101212B
:101940000805FFF722FF00214FF48010FFF71DFF6D
:101950000BE0E248844208D101214805FFF715FF5A
:1019600000214FF40010FFF710FF10BD10B500224A
:10197000028802F441520B884C8823438C8823430D
:10198000CC8823430C8923434C8923438C892343EC
:10199000CC8923431A430280838B4FF2FF74234088
:1019A00083830B8A038210BD2DE9F04F00250223AB
:1019B00000244FF00109002200260027944690469B
:1019C000B0F81CA04FF2400B0AEA0B0AA0F81CA0CA
:1019D0004FF0020AA0F820A0858BD1F808A0BAF138
:1019E000020F01D100BF82E0B1F804A0BAF1000FEC
:1019F00002D14FF0010901E04FF00209DFF8E0A247
:101A0000DAF800A00AF4000ABAF1000F09D0DFF8F2
:101A1000D0A2DAF800A02AF4000ADFF8C4B2CBF8AA
:101A200000A0DFF8BCA20AF17C0ADAF800A0CAF331
:101A3000881CDFF8ACA20AF17C0ADAF800A0CAF32D
:101A40000278DFF89CA2AAF1040ADAF800A00AF0F2
:101A50003F07DFF88CA2AAF1040ADAF800A00AF422
:101A6000800ABAF5800F08D1DFF878A2BAFBF7FA3E
:101A70000AFB0CFABAFBF8F607E0DFF86CA2BAFB37
:101A8000F7FA0AFB0CFABAFBF8F6B1F806A0BAF5B9
:101A9000007F0ED14FEA162A0AEB8A0A4FEA4A0A59
:101AA000D1F808B0BAFBFBFA0AF1050A1FFA8AF26C
:101AB0000FE04FEA491AB6FBFAFA0AEB8A0A4FEA34
:101AC0004A0AD1F808B0BAFBFBFA0AF1050A1FFA74
:101AD0008AF24FF00A0AB2FBFAF202F00104A2EB1A
:101AE000040ACAF34F034FF6FF7A0AEA0424022BD2
:101AF00001DBFF2B01DD02230024B1F806A04AEA36
:101B0000040A4AEA030AA0F820A0B1F804A0B1F838
:101B10000CB04AEA0B0AB1F802B04AEA0B0AB1F873
:101B200000B04AEA0B0A4AF4006A4AEA05058583CE
:101B3000BDE8F08F0021018041808180C18001815A
:101B400041818181C181072101827047002101808B
:101B500041808180C18002218160002181817047A4
:101B600021B1028842F04002028004E002884FF670
:101B7000BF731A400280704721B1828B42F48062A9
:101B8000828304E0828B4FF6FF331A4082837047D2
:101B900002884FF2FF731A40028002880A430280D3
:101BA0007047B1F5804F04D1028842F48042028030
:101BB00004E002884BF6FF731A40028070474FF62C
:101BC000FF62914204D0028842F48072028004E0F5
:101BD00002884FF6FF631A400280704721B1828865
:101BE00042F00402828004E082884FF6FB731A40C0
:101BF0008280704721B1828842F01002828004E026
:101C000082884FF6EF731A408280704730B5002209
:101C10000023848B4FF240052C40848302240484EB
:101C2000828B0C88B4F5007F01D00C8814B94FF476
:101C3000807308E00C88B4F5407F03D00C88B4F5BD
:101C4000807F00D100238C888D892C434D882C43C4
:101C50001C4344F400642243828330BD01468889DA
:101C600070478181704721B1028842F4005202809E
:101C700004E002884DF6FF731A4002807047018825
:101C800041F480510180704702460020012901D0B3
:101C9000108B00E0908A70470146088A70471AB19D
:101CA00083880B43838002E083888B438380704763
:101CB00030B5002400230C110125A540ABB2AAB118
:101CC00085881D43858014E00030014000380040C5
:101CD000003C0040003401400050014000540140ED
:101CE0000838024000127A000024F40085889D43E1
:101CF000858030BD0246002013890B400BB10120C6
:101D000000E000207047CA4302817047F0B50246E8
:101D1000002000240023002501F00F070126BE400B
:101D2000B4B20B1101269E40B3B2968806EA0305B1
:101D30001689264016B10DB1012000E00020F0BD4B
:101D400010B5002201F00F040123A3409AB2D3433F
:101D5000038110BD10B50446FE48844208D101211C
:101D60000846FFF712FD00210120FFF70EFD9DE060
:101D7000B4F1804F08D101210846FFF7F5FC00219E
:101D80000120FFF7F1FC91E0F348844208D10121E2
:101D90000220FFF7E9FC00210220FFF7E5FC85E0C7
:101DA000EE48844208D101210420FFF7DDFC002128
:101DB0000420FFF7D9FC79E0E948844208D10121E9
:101DC0000820FFF7D1FC00210820FFF7CDFC6DE0D3
:101DD000E448844208D101211020FFF7C5FC00210E
:101DE0001020FFF7C1FC61E0DF48844208D10121E7
:101DF0002020FFF7B9FC00212020FFF7B5FC55E0BB
:101E0000DA48844208D101210220FFF7BEFC0021FC
:101E10000220FFF7BAFC49E0D548844209D10121EC
:101E20000804FFF7B2FC00214FF48030FFF7ADFC4F
:101E30003CE0D048844209D101214804FFF7A5FCC9
:101E400000214FF40030FFF7A0FC2FE0CA48844285
:101E500009D101218804FFF798FC00214FF480206C
:101E6000FFF793FC22E0C548844208D101214020BD
:101E7000FFF77AFC00214020FFF776FC16E0C0480F
:101E8000844208D101218020FFF76EFC00218020D0
:101E9000FFF76AFC0AE0BB48844207D101218015A4
:101EA000FFF762FC0021A015FFF75EFC10BD0022C9
:101EB0000288A84B98420ED0AC4B98420BD0B0F1A0
:101EC000804F08D0A44B984205D0A44B984202D032
:101ED000A34B984204D14FF68F731A404B881A4394
:101EE000A04B984207D0A04B984204D04FF6FF4336
:101EF0001A400B891A4302804B68C3620B88038522
:101F0000944B984202D0994B984201D18B7A038628
:101F10000123838270474FF0FF314160002101802F
:101F200001814180817270470185828270470A4633
:101F3000002101884FF68F731940114301807047CB
:101F400041627047C16270470146486A7047014666
:101F5000088D704721B1028842F00202028004E03D
:101F600002884FF6FD731A400280704721B1028843
:101F700042F00402028004E002884FF6FB731A402C
:101F80000280704721B1028842F08002028004E0A2
:101F900002884FF67F731A400280704702884FF61E
:101FA000F7731A40028002880A4302807047028851
:101FB0004FF6FF431A40028002880A4302807047AE
:101FC00021B1028842F00102028004E002884FF64B
:101FD000FE731A400280704770B50024002200236F
:101FE000058C4FF6FE7635400584028C8388048B81
:101FF0004FF68F752C40B51E2C400D882C43751E56
:102000002A408D892A434D882A43524DA84202D046
:10201000564DA84213D14FF6F7752A40CD892A4371
:102020004FF6FB752A408D882A434FF6FF652B40FB
:102030004FF6FF552B400D8A2B434D8A2B4383804F
:1020400004838D684563028470BD70B5002400224E
:102050000023058C4FF6EF7635400584028C83888B
:10206000048B48F6FF752C404FF6FF452C400D8839
:102070004FF6FF7606EA05252C434FF6DF752A401A
:102080008D8906EA05152A434D8806EA05152A4377
:10209000304DA84202D0354DA8421DD14FF67F7574
:1020A0002A40CD894FF6FF7606EA05152A434FF6FA
:1020B000BF752A408D8806EA05152A434FF6FF357D
:1020C0002B404FF2FF752B400D8A06EA85052B4306
:1020D0004D8A06EA85052B43838004838D688563DA
:1020E000028470BD70B5002400220023058C4FF6D9
:1020F000FF6635400584028C8388848B4FF68F758C
:102100002C404FF6FC752C400D882C434FF6FF55A4
:102110002A408D894FF6FF7606EA05252A434D8829
:1021200006EA05252A430B4DA84202D00F4DA842CE
:1021300038D14FF2FF752A40CD894FF6FF7606EA77
:1021400005252A434FF6FF352A408D8806EA0525E6
:102150002A4319E00000014000040040000800404C
:10216000000C00400010004000140040000401403A
:102170000040014000440140004801400018004078
:10218000001C0040002000404EF6FF752B404DF62D
:10219000FF752B400D8A06EA05152B434D8A06EA8A
:1021A00005152B43838084838D68C563028470BDCD
:1021B00070B5002200230024058C4EF6FF763540D2
:1021C0000584038C8488828B48F6FF752A404FF67D
:1021D000FF452A400D884FF6FF7606EA05252A437B
:1021E0004DF6FF752B408D8906EA05352B434D884A
:1021F00006EA05352B43FE4DA84202D0FD4DA8420C
:1022000008D14BF6FF752C400D8A4FF6FF7606EA93
:1022100085152C43848082838D680564038470BD9A
:10222000002101804180818081608181C1810182A2
:102230004182704770B503460020002418461830CC
:1022400001258D40ACB21D8CA5431D8409B1082920
:102250000AD100EB610005684FF68F7635400560C6
:102260000568154305600FE00D1FC5F34E052844B2
:10227000056848F6FF763540056005684FF6FF763D
:1022800006EA02263543056070BD416370478163ED
:102290007047C1637047016470470A460021018B93
:1022A0004FF68F7319401143018370470A4600218E
:1022B000018B48F6FF7319404FF6FF7303EA0223C0
:1022C0001943018370470A460021818B4FF68F73B3
:1022D00019401143818370470A460021818B48F6DB
:1022E000FF7319404FF6FF7303EA022319438183FA
:1022F00070470A460021018B4FF6F77319401143CE
:10230000018370470A460021018B4FF2FF73194089
:102310004FF6FF7303EA02231943018370470A460D
:102320000021818B4FF6F773194011438183704769
:102330000A460021818B4FF2FF7319404FF6FF735D
:1023400003EA02231943818370470A460021018B67
:102350004FF6FB7319401143018370470A46002171
:10236000018B4FF6FF3319404FF6FF7303EA022348
:102370001943018370470A460021818B4FF6FB7396
:1023800019401143818370470A460021818B4FF623
:10239000FF3319404FF6FF7303EA02231943818389
:1023A00070470A460021018B4FF67F731940114395
:1023B000018370470A460021018BC1F30E014FF6DD
:1023C000FF7303EA02231943018370470A46002181
:1023D000818B4FF67F7319401143818370470A4602
:1023E0000021818BC1F30E014FF6FF7303EA022334
:1023F0001943818370470A460021018C4FF6FD7313
:1024000019401143018470470A460021018C4FF6A0
:10241000F77319401143018470470A460021018C6B
:102420004FF6DF7319404FF6FF7303EA02131943A7
:10243000018470470A460021018C4FF67F731940D2
:102440004FF6FF7303EA02131943018470470A46EB
:102450000021018C4FF6FF5319404FF6FF7303EA3A
:1024600002231943018470470A460021018C4FF270
:10247000FF7319404FF6FF7303EA022319430184E7
:1024800070470A460021018C4DF6FF7319404FF644
:10249000FF7303EA023319430184704730B5002308
:1024A00001248C40A3B2048C9C430484048C02FA63
:1024B00001F5ADB22C43048430BD30B500230424B3
:1024C0008C40A3B2048C9C430484048C02FA01F572
:1024D000ADB22C43048430BD828B4FF2FF331A40DF
:1024E0008283828B4FF6FF7303EA01231A438283B0
:1024F0007047F0B50C461546002100220026078CD7
:102500004EF6FF7C07EA0C070784818B028C4FF69E
:10251000FF7707EA043640F6FF4739404FF6FF776A
:1025200007EA052739434FF6FF7707EA03373943B0
:1025300045F6FF773A4046F480573A438183028458
:10254000F0BD828B4FF6F3731A408283828B0A436D
:1025500082837047F0B50C46154600210022002604
:10256000078C4FF6FF6C07EA0C070784818B028CFF
:102570004FF6FF7707EA04264FF60C7739404FF6FF
:10258000FF7707EA03172F4339434FF2FF573A40CB
:1025900046F480773A4381830284F0BD028B4FF288
:1025A000FF331A400283028B4FF6FF7303EA0123C5
:1025B0001A4302837047F0B50C46154600210022ED
:1025C0000026078C4FF6EF7C07EA0C070784018B87
:1025D000028C4FF6FF7707EA041640F6FF473940B2
:1025E0004FF6FF7707EA033739434FF6FF7703E0EB
:1025F000000001400004014007EA052739434FF677
:102600005F773A4046F010073A4301830284F0BDF9
:10261000028B4FF6F3731A400283028B0A43028344
:102620007047F0B50C46154600210022068C4FF687
:10263000FE773E400684018B028C4FF60C763140CB
:102640007E1C06EA03162E4331434FF6F5763240E0
:1026500044F00106324301830284F0BD70B50546A3
:102660000C46208850B92389A28861882846FFF744
:10267000D8FFE1882846FFF7CBFF25E02088042813
:102680000AD12389A28861882846FFF794FFE18850
:102690002846FFF783FF17E0208808280AD12389FE
:1026A000A28861882846FFF755FFE1882846FFF792
:1026B00048FF09E02389A28861882846FFF719FFAF
:1026C000E1882846FFF708FF70BD002101804180A6
:1026D000012181800021C180018170472DE9F041F5
:1026E00005460C4600260127608808B9022600E04E
:1026F0000026A088012801D1022700E001272088B8
:10270000A0B92389A28861882846FFF78AFFE1885B
:102710002846FFF77DFF23893A4631462846FFF7D2
:102720004AFFE1882846FFF739FF13E02389A28892
:1027300061882846FFF73FFFE1882846FFF72EFF14
:1027400023893A4631462846FFF76BFFE188284641
:10275000FFF75EFFBDE8F0810146486B7047014618
:10276000886B70470146C86B70470146086C70471C
:102770000A884B881A438B881A43CB881A430B89E3
:102780001A434B891A438B891A43A0F84420704797
:102790000021018041808180C1800181418181814E
:1027A000704731B1B0F8442042F40042A0F8442010
:1027B00005E0B0F84420C2F30E02A0F844207047B0
:1027C00021B1828842F00402828004E082884FF6C0
:1027D000FB731A408280704721B1828842F0010267
:1027E000828004E082884FF6FE731A408280704730
:1027F0001AB183890B43838102E083898B438381F0
:1028000070478182704702460020138A0B400BB14B
:10281000012000E000207047CA430282704730B5B3
:102820000246002000230024158A05EA0103958949
:1028300005EA010413B10CB1012000E0002030BD15
:10284000CA430282704741EA0203A0F84830704749
:102850001AB183890B43838102E083898B4383818F
:10286000704721B1828842F00802828004E08288A9
:102870004FF6F7731A408280704701894FF6F8725D
:102880001140018170470A46002101894FF68F737C
:10289000194011430181704730B504460D46294661
:1028A0002046FFF7F0FF208940F00700208130BD6F
:1028B0002DE9F04104460D4616461F46602D06D10F
:1028C0003B46012231462046FFF775FE05E03B46B8
:1028D000012231462046FFF7A4FE29462046FFF795
:1028E000D2FF208940F007002081BDE8F08130B59B
:1028F0000C4600210189C9B24FF6FF7505EA032590
:10290000154325432943018130BD2DE9F04105469A
:102910000E4617469846002443463A463146284616
:10292000FFF7E5FF2C894FF6F870044044F00704E8
:102930004FF68F70044044F070042C81BDE8F081A4
:10294000F0B504460D4616461F463B46324629461C
:102950002046FFF7CCFF208940F480402081F0BD65
:1029600082884FF68F731A40828082880A43828061
:10297000704702894FF6F8731A40028102890A43B0
:102980000281704702894FF67F731A4002810289E3
:102990000A4302817047F0B50C4615461E460021D9
:1029A000002200230189028B038C4FF6F87739400F
:1029B00021434FF6FC473A4040F201173A434FF6A5
:1029C000DD773B404FF6FF7707EA06172F433B437F
:1029D000018102830384F0BD21B1828842F080022C
:1029E000828004E082884FF67F731A4082807047AD
:1029F000A0F850107047000010B50446FA48844211
:102A000008D101211020FEF7C0FE00211020FEF7A2
:102A1000BCFE57E0F548844209D101214804FEF785
:102A2000A3FE00214FF40030FEF79EFE4AE0F0487E
:102A3000844209D101218804FEF796FE00214FF45B
:102A40008020FEF791FE3DE0EA48844209D1012151
:102A5000C804FEF789FE00214FF40020FEF784FE33
:102A600030E0E548844209D101210805FEF77CFEEB
:102A700000214FF48010FEF777FE23E0DF48844208
:102A800008D101212020FEF780FE00212020FEF742
:102A90007CFE17E0DA48844209D101218807FEF75D
:102AA00063FE00214FF08040FEF75EFE0AE0D5484D
:102AB000844207D101214005FEF756FE0021600542
:102AC000FEF752FE10BD2DE9FF4705460E460024D5
:102AD000A14600BFA046B08900B100BF2C8A24F4F3
:102AE0004054F08804432C82AC8941F20C6084434A
:102AF000B08831890843718908430443AC81AC8AAA
:102B000024F44074B0890443AC826846FEF7BDFCEF
:102B1000B548854202D0B948854202D1DDF80C9013
:102B200001E0DDF80890A88900F4004040B109EB0D
:102B3000C90000EB091031684900B0FBF1F707E06C
:102B400009EBC90000EB091031688900B0FBF1F70F
:102B50006420B7FBF0F004012009642101FB107828
:102B6000A88900F4004040B1322000EBC800B0FB5F
:102B7000F1F000F00700044308E0322000EB0810F9
:102B80006421B0FBF1F000F00F0004432C81BDE89C
:102B9000FF874FF41651016000218180C1800181BF
:102BA0000C21418100218181704710B5024600202F
:102BB000108A20F470600B884C8823438C88234350
:102BC000CC8823431843108210BD0021018041802E
:102BD0008180C180704721B1828942F40052828194
:102BE00004E082894DF6FF731A4082817047028BA0
:102BF00002F47F420283028B0A430283704721B1B1
:102C0000828942F40042828103E08289C2F30E028B
:102C10008281704721B1828A42F40062828204E09C
:102C2000828A4FF2FF731A4082827047C1F3080212
:102C30008280704701468888C0F308007047028A86
:102C40004FF6F0731A400282028A0A4302827047EA
:102C500021B1828942F00202828104E082894FF62A
:102C6000FD731A408281704782894FF2FF731A40C8
:102C7000828182890A4382817047028A4FF6DF731C
:102C80001A400282028A0A430282704721B1028AF4
:102C900042F48042028204E0028A4BF6FF731A403B
:102CA00002827047818941F001018181704721B121
:102CB000828A42F00802828204E0828A4FF6F77329
:102CC0001A4082827047028BD2B20283028B42EAA0
:102CD00001220283704721B1828A42F0200282825F
:102CE00004E0828A4FF6DF731A408282704721B176
:102CF000828A42F01002828204E0828A4FF6EF73E9
:102D00001A4082827047828A4FF6FB731A40828291
:102D1000828A0A438282704721B1828A42F002028B
:102D2000828204E0828A4FF6FD731A4082827047E5
:102D30001AB1838A0B43838202E0838A8B438382A6
:102D40007047F0B50346002400260025002040F619
:102D50006A17B94200D100BF1846C1F3421401F00E
:102D60001F06012707FA06F5012C01D10C3004E0FB
:102D7000022C01D1103000E014301AB107682F4343
:102D8000076002E00768AF430760F0BD024600201D
:102D9000B1F5007F00D100BF13880B400BB10120BB
:102DA00000E00020704701F40072B2F5007F00D10E
:102DB00000BFCA430280704770B50246002400235A
:102DC0000025002040F66A16B14200D100BFC1F3D1
:102DD000421501F01F03012606FA03F3012D13D15A
:102DE0009689334017E00000001001400044004085
:102DF00000480040004C00400050004000140140DA
:102E000000780040007C0040022D02D1168A334039
:102E100001E0968A33400C12012606FA04F4168863
:102E2000344013B10CB1012000E0002070BD10B59A
:102E30000022002340F66A14A14200D100BF0A120A
:102E400001249440A3B2DC43048010BD10B50446B5
:102E50006FF00400FDF7B0FBE11704EB5171C1F313
:102E6000C701394A11701046007800EB4001C1EBF0
:102E7000C0104FF6FF7101EAC0003449088010BD50
:102E80000146314A12784A434FF0E0235A6100224A
:102E90009A611A46126942F001021A6100BF4FF0AE
:102EA000E022106900F001021AB100F48032002A19
:102EB000F5D04FF0E022126922F001024FF0E0233A
:102EC0001A6100229A6170470146204A12884A43DB
:102ED0004FF0E0235A6100229A611A46126942F0CB
:102EE00001021A6100BF4FF0E022106900F00102F8
:102EF0001AB100F48032002AF5D04FF0E0221269B6
:102F000022F001024FF0E0231A6100229A6170471B
:102F100070B504464FF4077094FBF0F0C6B24FF45E
:102F2000077094FBF0F100FB114085B205E04FF40F
:102F30000770FFF7C9FF701EC6B2002EF7D115B19A
:102F40002846FFF7C1FF70BD280000202A0000209E
:102F500010B5A820FFF77AFF4FF48060FDF7DAFA8A
:102F600003F07CFD03F0CBFF03F012FD04F050F9F9
:102F70004FF4C87003F0C7FD0A4803F063FE04F085
:102F8000A9FC642003F0BFFD03F0ACFC0D2106A0FA
:102F900001F090FF01200849087003F036FE01207F
:102FA00010BD000020A1070053595320696E6974B9
:102FB000204F4B21000000002C0000207648C089E3
:102FC000401C7549C88108468088401C00B2888032
:102FD0000846C088401C00B2C88008460089401CD2
:102FE00000B2088108464089401C00B2488108466A
:102FF0008089401C00B2888108460078012804D1ED
:1030000008464078401C487002E001206249087080
:10301000704710B52DED028B012003F0BFFDDFEDF1
:103020005F0A80EE201AB0EE418A01F09FFCB0EEFC
:10303000480A03F05BF9BDEC028B10BD10B52DED15
:10304000028B002003F0AAFDDFED540A80EE201A67
:10305000B0EE418A03F033FD00EE100AB8EE400AEC
:10306000DFED4E0A80EE201A4D4880ED001A4D48E3
:10307000B0EE480A02F09CF903F021FD00EE100AC0
:10308000B8EE400ADFED450A80EE201A444880ED94
:10309000011ABDEC028B10BD10B52DED028B022084
:1030A00003F07CFDDFED3D0A80EE201AB0EE418A90
:1030B00003F005FD00EE100AB8EE400ADFED370A16
:1030C00080EE201A364880ED021A37480078012831
:1030D00003D1B0EE480A03F05CF903F0F0FC00EE17
:1030E000100AB8EE400ADFED2D0A80EE201A2C48B7
:1030F00080ED031ABDEC028B10BD704710B5142093
:1031000003F013FC10BD10B52849294803F046FC14
:1031100010BD10B52048007801283BD12548008813
:1031200000B225490880FFF774FF1B48B0F904007E
:10313000022804DB002018498880FFF77FFF16482B
:10314000B0F90600052804DB00201349C880FFF70A
:10315000A3FF1148B0F908000A2804DB00200E493B
:103160000881FFF7CAFF0C48B0F90A00142804DBF5
:10317000002009494881FFF7C1FF0748B0F90C005A
:10318000322804DB002004498881FFF7BCFF0020BF
:103190000149087010BD0000080500200024744992
:1031A00018050020402D0020BB040020BA2A002072
:1031B000BC270020D00400203000002070B5054658
:1031C0000C462146FE4803F0ECFD70BD70B5044688
:1031D0000D46AA20FA4908704870EF208870022036
:1031E000C8700846047145710026002005E0F449C6
:1031F000095C3144CEB2411CC8B20628F7DBF04866
:1032000086710721FFF7DAFF70BD03B587B0002094
:10321000069005900AE005990798415C06980844D5
:10322000C0B206900598401CC0B205900898401E98
:1032300005998842EFDCDDE90701084410F8011C1C
:103240000698814201D009B000BD07980078AA28ED
:1032500003D107984078AF2800D0F4E7079880782A
:10326000012818D107980079012814D0079800790F
:10327000022810D00798007903280CD0079800790D
:10328000042808D007980079212803DB07980079E3
:10329000262800DD00BF0798807802281BD10798F8
:1032A0000079012806D1C749C8710872487288722E
:1032B000C872087307980079A02802D10120C1497B
:1032C000C87007980079A12805D101F037FF03F0F5
:1032D00009FB03F059FB07988078032846D1BA48C8
:1032E0000078012802D0022002F09BFA07980079AA
:1032F0000799497941EA0020B44988800798807984
:103300000799C97941EA0020B049C8800798007A36
:103310000799497A41EA0020AC4908800798807AE9
:103320000799C97A41EA0020A84948800798007B9C
:103330000799497B41EA0020A44908810798807BCE
:103340000799C97B41EA0020A04948810798007C81
:103350000799497C41EA00209C4988810798807C34
:103360000799C97C41EA00209849C881079880786C
:1033700010287DD107980079000200B20799497999
:103380000843019007F068F99FED910B53EC102B67
:10339000CDE902019DED020B51EC100B07F0B0F9E5
:1033A000CDE904019DED040B51EC100B07F06EF814
:1033B0008949C1F8010007988079000200B2079995
:1033C000C9790843019007F047F99FED810B53EC51
:1033D000102BCDE902019DED020B51EC100B07F013
:1033E0008FF9CDE904019DED040B51EC100B07F0B2
:1033F0004DF87949C1F809000798007A000200B237
:103400000799497A0843019007F026F99FED700B60
:1034100053EC102BCDE902019DED020B51EC100B8A
:1034200007F06EF9CDE904019DED040B51EC100B92
:1034300007F02CF86849C1F805000798807A000267
:1034400000B20799C97A0843019007F005F99FED8A
:10345000600B53EC102BCDE902019DED020B51ECFA
:10346000100B07F04DF9CDE904019DED040B00E0D0
:10347000CAE051EC100B07F009F85749C1F81100E8
:103480000798007B000200B20799497B084301902E
:1034900007F0E2F89FED4E0B53EC102BCDE9020143
:1034A0009DED020B51EC100B07F02AF9CDE9040158
:1034B0009DED040B51EC100B06F0E8FF4649C1F8F6
:1034C00019000798807B000200B20799C97B084366
:1034D000019007F0C1F89FED3E0B53EC102BCDE9A6
:1034E00002019DED020B51EC100B07F009F9CDE93B
:1034F00004019DED040B51EC100B06F0C7FF36499B
:10350000C1F815000798007C000200B20799497CB9
:103510000843019007F0A0F89FED2D0B53EC102B02
:10352000CDE902019DED020B51EC100B07F0E8F81C
:10353000CDE904019DED040B51EC100B06F0A6FF44
:103540002549C1F821000798807C000200B2079944
:10355000C97C0843019007F07FF89FED1D0B53ECE9
:10356000102BCDE902019DED020B51EC100B07F081
:10357000C7F8CDE904019DED040B51EC100B06F0EA
:1035800085FF1549C1F829000798007D000200B2A7
:103590000799497D0843019007F05EF89FED0C0BF9
:1035A00053EC102BCDE902019DED020B51EC100BF9
:1035B00007F0A6F8CDE904019DED040B0EE0000034
:1035C000400500202C05002051000020A40500200B
:1035D000FCA9F1D24D62503FF405002051EC100BD4
:1035E00006F054FFFE49C1F82500FE48807848B92E
:1035F0000120FC49887007988078FB490870FB49D6
:103600000698087003F0C0F90798807811287DD1DA
:1036100007980079000200B20799497908430190A0
:1036200007F01AF81FED160B53EC102BCDE9020131
:103630009DED020B51EC100B07F062F8CDE904018F
:103640009DED040B51EC100B06F020FFE449C1F88E
:10365000310007988079000200B20799C9790843C0
:10366000019006F0F9FF1FED260B53EC102BCDE96E
:1036700002019DED020B51EC100B07F041F8CDE972
:1036800004019DED040B51EC100B06F0FFFED44934
:10369000C1F839000798007A000200B20799497A08
:1036A0000843019006F0D8FF1FED370B53EC102BA9
:1036B000CDE902019DED020B51EC100B07F020F853
:1036C000CDE904019DED040B51EC100B06F0DEFE7C
:1036D000C349C1F835000798807A000200B2079903
:1036E000C97A0843019006F0B7FF1FED470B53EC72
:1036F000102BCDE902019DED020B51EC100B06F0F1
:10370000FFFFCDE904019DED040B00E0BAE051ECB0
:10371000100B06F0BBFEB249C1F841000798007BD0
:10372000000200B20799497B0843019006F094FF1C
:103730001FED590B53EC102BCDE902019DED020B4F
:1037400051EC100B06F0DCFFCDE904019DED040BFC
:1037500051EC100B06F09AFEA149C1F849000798F8
:10376000807B000200B20799C97B0843019006F0F4
:1037700073FF1FED690B53EC102BCDE902019DED9A
:10378000020B51EC100B06F0BBFFCDE904019DEDDF
:10379000040B51EC100B06F079FE9149C1F845007D
:1037A0000798007C000200B20799497C0843019009
:1037B00006F052FF1FED7A0B53EC102BCDE90201FE
:1037C0009DED020B51EC100B06F09AFFCDE90401C0
:1037D0009DED040B51EC100B06F058FE8049C1F82A
:1037E00051000798807C000200B20799C97C084309
:1037F000019006F031FF1FED8A0B53EC102BCDE941
:1038000002019DED020B51EC100B06F079FFCDE9A2
:1038100004019DED040B51EC100B06F037FE7049CE
:10382000C1F859000798007D000200B20799497D50
:103830000843019006F010FF1FED9B0B53EC102B7B
:10384000CDE902019DED020B51EC100B06F058FF83
:10385000CDE904019DED040B51EC100B06F016FEB2
:103860005F49C1F855005F48807848B901205D493B
:103870008870079880785C4908705C4906980870E1
:1038800003F082F80798807812287DD10798007994
:10389000000200B2079949790843019006F0DCFE66
:1038A0001FEDB50B53EC102BCDE902019DED020B82
:1038B00051EC100B06F024FFCDE904019DED040B43
:1038C00051EC100B06F0E2FD4549C1F86100079884
:1038D0008079000200B20799C9790843019006F087
:1038E000BBFE1FEDC50B53EC102BCDE902019DED86
:1038F000020B51EC100B06F003FFCDE904019DED26
:10390000040B51EC100B06F0C1FD3549C1F86900FC
:103910000798007A000200B20799497A084301909B
:1039200006F09AFE1FEDD60B53EC102BCDE90201E9
:103930009DED020B51EC100B06F0E2FECDE9040107
:103940009DED040B51EC100B06F0A0FD2449C1F8CD
:1039500065000798807A000200B20799C97A084387
:10396000019006F079FE1FEDE60B53EC102BCDE92C
:1039700002019DED020B51EC100B06F0C1FECDE9EA
:1039800004019DED040B00E0C3E051EC100B06F0C8
:103990007DFD1349C1F871000798007B000200B259
:1039A0000799497B0843019006F056FE1FEDF80B7E
:1039B00053EC102BCDE902019DED020B51EC100BE5
:1039C00006F09EFECDE904019DED040B51EC100BB9
:1039D00006F05CFD0249C1F879000798807B07E09A
:1039E000F40500202C0500203800002039000020BC
:1039F000000200B20799C97B0843019006F02CFE33
:103A00009FEDFE0B53EC102BCDE902019DED020B57
:103A100051EC100B06F074FECDE904019DED040B92
:103A200051EC100B06F032FDF649C1F8750007980D
:103A3000007C000200B20799497C0843019006F01F
:103A40000BFE9FEDEE0B53EC102BCDE902019DED2B
:103A5000020B51EC100B06F053FECDE904019DED75
:103A6000040B51EC100B06F011FDE649C1F8810082
:103A70000798807C000200B20799C97C0843019036
:103A800006F0EAFD9FEDDD0B53EC102BCDE90201B2
:103A90009DED020B51EC100B06F032FECDE9040156
:103AA0009DED040B51EC100B06F0F0FCD549C1F86C
:103AB00089000798007D000200B20799497D0843FC
:103AC000019006F0C9FD9FEDCD0B53EC102BCDE915
:103AD00002019DED020B51EC100B06F011FECDE939
:103AE00004019DED040B51EC100B06F0CFFCC54911
:103AF000C1F88500C448807848B90120C24988705F
:103B000007988078C1490870C1490698087002F08A
:103B10003BFF0798807813287DD107980079000231
:103B200000B2079949790843019006F095FD9FED91
:103B3000B30B53EC102BCDE902019DED020B51ECC0
:103B4000100B06F0DDFDCDE904019DED040B51ECF9
:103B5000100B06F09BFCAB49C1F8910007988079E7
:103B6000000200B20799C9790843019006F074FD7C
:103B70009FEDA20B53EC102BCDE902019DED020B42
:103B800051EC100B06F0BCFDCDE904019DED040BDA
:103B900051EC100B06F07AFC9A49C1F8990007988D
:103BA000007A000200B20799497A0843019006F0B2
:103BB00053FD9FED920B53EC102BCDE902019DEDCF
:103BC000020B51EC100B06F09BFDCDE904019DEDBD
:103BD000040B51EC100B06F059FC8A49C1F8950012
:103BE0000798807A000200B20799C97A08430190C9
:103BF00006F032FD9FED810B53EC102BCDE9020155
:103C00009DED020B51EC100B06F07AFDCDE904019D
:103C10009DED040B00E0BAE051EC100B06F036FC11
:103C20007849C1F8A1000798007B000200B207990B
:103C3000497B0843019006F00FFD9FED700B53EC9C
:103C4000102BCDE902019DED020B51EC100B06F09B
:103C500057FDCDE904019DED040B51EC100B06F06E
:103C600015FC6849C1F8A9000798807B000200B2E2
:103C70000799C97B0843019006F0EEFC9FED5F0BAE
:103C800053EC102BCDE902019DED020B51EC100B12
:103C900006F036FDCDE904019DED040B51EC100B4F
:103CA00006F0F4FB5749C1F8A5000798007C000214
:103CB00000B20799497C0843019006F0CDFC9FEDC6
:103CC0004F0B53EC102BCDE902019DED020B51EC93
:103CD000100B06F015FDCDE904019DED040B51EC30
:103CE000100B06F0D3FB4749C1F8B1000798807C60
:103CF000000200B20799C97C0843019006F0ACFCB1
:103D00009FED3E0B53EC102BCDE902019DED020B14
:103D100051EC100B06F0F4FCCDE904019DED040B11
:103D200051EC100B06F0B2FB3649C1F8B900079808
:103D3000007D000200B20799497D0843019006F01A
:103D40008BFC9FED2E0B53EC102BCDE902019DED6A
:103D5000020B51EC100B06F0D3FCCDE904019DEDF4
:103D6000040B51EC100B06F091FB2649C1F8B5008D
:103D70002548807848B901202349887007988078C1
:103D80002249087022490698087002F0FDFD079844
:103D9000807814287DD107980079000200B2079935
:103DA00049790843019006F057FC9FED140B53EC42
:103DB000102BCDE902019DED020B51EC100B06F02A
:103DC0009FFCCDE904019DED040B51EC100B06F0B6
:103DD0005DFB0C49C1F8C10007988079000200B270
:103DE0000799C9790843019006F036FC9FED030B53
:103DF00053EC102BCDE902010CE00000FCA9F1D23C
:103E00004D62503FF40500202C05002038000020B2
:103E1000390000209DED020B51EC100B06F070FCF8
:103E2000CDE904019DED040B51EC100B06F02EFBC7
:103E3000FE49C1F8C9000798007A000200B207994C
:103E4000497A0843019006F007FC1FED140B53EC70
:103E5000102BCDE902019DED020B51EC100B06F089
:103E60004FFCCDE904019DED040B51EC100B06F065
:103E70000DFBEE49C1F8C5000798807A000200B238
:103E80000799C97A0843019006F0E6FB1FED250B60
:103E900000E0C8E053EC102BCDE902019DED020BD0
:103EA00051EC100B06F02CFCCDE904019DED040B48
:103EB00051EC100B06F0EAFADC49C1F8D100079882
:103EC000007B000200B20799497B0843019006F08D
:103ED000C3FB1FED360B53EC102BCDE902019DED1A
:103EE000020B51EC100B06F00BFCCDE904019DED2B
:103EF000040B51EC100B06F0C9FACC49C1F8D900FB
:103F00000798807B000200B20799C97B08430190A3
:103F100006F0A2FB1FED470B53EC102BCDE902017D
:103F20009DED020B51EC100B06F0EAFBCDE904010C
:103F30009DED040B51EC100B06F0A8FABB49C1F83B
:103F4000D5000798007C000200B20799497C08431D
:103F5000019006F081FB1FED570B53EC102BCDE9C0
:103F600002019DED020B51EC100B06F0C9FBCDE9EF
:103F700004019DED040B51EC100B06F087FAAB49E0
:103F8000C1F8E1000798807C000200B20799C97C63
:103F90000843019006F060FB1FED680B53EC102BFB
:103FA000CDE902019DED020B51EC100B06F0A8FBD0
:103FB000CDE904019DED040B51EC100B06F066FAFF
:103FC0009A49C1F8E9000798007D000200B20799FC
:103FD000497D0843019006F03FFB1FED780B53EC41
:103FE000102BCDE902019DED020B51EC100B06F0F8
:103FF00087FBCDE904019DED040B51EC100B06F09D
:1040000045FA8A49C1F8E5008948807848B9012015
:10401000874988700798807886490870864906988D
:10402000087002F0B1FC0798807815287DD10798B8
:104030000079000200B2079949790843019006F01F
:104040000BFB1FED920B53EC102BCDE902019DED04
:10405000020B51EC100B06F053FBCDE904019DED72
:10406000040B51EC100B06F011FA7049C1F8F10085
:1040700007988079000200B20799C9790843019036
:1040800006F0EAFA1FEDA30B53EC102BCDE9020169
:104090009DED020B51EC100B06F032FBCDE9040153
:1040A0009DED040B51EC100B06F0F0F95F49C1F8DF
:1040B000F9000798007A000200B20799497A08438C
:1040C000019006F0C9FA1FEDB30B53EC102BCDE9AC
:1040D00002019DED020B51EC100B06F011FBCDE936
:1040E00004019DED040B51EC100B06F0CFF94F4984
:1040F000C1F8F5000798807A000200B20799C97AE2
:104100000843019006F0A8FA1FEDC40B53EC102BE6
:10411000CDE902019DED020B51EC100B06F0F0FA17
:10412000CDE904019DED040B00E0C8E051EC100B5B
:1041300006F0ACF93D49C1F801010798007B000287
:1041400000B20799497B0843019006F085FA1FEDFC
:10415000D50B53EC102BCDE902019DED020B51EC78
:10416000100B06F0CDFACDE904019DED040B51ECE6
:10417000100B06F08BF92D49C1F809010798807BD7
:10418000000200B20799C97B0843019006F064FA67
:104190001FEDE60B53EC102BCDE902019DED020B58
:1041A00051EC100B06F0ACFACDE904019DED040BC7
:1041B00051EC100B06F06AF91C49C1F8050107988B
:1041C000007C000200B20799497C0843019006F088
:1041D00043FA1FEDF60B53EC102BCDE902019DEDD8
:1041E000020B51EC100B06F08BFACDE904019DEDAA
:1041F000040B51EC100B06F049F90C49C1F8110100
:104200000798807C000200B20799C97C084301909E
:1042100006F022FA9FED090B53EC102BCDE90201B9
:104220009DED020B51EC100B0CE00000F40500209A
:104230002C0500203800002039000020FCA9F1D214
:104240004D62503F06F05CFACDE904019DED040B90
:1042500051EC100B06F01AF9FD49C1F81901079845
:10426000007D000200B20799497D0843019006F0E5
:10427000F3F91FED0E0B53EC102BCDE902019DED70
:10428000020B51EC100B06F03BFACDE904019DED59
:10429000040B51EC100B06F0F9F8ED49C1F81501CB
:1042A000EC48807848B90120EA49887007988078FE
:1042B000E9490870E9490698087002F065FB00BFFB
:1042C000FEF7C1BF10B5E648007848B1E548007870
:1042D000401DC1B2E448FEF798FF0020E049087095
:1042E00010BD70B52DED0A8B82B00546B0EE408A48
:1042F000F0EE608AB0EE419AF0EE619AB0EE42AA1A
:10430000F0EE62AAB0EE43BAF0EE63BAB0EE44CA81
:104310000024AA222146641CD44842542146641C2D
:10432000425405F10F00C2B22146641CCF484254EA
:1043300000222146641C42549FEDCD0A28EE000A5B
:10434000BDEEC00A10EE100A00B201909DF80520E3
:104350002146641CC54842549DF804202146641C33
:1043600042549FEDC30A28EE800ABDEEC00A10EE4B
:10437000100A00B201909DF805202146641CBB483C
:1043800042549DF804202046611CCCB2B7490A541F
:104390009FEDB70A29EE000ABDEEC00A10EE100A22
:1043A00000B201909DF805202046611CCCB2AF49B7
:1043B0000A549DF804202046611CCCB2AB490A5433
:1043C0009FEDAB0A29EE800ABDEEC00A10EE100A7E
:1043D00000B201909DF805202046611CCCB2A34993
:1043E0000A549DF804202046611CCCB29F490A540F
:1043F0009FED9F0A2AEE000ABDEEC00A10EE100AD9
:1044000000B201909DF805202046611CCCB297496E
:104410000A549DF804202046611CCCB293490A54EA
:104420009FED930A2AEE800ABDEEC00A10EE100A34
:1044300000B201909DF805202046611CCCB28B494A
:104440000A549DF804202046611CCCB287490A54C6
:104450009FED870A2BEE000ABDEEC00A10EE100A8F
:1044600000B201909DF805202046611CCCB27F4926
:104470000A549DF804202046611CCCB27B490A54A2
:104480009FED7B0A2BEE800ABDEEC00A10EE100AEB
:1044900000B201909DF805202046611CCCB2734902
:1044A0000A549DF804202046611CCCB26F490A547E
:1044B0009FED6F0A2CEE000ABDEEC00A10EE100A46
:1044C00000B201909DF805202046611CCCB26749DE
:1044D0000A549DF804202046611CCCB263490A545A
:1044E000201FC8700026002005E06049095C3144A7
:1044F000CEB2411CC8B2A042F7DB2046611CCCB250
:104500005A490E5421465948FEF758FE02B0BDECF8
:104510000A8B70BD7FB50024AA222146641C534833
:1045200042542146641C425403222146641C4254D6
:1045300000222146641C42549DF801202146641C3F
:1045400042549DF800202146641C42549DF80520E9
:104550002146641C42549DF804202046611CCCB2C4
:1045600042490A549DF809202046611CCCB23F49BB
:104570000A549DF808202046611CCCB23B490A54DD
:104580009DF80D202046611CCCB238490A549DF894
:104590000C202046611CCCB234490A549DF82120DD
:1045A0002046611CCCB231490A549DF82020214696
:1045B000601CC4B22D4842549DF825202046611C41
:1045C000CCB22A490A549DF824202046611CCCB262
:1045D00026490A549DF829202046611CCCB2234963
:1045E0000A549DF828202046611CCCB21F490A5469
:1045F0009DF82D202046611CCCB21C490A549DF820
:104600002C202046611CCCB218490A549DF8312058
:104610002046611CCCB215490A549DF83020204632
:10462000611CCCB211490A549DF835202046611C0A
:10463000CCB20E490A549DF834202046611CCCB2FD
:104640000A490A54201FC8700025002018E0000005
:10465000F40500202C05002038000020390000203F
:104660003B0000203A000020720500204005002099
:1046700000007A44FE49095C2944CDB2411CC8B20D
:10468000A042F7DB2046611CCCB2F9490D5421460B
:10469000F748FEF793FD7FBD2DE9FF4F81B005463A
:1046A0000FAF97E8800F00240026AA222146641C41
:1046B000EF4842542146641C425405F1F000C2B256
:1046C0002146641CEA48425400222146641C42549C
:1046D000029800B200909DF80B202146641CE4482B
:1046E00042549DF80A202146641C42549DF809203A
:1046F0002146641C42549DF808202046611CCCB21F
:10470000DB490A54039800B200909DF80F20204620
:10471000611CCCB2D6490A549DF80E202046611C7B
:10472000CCB2D3490A549DF80D202046611CCCB26E
:10473000CF490A549DF80C202046611CCCB2CC49CC
:104740000A54049800B200909DF813202046611C82
:10475000CCB2C7490A549DF812202046611CCCB245
:10476000C3490A549DF811202046611CCCB2C049AF
:104770000A549DF810202046611CCCB2BC490A5452
:104780000E9800B200909DF83B202046611CCCB2F0
:10479000B7490A549DF83A202046611CCCB2B4496E
:1047A0000A549DF839202046611CCCB2B0490A5405
:1047B0009DF838202046611CCCB2AD490A540097C0
:1047C0009DF801202046611CCCB2A9490A549DF8ED
:1047D00000202046611CCCB2A5490A54CDF80080C7
:1047E0009DF801202046611CCCB2A1490A549DF8D5
:1047F00000202046611CCCB29D490A54CDF800909F
:104800009DF801202046611CCCB299490A549DF8BC
:1048100000202046611CCCB295490A54CDF800A076
:104820009DF801202046611CCCB291490A549DF8A4
:1048300000202046611CCCB28D490A54CDF800B04E
:104840009DF801202046611CCCB289490A549DF88C
:1048500000202046611CCCB285490A54149800906F
:104860009DF801202046611CCCB281490A549DF874
:1048700000202046611CCCB27D490A54201FC8701C
:10488000002005E07A49095C3144CEB2411CC8B22F
:10489000A042F7DB2046611CCCB275490E5421467C
:1048A0007348FEF78BFC05B0BDE8F08F7FB5054679
:1048B0000024AA222146641C6D4842542146641CEF
:1048C000425400222146641C42542146641C425436
:1048D0002146641C45549DF805202146641C425421
:1048E0009DF804202146641C42549DF8092020466E
:1048F000611CCCB25E490A549DF808202046611C18
:10490000CCB25B490A549DF80D202046611CCCB204
:1049100057490A549DF80C202046611CCCB25449DA
:104920000A549DF821202046611CCCB250490A54FB
:104930009DF820202046611CCCB24D490A54201F0E
:10494000C8700026002005E04949095C3144CEB218
:10495000411CC8B2A042F7DB2046611CCCB24449DE
:104960000E5421464248FEF729FC7FBD10B588B0A1
:10497000404800784049097890FBF1F201FB1201B0
:104980003D480078801E814202D101203B49487495
:10499000384800783A49097890FBF1F201FB12019E
:1049A00037480078401E814202D1012033494873C4
:1049B000304800783349097890FBF1F201FB12018D
:1049C00030480078801E814202D101202B49C873F3
:1049D00028480078401CC0B226490870C82801DD6C
:1049E000002008702548807848B10020234988704D
:1049F0002548017825480078FEF7E8FBDFE11F48ED
:104A0000C07860B100201D49C8704FF4C87364229B
:104A10004FF4967100900420FFF748FFCFE117484C
:104A2000407CD8B30020154948740A200921082287
:104A30000723CDE90332CDE90510062105221448EC
:104A4000D0F84D0000EE100ABDEEC00A8DED000A50
:104A50000F48CDE90121D0F849200E4890ED000A19
:104A6000BDEEC00A10EE103A0B4890ED000A16E0B9
:104A7000400500203E0000203F0000202C050020C3
:104A800040000020410000203900002038000020B4
:104A90008D280020A0040020A804002007E0BDEE1F
:104AA000C00A10EE101A0120FFF7F6FD87E1F74863
:104AB000407BA8B30020F549487340F2DC52F4482B
:104AC000C08900F2DC5080B2F149898901F2DC51E1
:104AD00089B2CDE90302EE4805920291408900F2C5
:104AE000DC5080B2EA49098901F2DC5189B2E84C14
:104AF000CDE90010648804F2DC54A3B2E44C2488AD
:104B000004F2DC54A2B2E24CE48804F2DC54A1B218
:104B1000DF4CA48804F2DC54A0B2FFF7FBFC4EE1AA
:104B2000FFE7DA48C07998B30020D849C871D9485E
:104B3000D0F8250004EE100AD648D0F8290003EE7C
:104B4000900AD448D0F8210003EE100AD148D0F8DA
:104B5000150002EE900ACF48D0F8190002EE100AB4
:104B6000CC48D0F8110001EE900ACA48D0F80500F0
:104B700001EE100AC748D0F8090000EE900AC548B7
:104B8000D0F8010000EE100A0120FFF7AAFB16E1A1
:104B9000FFE7BE48007A98B30020BC490872BD48C0
:104BA000D0F8550004EE100ABA48D0F8590003EEC8
:104BB000900AB848D0F8510003EE100AB548D0F872
:104BC000450002EE900AB348D0F8490002EE100A00
:104BD000B048D0F8410001EE900AAE48D0F8350058
:104BE00001EE100AAB48D0F8390000EE900AA9484F
:104BF000D0F8310000EE100A0220FFF772FBDEE071
:104C0000FFE7A248407A98B30020A0494872A14823
:104C1000D0F8850004EE100A9E48D0F8890003EE13
:104C2000900A9C48D0F8810003EE100A9948D0F809
:104C3000750002EE900A9748D0F8790002EE100A4B
:104C40009448D0F8710001EE900A9248D0F86500BF
:104C500001EE100A8F48D0F8690000EE900A8D48E6
:104C6000D0F8610000EE100A0320FFF73AFBA6E03F
:104C7000FFE78648807A98B3002084498872854887
:104C8000D0F8B50004EE100A8248D0F8B90003EE5F
:104C9000900A8048D0F8B10003EE100A7D48D0F8A1
:104CA000A50002EE900A7B48D0F8A90002EE100A97
:104CB0007848D0F8A10001EE900A7648D0F8950027
:104CC00001EE100A7348D0F8990000EE900A71487E
:104CD000D0F8910000EE100A0420FFF702FB6EE00E
:104CE000FFE76A48C07A98B300206849C8726948EB
:104CF000D0F8E50004EE100A6648D0F8E90003EEAB
:104D0000900A6448D0F8E10003EE100A6148D0F838
:104D1000D50002EE900A5F48D0F8D90002EE100AE2
:104D20005C48D0F8D10001EE900A5A48D0F8C5008E
:104D300001EE100A5748D0F8C90000EE900A554815
:104D4000D0F8C10000EE100A0520FFF7CAFA36E0DD
:104D5000FFE74E48007B90B300204C4908734D4854
:104D6000D0F8150104EE100A4A48D0F8190103EEF4
:104D7000900A4848D0F8110103EE100A4548D0F8CF
:104D8000050102EE900A4348D0F8090102EE100A2C
:104D90004048D0F8010101EE900A3E48D0F8F500F5
:104DA00001EE100A3B48D0F8F90000EE900A3948AD
:104DB000D0F8F10000EE100A0620FFF792FAFFF794
:104DC00081FA08B010BD3449097839B9AA2805D14B
:104DD0000121314A1170314908706AE02E49097881
:104DE000012907D1AF2805D102212B4A11702B4987
:104DF00048705EE028490978022907D1F12805DAD0
:104E00000321254A11702549887052E0224909780A
:104E100003290CD132280ADA04211F4A11701F49D4
:104E2000C8701F49087000211E4A117041E01A49DC
:104E30000978042919D11A490978002915DD18497A
:104E40000978491E164A117016490978154A1278D0
:104E5000521C144B1A70091D104A505410490978FD
:104E600099B905210C4A117023E00B4909780529ED
:104E70001CD10021084A11700A490978091D074A06
:104E800050540121084A117013E012E02C05002053
:104E90008C270020F405002043000020720500202C
:104EA000420000203A0000203B00002000211E4A62
:104EB000117070472DE9F04106460F460024AA22E2
:104EC0002146641C194842542146641C4254E02285
:104ED0002146641C425400222146641C4254002096
:104EE00007E0335C2146621CD4B2104A5354411C83
:104EF000C8B2B842F5DB201F0C49C870002500205D
:104F000005E00A49095C2944CDB2411CC8B2A0425F
:104F1000F7DB2046611CCCB204490D5421460348FE
:104F2000FEF74CF9BDE8F081430000204005002069
:104F300038B50122F6A1F74803F032FF0446C4B1A8
:104F400000221146F2A004F024FF044614B14FF0F1
:104F5000FF3038BD0022EEA1EE4803F021FF0446E9
:104F60003CB10022EAA1104603F01AFF6FF00100E5
:104F7000EFE7E9A1E94804F0CAFB04463CB100228E
:104F8000E3A1104603F00CFF6FF00200E1E70122FD
:104F9000E3A1E64803F02FFF04463CB10022DCA168
:104FA000104603F0FDFE6FF00300D2E76B4640228F
:104FB000DF49DE4803F0D1FF0446009880B3DB48A8
:104FC00004F02AFA0122DBA1D84803F014FF0446BA
:104FD0003CB10022CEA1104603F0E2FE6FF00300C8
:104FE000B7E76B464FF49272D449D04803F0B5FF4F
:104FF0000446009848B1CD4804F00EFA0022C4A13E
:10500000104603F0CDFE0120A3E7C84804F004FADF
:105010000022BFA1104603F0C3FE6FF0030098E723
:10502000FFE7C24804F0F8F90022B9A1104603F0E6
:10503000B7FE6FF004008CE738B50022B4A1B54884
:1050400003F0AEFE0446C4B100221146B0A004F045
:10505000A0FE044614B14FF0FF3038BD0022ACA1D1
:10506000AC4803F09DFE04463CB10022A8A11046C6
:1050700003F096FE6FF00100EFE7A7A1A74804F048
:1050800046FB04463CB10022A1A1104603F088FE75
:105090006FF00200E1E70A22A1A1A44803F0ABFEF1
:1050A00004463CB100229AA1104603F079FE6FF04D
:1050B0000300D2E76B4640229D499C4804F046F825
:1050C00004467CBB994804F0A7F90A2299A19748A5
:1050D00003F091FE04463CB100228DA1104603F07E
:1050E0005FFE6FF00300B8E76B464FF4927293498E
:1050F0008E4804F02BF804464CB98C4804F08CF927
:10510000002283A1104603F04BFE0120A5E787484B
:1051100004F082F900227EA1104603F041FE6FF0F8
:1051200003009AE7FFE7814804F076F9002278A1AE
:10513000104603F035FE6FF004008EE7B7EE000A6C
:105140007E4880ED010AB7EE000A80ED030AB7EE53
:10515000000A80ED020AB7EE000A80ED050AB7EEFC
:10516000000A80ED070AB7EE000A80ED060AB7EEE6
:10517000000A80ED090AB7EE000A80ED0B0AB7EECF
:10518000000A80ED0A0AB7EE000A80ED0D0AB7EEBC
:10519000000A80ED0F0AB7EE000A80ED0E0AB7EEA6
:1051A000000A80ED110AB7EE000A80ED130AB7EE8F
:1051B000000A80ED120AB7EE000A80ED150AB7EE7C
:1051C000000A80ED170AB7EE000A80ED160AB7EE66
:1051D000000A80ED190AB7EE000A80ED1B0AB7EE4F
:1051E000000A80ED1A0AB7EE000A80ED1D0AB7EE3C
:1051F000000A80ED1F0AB7EE000A80ED1E0AB7EE26
:10520000000A80ED210AB7EE000A80ED230AB7EE0E
:10521000000A80ED220AB7EE000A80ED210AB7EEFF
:10522000000A80ED230AB7EE000A80ED220AB7EEED
:10523000000A80ED250AB7EE000A80ED270AB7EED6
:10524000000A80ED260AB7EE000A80ED290AB7EEC3
:10525000000A80ED2B0AB7EE000A80ED2A0AB7EEAD
:10526000000A80ED2D0AB7EE000A80ED2F0AB7EE96
:10527000000A80ED2E0AB7EE000A80ED310AB7EE83
:10528000000A80ED330AB7EE000A80ED320AB7EE6D
:10529000000A80ED350AB7EE000A80ED370AB7EE56
:1052A000000A80ED360AB7EE000A80ED390AB7EE43
:1052B000000A80ED3B0AB7EE000A80ED3A0AB7EE2D
:1052C000000A80ED3D0AB7EE000A80ED3F0AB7EE16
:1052D000000A80ED3E0AB7EE000A80ED410AB7EE03
:1052E000000A80ED430AB7EE000A80ED420AB7EEED
:1052F000000A80ED450AB7EE000A80ED470AB7EED6
:10530000000A80ED460A704710B500F081FF10BD1D
:10531000303A0000180700202F00000070270020FE
:1053200073656E736F722E62696E000048170020FD
:10533000B40500207069642E62696E00F4050020D7
:1053400010B5FFF7F5FD0446002C04DAFFF7F6FE72
:1053500001200E490870FFF7D7FF10BD10B5FFF709
:105360006BFE10BD10B50A48008820B108480088BF
:10537000401C07490880064800883C2804DD0020BE
:1053800003490880FFF7EAFF10BD00004400002039
:105390003C0000200246002007E0FE4B1B5632F87E
:1053A000133021F81030431CD8B20828F5DB7047C1
:1053B0003FB50546F8480078012804D1F74928464A
:1053C000FFF7E8FF07E0F4480078022803D1F3492B
:1053D000F348FFF7DFFF002413E2F04830F8140031
:1053E00040F6C411884205DCEC4830F81400B0F5F2
:1053F000FA7F07DA0120EB4908550020EA4921F835
:10540000140012E0E84830F81400401CE64921F886
:105410001400084630F81400C82806DD4FF4FA607E
:1054200021F814000020DF490855DB4800780128E6
:1054300003D0D948007802287CD1DA48005D0028E2
:1054400079D1D64830F8140000B22DF81400D748AE
:1054500030F91400D64931F9141088426BDDD54873
:10546000005D002878D13DF91400D14931F91410BC
:10547000401A00EE900AF8EEE01ACC4830F9140019
:10548000CB4931F91410401A00EE900AF8EEE00A08
:1054900081EEA01ADFEDC81ADFEDC80A51EE210A2D
:1054A000FDEEE00A10EE900A00B210F5FA7F01DA84
:1054B000C3484DE03DF91400BD4931F91410401ABC
:1054C00000EE900AF8EEE01AB84830F91400B84936
:1054D00031F91410401A00EE900AF8EEE00A81EE5D
:1054E000A01ADFEDB51ADFEDB50A51EE210AFDEE87
:1054F000E00A10EE900A00B2B0F5FA7F02DD4FF438
:10550000FA7025E03DF91400A94931F91410401A48
:1055100000EE900AF8EEE01AA44830F91400A4490D
:1055200031F91410401A00EE900AF8EEE00A81EE0C
:10553000A01A02E08AE085E00EE0DFED9F1ADFEDC1
:105540009F0A51EE210AFDEEE00A10EE900A00B229
:105550009C4921F8140075E03DF91400944931F993
:105560001410401A00EE900AF8EEE01A8F4830F955
:1055700014008F4931F91410401A00EE900AF8EE29
:10558000E00A81EEA01ADFED8C1ADFED8C0A51EEF5
:10559000210AFDEEE00A10EE900A00B210F5FA7F43
:1055A00001DA874849E03DF91400814931F91410C6
:1055B000401A00EE900AF8EEE01A7C4830F9140028
:1055C0007B4931F91410401A00EE900AF8EEE00A17
:1055D00081EEA01ADFED781ADFED780A51EE210A8C
:1055E000FDEEE00A10EE900A00B2B0F5FA7F02DD9F
:1055F0004FF4FA7021E03DF914006D4931F91410AF
:10560000401A00EE900AF8EEE01A684830F91400EB
:10561000674931F91410401A00EE900AF8EEE00ADA
:1056200081EEA01ADFED641ADFED640A51EE210A63
:10563000FDEEE00A10EE900A00B2404200B261496D
:1056400021F8140000206049087002E001205E4942
:105650000870DFED5E0A60EE200A5D48C0ED000ACA
:105660003DF9140000EE900AF8EEE00A594800EB0C
:10567000840090ED001A70EEC10AF5EEC00AF1EE5A
:1056800010FA0DDD3DF9140000EE900AF8EEE00A84
:10569000504800EB840090ED001A70EEC10A0EE055
:1056A0003DF9140000EE900AF8EEE00A494800EBDC
:1056B000840090ED001A70EEC10AF1EE600A9FEDD1
:1056C000461AF4EEC10AF1EE10FA1DD23D4830F947
:1056D000140000EE900AF8EEE00A3E4800EB840069
:1056E00090ED001A30EEC11A3A4800EB8400D0ED7C
:1056F000000A3748D0ED001A41EE810A354800EB28
:105700008400C0ED000A20E02E4830F9140000EEBD
:10571000900AF8EEE00A2F4800EB840090ED001AA2
:1057200030EEC11A2B4800EB8400D0ED000A284867
:10573000D0ED001AB6EE002A61EE821A41EE810A1F
:10574000244800EB8400C0ED000A1348007820B91B
:10575000DFED220A1F48C0ED020A1E4800EB84005C
:10576000D0ED000A1E4800EB840090ED001A70EEA8
:10577000C10A1C4800EB8400C0ED000A154800EB8C
:105780008400D0ED000A164800EB8400C0ED000A4A
:105790000C4829E048000020510000202C2800205F
:1057A000A4050020520000201C2800205C000020DE
:1057B0006C0000207C00002000007A440000FA43C6
:1057C0000CFEFFFF8C2700205000002034337B426A
:1057D00084000020BC2700200000C8420000FAC35B
:1057E000DC270020FC27002030F9140000EE900A8E
:1057F000F8EEE00A0E4800EB8400C0ED000A601CE1
:10580000C4B2082CFFF6E9AD0A480088401C80B2FB
:1058100008490880C82803DD002008800649087070
:105820003FBD054908700021024A11807047000001
:105830009C2700205A00002051000020F0EE400A72
:10584000F5EEC00AF1EE10FA02DBB0EE600A704726
:10585000B1EE600AFBE7B5EEC00AF1EE10FA04DB28
:10586000FDEEC00A10EE900A7047F1EE400AFDEE20
:10587000E00A10EE900AF7E700B5B0EE403AB0EE5D
:10588000602AB5EEC03AF1EE10FA04D0B5EEC02AA7
:10589000F1EE10FA02D19FEDFB1A99E0B0EE430A47
:1058A000FFF7CCFFF0EE403AB0EE420AFFF7C6FF3A
:1058B000F0EE402AF4EEE23AF1EE10FA02D283EE74
:1058C000A24A01E082EEA34A9FEDEF0AB4EEC04A7D
:1058D000F1EE10FA02D2F0EE441A2DE0DFEDEB0A01
:1058E000B6EE000A14EE200AF0EE404ABDEEE40ADD
:1058F00010EE100A00EE100AB8EEC00A34EEC00A2C
:10590000F0EE404AE24901EB800191ED000AF0EE31
:10591000401ADF4A411C02EB810191ED000A114659
:1059200001EB8001D1ED000A70EE600AB0EE610A71
:1059300000EEA40AF0EE401AF4EEE32AF1EE10FABB
:1059400020DDB5EEC02AF1EE10FA0ADBB5EEC03A62
:10595000F1EE10FA02DBB0EE611A39E0B1EE611A35
:1059600036E09FEDCC1AB5EEC03AF1EE10FA04DB4A
:1059700031EE610AB0EE401A2AE031EEC10AB0EE13
:10598000401A25E0B5EEC03AF1EE10FA10DB9FEDBB
:10599000C21AB5EEC02AF1EE10FA04DB31EE610A4C
:1059A000B0EE401A14E031EE210AB0EE401A0FE0DA
:1059B0009FEDBA1AB5EEC02AF1EE10FA04DB31EE13
:1059C000210AB0EE401A03E031EE610AB0EE401A4F
:1059D000B0EE410A00BD00B5B0EE405AF0EE605A9C
:1059E000F0EE450AB0EE650AFFF746FF00BDB0EEE7
:1059F000401AB7EE080AB0EE402AB6EE000A21EED1
:105A0000000AF0EE401AF0EE410A10EE900AA449A6
:105A1000A1EB600000EE900A61EEA02AB7EE080A42
:105A200002EEE00A20EE200AF0EE400A61EEA02A23
:105A3000B7EE080A02EEE00A20EE200AF0EE400A75
:105A400021EE200A704710B52DED0A8BB0EE409A7A
:105A5000F0EE609A9FED930B53EC102B51EC190B69
:105A600004F012FE18D29FED910B53EC102B51EC69
:105A7000190B04F045FE41EC1B0B9FED8E0B53EC14
:105A8000102B04F035FD41EC1A0B53EC192B04F0EC
:105A900037FE41EC180B17E09FED840B53EC102BF5
:105AA00051EC190B04F02CFE41EC1B0B9FED810B0C
:105AB00053EC102B04F058FF41EC1A0B53EC192B4C
:105AC00004F01EFE41EC180B9FED760B53EC102BEF
:105AD00051EC180B04F0D8FD20D29FED780B53EC5D
