:020000040800F2
:10000000E82C0020950400083D0200083F0200088B
:1000100043020008470200084B02000800000000ED
:100020000000000000000000000000004F02000877
:1000300051020008000000005302000855020008A9
:10004000AF040008AF040008AF040008AF040008C4
:10005000AF040008AF040008AF040008AF040008B4
:10006000AF040008AF040008AF040008AF040008A4
:10007000AF040008AF040008AF040008AF04000894
:10008000AF040008AF040008AF040008AF04000884
:10009000AF040008AF040008AF040008AF04000874
:1000A000AF040008AF040008AF040008AF04000864
:1000B000AF040008670200086F020008AF040008E0
:1000C000AF040008AF040008AF040008AF04000844
:1000D000AF040008AF04000877020008AF0400086E
:1000E000AF040008AF040008AF040008AF04000824
:1000F000AF040008AF040008AF040008AF04000814
:10010000AF040008AF040008AF040008AF04000803
:10011000AF040008AF040008AF040008AF040008F3
:10012000AF040008AF040008AF040008AF040008E3
:10013000AF040008AF040008AF040008AF040008D3
:10014000AF040008AF040008AF040008AF040008C3
:10015000AF040008AF040008AF040008AF040008B3
:10016000AF040008AF040008AF040008AF040008A3
:10017000AF040008AF040008AF040008AF04000893
:10018000AF040008AF04000800F002F800F03CF8EB
:100190000AA090E8000C82448344AAF10107DA45E2
:1001A00001D100F031F8AFF2090EBAE80F0013F0F8
:1001B000010F18BFFB1A43F001031847C885000060
:1001C000E8850000103A24BF78C878C1FAD85207F1
:1001D00024BF30C830C144BF04680C6070470000C1
:1001E0000023002400250026103A28BF78C1FBD840
:1001F000520728BF30C148BF0B6070471FB508F0D9
:10020000A1FA1FBD10B510BD08F01FF91146FFF788
:10021000F5FF00F009F808F03DF903B4FFF7F2FF2D
:1002200003BC08F041F9000002F07AF902490870B5
:1002300001E002F0C7FAFCE700000020704700BFB1
:10024000FEE700BFFEE700BFFEE700BFFEE7704726
:100250007047704710B50A480068401C084908609C
:1002600004F0A5FD10BD10B505F0A9FA10BD10B53C
:1002700005F0ACFB10BD10B504F09FFE10BD0000F2
:10028000840000200CB500200190009076480068A2
:1002900040F480307449086000BF7348006800F47F
:1002A000003000900198401C0190009818B9019806
:1002B000B0F5A04FF1D16C48006800F4003010B1E7
:1002C0000120009001E0002000900098012846D114
:1002D00065484030006840F0805063494031086014
:1002E0006248006840F44040604908605E48083059
:1002F00000685D49083108600846006840F4004025
:1003000008600846006840F4A05008605848091F7B
:100310000860081F006840F08070091F086000BF77
:100320005148006800F000700028F9D040F20570D4
:10033000504908604C480830006820F003004A49E2
:10034000083108600846006840F00200086000BFFD
:1003500045480830006800F00C000828F8D10CBDB2
:1003600010B54548006840F47000434908603E48B5
:10037000006840F001003C49086000203A4908311B
:100380000860394800683D490840374908603C48E2
:10039000091D0860081F006820F48020091F0860FC
:1003A000002031490C310860FFF76CFF4FF000600E
:1003B00031498039086010BD70B500200022022349
:1003C00000240221284D08352D6805F00C0020B1CD
:1003D000042806D0082834D107E02A4D2A4E35607B
:1003E00033E02A4D284E35602FE01F4D2D1D2D681E
:1003F000C5F380541C4D2D1D2D6805F03F0154B1EF
:10040000224DB5FBF1F5184E361D3668C6F3881639
:1004100005FB06F209E01B4DB5FBF1F5124E361D4A
:100420003668C6F3881605FB06F20F4D2D1D2D68A4
:10043000C5F301456D1C6B00B2FBF3F5124E356040
:1004400003E0104D104E356000BF00BF064D08356B
:100450002D68C5F303150E4E705D0B4D2D68C5401C
:10046000094E356070BD0000003802400070004049
:1004700008544007003C024088ED00E0FFFFF6FE14
:10048000103000240024F4000400002000127A0040
:10049000080000200948804709480047FEE7FEE7BA
:1004A000FEE7FEE7FEE7FEE7FEE7FEE7FEE7FEE724
:1004B00004480549054A064B7047000061030008DF
:1004C00089010008E8260020E82C0020E828002008
:1004D000E828002032490143324A1160704770B564
:1004E000002100230F22C4781CB32E4C246804F48E
:1004F000E064C4F5E064C4F30721C1F10404E3B28D
:100500000A4144789C40E1B28478144021430C07AE
:10051000210E254C05786155047804F01F0501244F
:10052000AC4005786D11AD0005F1E025C5F800413E
:1005300009E0047804F01F050124AC401B4D067847
:10054000761145F8264070BD194A0A400243154B02
:100550001B1F1A60704739B1124A121D12680243FC
:10056000104B1B1D1A6006E00E4A121D12688243D2
:100570000C4B1B1D1A607047042808D14FF0E02176
:10058000096941F004014FF0E022116107E04FF0EA
:10059000E021096921F004014FF0E0221161704768
:1005A0000000FA050CED00E000E400E080E100E06E
:1005B00080FFFF1F10B504469848844208D10121EE
:1005C000084600F086FB0021012000F082FB76E067
:1005D0009348844208D10121022000F07AFB0021D7
:1005E000022000F076FB6AE08E48844208D10121A7
:1005F000042000F06EFB0021042000F06AFB5EE0A6
:100600008948844208D10121082000F062FB0021C2
:10061000082000F05EFB52E08448844208D10121AA
:10062000102000F056FB0021102000F052FB46E0A5
:100630007F48844208D10121202000F04AFB00219C
:10064000202000F046FB3AE07A48844208D101219C
:10065000402000F03EFB0021402000F03AFB2EE05D
:100660007548844208D10121802000F032FB00212E
:10067000802000F02EFB22E07048844208D1012146
:10068000801500F026FB0021A01500F022FB16E0EB
:100690006B48844208D10121401500F01AFB00216B
:1006A000601500F016FB0AE06648844207D101217C
:1006B000001500F00EFB0021201500F00AFB10BD14
:1006C000F0B50A4600210023002400BF3DE00125CB
:1006D00005FA01F3156805EA03049C4234D1056864
:1006E0004F000326BE40B543056015794E00B54066
:1006F0000668354305601579012D02D01579022D64
:1007000016D185684F000326BE40B54385605579F4
:100710004E00B540866835438560456801268E40A9
:10072000B5434560456896798E40B6B2354345601D
:10073000C5684F000326BE40B543C560D5794E005D
:10074000B540C6683543C560491C1029BFD3F0BD0C
:100750004FF6FF7101600021017141718171C1711A
:10076000704708B54FF480320092009A0A43009215
:10077000009AC261C161009AC261C2690092C269F5
:10078000009208BD0246002013690B400BB1012006
:1007900000E0002070470146086980B270470246B9
:1007A000002053690B400BB1012000E0002070478E
:1007B0000146486980B270470183704741837047A2
:1007C0000AB1018300E0418370474161704742698B
:1007D0004A4042617047F0B5002300244D07ED0EFA
:1007E00002FA05F3CE1000F1200555F826504E0709
:1007F000F70E0F26BE40B543CF1000F1200646F895
:100800002750CE1000F1200555F8265045EA030484
:10081000CE1000F1200545F82640F0BD0000024052
:100820000004024000080240000C02400010024098
:100830000014024000180240001C02400020024048
:100840000024024000280240F948006840F00100FE
:10085000F74908600020F64908310860F44800684C
:10086000F4490840F2490860F348091D0860F3485C
:10087000EF4984310860F0481038091D0860EC48E1
:10088000006820F48020EA4908600020E8490C3123
:100890000860E7498C31086070470021E44A921CE7
:1008A000117011460870704710B5014600220023F0
:1008B00000204A11012A02D1DD4C236808E0022AF7
:1008C00003D1DB4C7034236802E0D94C74342368C4
:1008D00001F01F02012494401C400CB1012000E0F3
:1008E000002010BD38B5002000900024002500BF76
:1008F0003120FFF7D9FF05460098401C0090009872
:10090000B0F5A04F01D0002DF2D03120FFF7CCFF81
:1009100008B1012400E00024204638BD0146002033
:10092000C34A106820F0F80040EAC1001060704728
:10093000C349086070470021BD4A703211701170C0
:10094000012802D004280AD104E00121B84A7032FB
:10095000117005E00521B64A7032117000E000BF49
:1009600000BF7047B7490860704770B5049C41EA02
:1009700082150126C6EB530645EA0645054345EABE
:100980000465AB4E361D356070BDAD4908667047D5
:10099000820142EA0172A64B84331A607047A8496B
:1009A0008866704710B5830143EA016343EA027326
:1009B0009F4C8834236010BDA14908677047A04947
:1009C000C864704702460020994B0833186820F02D
:1009D000EC6042EA01031843954B083318607047F6
:1009E00002460020924B0833186820F0784042EA13
:1009F000010318438E4B08331860704701460020EE
:100A00008B4A0832106820F00300084310607047DA
:100A100087480830006800F00C007047014600204D
:100A2000834A0832106820F0F000084310607047D5
:100A3000014600207E4A0832106820F4E050084346
:100A40001060704701460020794A0832106820F48F
:100A5000604040EAC10010607047F0B500210022FC
:100A60000024022500260223714F08373F6807F053
:100A70000C0121B1042905D0082937D105E0724FB6
:100A8000076036E0714F076033E0694F3F1D3F68F4
:100A9000C7F38056664F3F1D3F6807F03F036EB1B6
:100AA0006A4FB7FBF3F7DFF888C10CF1040CDCF8F0
:100AB00000C0CCF3881C07FB0CF40CE0624FB7FBC2
:100AC000F3F7DFF86CC10CF1040CDCF800C0CCF3D8
:100AD000881C07FB0CF4564F3F1D3F68C7F30147C6
:100AE0007F1C7D00B4FBF5F7076002E0564F0760FE
:100AF00000BF00BF4E4F08373F6807F0F0010909FB
:100B0000534F7A5C0768D7404760494F08373F68C2
:100B100007F4E051890A4E4F7A5C4768D7408760F6
:100B2000434F08373F6807F46041490B484F7A5CF0
:100B30004768D740C760F0BD002100F44072B2F5AD
:100B4000407F0AD13A4A0832116821F4F811414A2B
:100B500002401143364A08321160354A7032126839
:100B6000C0F30B031A43324B70331A607047354998
:100B70004439086070473349403908607047364946
:100B80000860704701460020294A8C32106820F026
:100B90001F004A1E1043264A8C32106070470146DF
:100BA0000020234A8C32106820F4F8504A1E40EA94
:100BB00002201F4A8C3210607047014600201C4AF8
:100BC0008C32106820F440100843106070470146D2
:100BD0000020174A8C32106820F44000084310604F
:100BE000704701460020124A8C32106820F44030D1
:100BF00008431060704719490860704739B10C4AC2
:100C00003032126802430A4B30331A6006E0084A59
:100C1000303212688243064B30331A607047F9B1A4
:100C2000034A343212680243014B34331A601CE029
:100C300000380240FFFFF6EA1030002400300020A8
:100C400000004742800E47420024F40000127A0060
:100C500018000020FFFCFF0F5C014742E0114742F3
:100C60008F4A126882438E4B1A60704739B18C4AA2
:100C7000121D126802438A4B1B1D1A6006E0884A47
:100C8000121D12688243864B1B1D1A60704739B1D2
:100C9000834A0C3212680243814B0C331A6006E01F
:100CA0007F4A0C32126882437D4B0C331A607047C6
:100CB00039B17B4A103212680243794B10331A6003
:100CC00006E0774A103212688243754B10331A607F
:100CD000704739B1724A243A12680243704B243B80
:100CE0001A6006E06E4A243A126882436C4B243B39
:100CF0001A60704739B16A4A203A12680243684B59
:100D0000203B1A6006E0664A203A12688243644B30
:100D1000203B1A60704739B1614A1C3A126802439D
:100D20005F4B1C3B1A6006E05D4A1C3A1268824326
:100D30005B4B1C3B1A60704739B1594A143A126830
:100D40000243574B143B1A6006E0554A143A1268A6
:100D50008243534B143B1A60704739B1504A103AE2
:100D6000126802434E4B103B1A6006E04C4A103AA0
:100D7000126882434A4B103B1A60704739B1484AA7
:100D80001C3212680243464B1C331A6006E0444A88
:100D90001C3212688243424B1C331A60704739B1CF
:100DA0003F4A2032126802433D4B20331A6006E06E
:100DB0003B4A203212688243394B20331A60704715
:100DC00039B1374A243212680243354B24331A6052
:100DD00006E0334A243212688243314B24331A60CE
:100DE000704739B12E4A2C32126802432C4B2C33F7
:100DF0001A6006E02A4A2C3212688243284B2C33B0
:100E00001A60704739B1264A303212680243244BC7
:100E100030331A6006E0224A303212688243204B97
:100E200030331A607047012808D11D493C310968E8
:100E300041F008011A4A3C32116007E018493C3180
:100E4000096821F00801164A3C321160704739B137
:100E5000134A273A12780243114B273B1A7006E0D7
:100E60000F4A273A127882430D4B273B1A7070477E
:100E70000B484030006840F08070094940310860FC
:100E8000704701460020064A283A12680A400AB113
:100E9000012000E0002070470149263908707047A2
:100EA0003438024010B50446FB48844208D1012181
:100EB0008014FFF752FF0021A014FFF74EFF3CE023
:100EC000F648844208D101210014FFF735FF0021C4
:100ED0002014FFF731FF30E0F148844208D10121AE
:100EE000C013FFF729FF0021E013FFF725FF24E0DF
:100EF000EC48844208D101214014FFF72EFF002165
:100F00006014FFF72AFF18E0E748844209D1012165
:100F10000805FFF722FF00214FF48010FFF71DFFA7
:100F20000BE0E248844208D101214805FFF715FF94
:100F300000214FF40010FFF710FF10BD10B5002284
:100F4000028802F441520B884C8823438C88234347
:100F5000CC8823430C8923434C8923438C89234326
:100F6000CC8923431A430280838B4FF2FF742340C2
:100F700083830B8A038210BD2DE9F04F00250223E5
:100F800000244FF0010900220026002794469046D5
:100F9000B0F81CA04FF2400B0AEA0B0AA0F81CA004
:100FA0004FF0020AA0F820A0858BD1F808A0BAF172
:100FB000020F01D100BF82E0B1F804A0BAF1000F26
:100FC00002D14FF0010901E04FF00209DFF8E0A281
:100FD000DAF800A00AF4000ABAF1000F09D0DFF82D
:100FE000D0A2DAF800A02AF4000ADFF8C4B2CBF8E5
:100FF00000A0DFF8BCA20AF17C0ADAF800A0CAF36C
:10100000881CDFF8ACA20AF17C0ADAF800A0CAF367
:101010000278DFF89CA2AAF1040ADAF800A00AF02C
:101020003F07DFF88CA2AAF1040ADAF800A00AF45C
:10103000800ABAF5800F08D1DFF878A2BAFBF7FA78
:101040000AFB0CFABAFBF8F607E0DFF86CA2BAFB71
:10105000F7FA0AFB0CFABAFBF8F6B1F806A0BAF5F3
:10106000007F0ED14FEA162A0AEB8A0A4FEA4A0A93
:10107000D1F808B0BAFBFBFA0AF1050A1FFA8AF2A6
:101080000FE04FEA491AB6FBFAFA0AEB8A0A4FEA6E
:101090004A0AD1F808B0BAFBFBFA0AF1050A1FFAAE
:1010A0008AF24FF00A0AB2FBFAF202F00104A2EB54
:1010B000040ACAF34F034FF6FF7A0AEA0424022B0C
:1010C00001DBFF2B01DD02230024B1F806A04AEA70
:1010D000040A4AEA030AA0F820A0B1F804A0B1F873
:1010E0000CB04AEA0B0AB1F802B04AEA0B0AB1F8AE
:1010F00000B04AEA0B0A4AF4006A4AEA0505858309
:10110000BDE8F08F0021018041808180C180018194
:1011100041818181C18107210182704700210180C5
:1011200041808180C18002218160002181817047DE
:1011300021B1028842F04002028004E002884FF6AA
:10114000BF731A400280704721B1828B42F48062E3
:10115000828304E0828B4FF6FF331A40828370470C
:1011600002884FF2FF731A40028002880A4302800D
:101170007047B1F5804F04D1028842F4804202806A
:1011800004E002884BF6FF731A40028070474FF666
:10119000FF62914204D0028842F48072028004E02F
:1011A00002884FF6FF631A400280704721B182889F
:1011B00042F00402828004E082884FF6FB731A40FA
:1011C0008280704721B1828842F01002828004E060
:1011D00082884FF6EF731A408280704730B5002244
:1011E0000023848B4FF240052C4084830224048426
:1011F000828B0C88B4F5007F01D00C8814B94FF4B1
:10120000807308E00C88B4F5407F03D00C88B4F5F7
:10121000807F00D100238C888D892C434D882C43FE
:101220001C4344F400642243828330BD0146888914
:1012300070478181704721B1028842F400520280D8
:1012400004E002884DF6FF731A400280704701885F
:1012500041F480510180704702460020012901D0ED
:10126000108B00E0908A70470146088A70471AB1D7
:1012700083880B43838002E083888B43838070479D
:1012800030B5002400230C110125A540ABB2AAB152
:1012900085881D43858014E00030014000380040FF
:1012A000003C004000340140005001400054014027
:1012B0000838024000127A000024F40085889D431B
:1012C000858030BD0246002013890B400BB1012000
:1012D00000E000207047CA4302817047F0B5024623
:1012E000002000240023002501F00F070126BE4046
:1012F000B4B20B1101269E40B3B2968806EA0305EC
:101300001689264016B10DB1012000E00020F0BD85
:1013100010B5002201F00F040123A3409AB2D34379
:10132000038110BD10B50446FE48844208D1012156
:101330000846FFF712FD00210120FFF70EFD9DE09A
:10134000B4F1804F08D101210846FFF7F5FC0021D8
:101350000120FFF7F1FC91E0F348844208D101211C
:101360000220FFF7E9FC00210220FFF7E5FC85E001
:10137000EE48844208D101210420FFF7DDFC002162
:101380000420FFF7D9FC79E0E948844208D1012123
:101390000820FFF7D1FC00210820FFF7CDFC6DE00D
:1013A000E448844208D101211020FFF7C5FC002148
:1013B0001020FFF7C1FC61E0DF48844208D1012121
:1013C0002020FFF7B9FC00212020FFF7B5FC55E0F5
:1013D000DA48844208D101210220FFF7BEFC002137
:1013E0000220FFF7BAFC49E0D548844209D1012127
:1013F0000804FFF7B2FC00214FF48030FFF7ADFC8A
:101400003CE0D048844209D101214804FFF7A5FC03
:1014100000214FF40030FFF7A0FC2FE0CA488442BF
:1014200009D101218804FFF798FC00214FF48020A6
:10143000FFF793FC22E0C548844208D101214020F7
:10144000FFF77AFC00214020FFF776FC16E0C04849
:10145000844208D101218020FFF76EFC002180200A
:10146000FFF76AFC0AE0BB48844207D101218015DE
:10147000FFF762FC0021A015FFF75EFC10BD002203
:101480000288A84B98420ED0AC4B98420BD0B0F1DA
:10149000804F08D0A44B984205D0A44B984202D06C
:1014A000A34B984204D14FF68F731A404B881A43CE
:1014B000A04B984207D0A04B984204D04FF6FF4370
:1014C0001A400B891A4302804B68C3620B8803855C
:1014D000944B984202D0994B984201D18B7A038663
:1014E0000123838270474FF0FF314160002101806A
:1014F00001814180817270470185828270470A466E
:10150000002101884FF68F73194011430180704705
:1015100041627047C16270470146486A70470146A0
:10152000088D704721B1028842F00202028004E077
:1015300002884FF6FD731A400280704721B102887D
:1015400042F00402028004E002884FF6FB731A4066
:101550000280704721B1028842F08002028004E0DC
:1015600002884FF67F731A400280704702884FF658
:10157000F7731A40028002880A430280704702888B
:101580004FF6FF431A40028002880A4302807047E8
:1015900021B1028842F00102028004E002884FF685
:1015A000FE731A400280704770B5002400220023A9
:1015B000058C4FF6FE7635400584028C8388048BBB
:1015C0004FF68F752C40B51E2C400D882C43751E90
:1015D0002A408D892A434D882A43524DA84202D081
:1015E000564DA84213D14FF6F7752A40CD892A43AC
:1015F0004FF6FB752A408D882A434FF6FF652B4036
:101600004FF6FF552B400D8A2B434D8A2B43838089
:1016100004838D684563028470BD70B50024002288
:101620000023058C4FF6EF7635400584028C8388C5
:10163000048B48F6FF752C404FF6FF452C400D8873
:101640004FF6FF7606EA05252C434FF6DF752A4054
:101650008D8906EA05152A434D8806EA05152A43B1
:10166000304DA84202D0354DA8421DD14FF67F75AE
:101670002A40CD894FF6FF7606EA05152A434FF634
:10168000BF752A408D8806EA05152A434FF6FF35B7
:101690002B404FF2FF752B400D8A06EA85052B4340
:1016A0004D8A06EA85052B43838004838D68856314
:1016B000028470BD70B5002400220023058C4FF613
:1016C000FF6635400584028C8388848B4FF68F75C6
:1016D0002C404FF6FC752C400D882C434FF6FF55DF
:1016E0002A408D894FF6FF7606EA05252A434D8864
:1016F00006EA05252A430B4DA84202D00F4DA84209
:1017000038D14FF2FF752A40CD894FF6FF7606EAB1
:1017100005252A434FF6FF352A408D8806EA052520
:101720002A4319E000000140000400400008004086
:10173000000C004000100040001400400004014074
:1017400000400140004401400048014000180040B2
:10175000001C0040002000404EF6FF752B404DF667
:10176000FF752B400D8A06EA05152B434D8A06EAC4
:1017700005152B43838084838D68C563028470BD07
:1017800070B5002200230024058C4EF6FF7635400C
:101790000584038C8488828B48F6FF752A404FF6B7
:1017A000FF452A400D884FF6FF7606EA05252A43B5
:1017B0004DF6FF752B408D8906EA05352B434D8884
:1017C00006EA05352B43FE4DA84202D0FD4DA84246
:1017D00008D14BF6FF752C400D8A4FF6FF7606EACE
:1017E00085152C43848082838D680564038470BDD5
:1017F000002101804180818081608181C1810182DD
:101800004182704770B50346002000241846183006
:1018100001258D40ACB21D8CA5431D8409B108295A
:101820000AD100EB610005684FF68F763540056000
:101830000568154305600FE00D1FC5F34E052844EC
:10184000056848F6FF763540056005684FF6FF7677
:1018500006EA02263543056070BD41637047816327
:101860007047C1637047016470470A460021018BCD
:101870004FF68F7319401143018370470A460021C8
:10188000018B48F6FF7319404FF6FF7303EA0223FA
:101890001943018370470A460021818B4FF68F73ED
:1018A00019401143818370470A460021818B48F615
:1018B000FF7319404FF6FF7303EA02231943818334
:1018C00070470A460021018B4FF6F7731940114308
:1018D000018370470A460021018B4FF2FF731940C4
:1018E0004FF6FF7303EA02231943018370470A4648
:1018F0000021818B4FF6F7731940114381837047A4
:101900000A460021818B4FF2FF7319404FF6FF7397
:1019100003EA02231943818370470A460021018BA1
:101920004FF6FB7319401143018370470A460021AB
:10193000018B4FF6FF3319404FF6FF7303EA022382
:101940001943018370470A460021818B4FF6FB73D0
:1019500019401143818370470A460021818B4FF65D
:10196000FF3319404FF6FF7303EA022319438183C3
:1019700070470A460021018B4FF67F7319401143CF
:10198000018370470A460021018BC1F30E014FF617
:10199000FF7303EA02231943018370470A460021BB
:1019A000818B4FF67F7319401143818370470A463C
:1019B0000021818BC1F30E014FF6FF7303EA02236E
:1019C0001943818370470A460021018C4FF6FD734D
:1019D00019401143018470470A460021018C4FF6DB
:1019E000F77319401143018470470A460021018CA6
:1019F0004FF6DF7319404FF6FF7303EA02131943E2
:101A0000018470470A460021018C4FF67F7319400C
:101A10004FF6FF7303EA02131943018470470A4625
:101A20000021018C4FF6FF5319404FF6FF7303EA74
:101A300002231943018470470A460021018C4FF2AA
:101A4000FF7319404FF6FF7303EA02231943018421
:101A500070470A460021018C4DF6FF7319404FF67E
:101A6000FF7303EA023319430184704730B5002342
:101A700001248C40A3B2048C9C430484048C02FA9D
:101A800001F5ADB22C43048430BD30B500230424ED
:101A90008C40A3B2048C9C430484048C02FA01F5AC
:101AA000ADB22C43048430BD828B4FF2FF331A4019
:101AB0008283828B4FF6FF7303EA01231A438283EA
:101AC0007047F0B50C461546002100220026078C11
:101AD0004EF6FF7C07EA0C070784818B028C4FF6D9
:101AE000FF7707EA043640F6FF4739404FF6FF77A5
:101AF00007EA052739434FF6FF7707EA03373943EB
:101B000045F6FF773A4046F480573A438183028492
:101B1000F0BD828B4FF6F3731A408283828B0A43A7
:101B200082837047F0B50C4615460021002200263E
:101B3000078C4FF6FF6C07EA0C070784818B028C39
:101B40004FF6FF7707EA04264FF60C7739404FF639
:101B5000FF7707EA03172F4339434FF2FF573A4005
:101B600046F480773A4381830284F0BD028B4FF2C2
:101B7000FF331A400283028B4FF6FF7303EA0123FF
:101B80001A4302837047F0B50C4615460021002227
:101B90000026078C4FF6EF7C07EA0C070784018BC1
:101BA000028C4FF6FF7707EA041640F6FF473940EC
:101BB0004FF6FF7707EA033739434FF6FF7703E025
:101BC000000001400004014007EA052739434FF6B1
:101BD0005F773A4046F010073A4301830284F0BD34
:101BE000028B4FF6F3731A400283028B0A4302837F
:101BF0007047F0B50C46154600210022068C4FF6C2
:101C0000FE773E400684018B028C4FF60C76314005
:101C10007E1C06EA03162E4331434FF6F57632401A
:101C200044F00106324301830284F0BD70B50546DD
:101C30000C46208850B92389A28861882846FFF77E
:101C4000D8FFE1882846FFF7CBFF25E0208804284D
:101C50000AD12389A28861882846FFF794FFE1888A
:101C60002846FFF783FF17E0208808280AD1238938
:101C7000A28861882846FFF755FFE1882846FFF7CC
:101C800048FF09E02389A28861882846FFF719FFE9
:101C9000E1882846FFF708FF70BD002101804180E0
:101CA000012181800021C180018170472DE9F0412F
:101CB00005460C4600260127608808B9022600E088
:101CC0000026A088012801D1022700E001272088F2
:101CD000A0B92389A28861882846FFF78AFFE18896
:101CE0002846FFF77DFF23893A4631462846FFF70D
:101CF0004AFFE1882846FFF739FF13E02389A288CD
:101D000061882846FFF73FFFE1882846FFF72EFF4E
:101D100023893A4631462846FFF76BFFE18828467B
:101D2000FFF75EFFBDE8F0810146486B7047014652
:101D3000886B70470146C86B70470146086C704756
:101D40000A884B881A438B881A43CB881A430B891D
:101D50001A434B891A438B891A43A0F844207047D1
:101D60000021018041808180C18001814181818188
:101D7000704731B1B0F8442042F40042A0F844204A
:101D800005E0B0F84420C2F30E02A0F844207047EA
:101D900021B1828842F00402828004E082884FF6FA
:101DA000FB731A408280704721B1828842F00102A1
:101DB000828004E082884FF6FE731A40828070476A
:101DC0001AB183890B43838102E083898B4383812A
:101DD00070478182704702460020138A0B400BB186
:101DE000012000E000207047CA430282704730B5EE
:101DF0000246002000230024158A05EA0103958984
:101E000005EA010413B10CB1012000E0002030BD4F
:101E1000CA430282704741EA0203A0F84830704783
:101E20001AB183890B43838102E083898B438381C9
:101E3000704721B1828842F00802828004E08288E3
:101E40004FF6F7731A408280704701894FF6F87297
:101E50001140018170470A46002101894FF68F73B6
:101E6000194011430181704730B504460D4629469B
:101E70002046FFF7F0FF208940F00700208130BDA9
:101E80002DE9F04104460D4616461F46602D06D149
:101E90003B46012231462046FFF775FE05E03B46F2
:101EA000012231462046FFF7A4FE29462046FFF7CF
:101EB000D2FF208940F007002081BDE8F08130B5D5
:101EC0000C4600210189C9B24FF6FF7505EA0325CA
:101ED000154325432943018130BD2DE9F0410546D5
:101EE0000E4617469846002443463A463146284651
:101EF000FFF7E5FF2C894FF6F870044044F0070423
:101F00004FF68F70044044F070042C81BDE8F081DE
:101F1000F0B504460D4616461F463B463246294656
:101F20002046FFF7CCFF208940F480402081F0BD9F
:101F300082884FF68F731A40828082880A4382809B
:101F4000704702894FF6F8731A40028102890A43EA
:101F50000281704702894FF67F731A40028102891D
:101F60000A4302817047F0B50C4615461E46002113
:101F7000002200230189028B038C4FF6F877394049
:101F800021434FF6FC473A4040F201173A434FF6DF
:101F9000DD773B404FF6FF7707EA06172F433B43B9
:101FA000018102830384F0BD21B1828842F0800266
:101FB000828004E082884FF67F731A4082807047E7
:101FC000A0F850107047000010B50446FA4884424B
:101FD00008D101211020FEF7C0FE00211020FEF7DD
:101FE000BCFE57E0F548844209D101214804FEF7C0
:101FF000A3FE00214FF40030FEF79EFE4AE0F048B9
:10200000844209D101218804FEF796FE00214FF495
:102010008020FEF791FE3DE0EA48844209D101218B
:10202000C804FEF789FE00214FF40020FEF784FE6D
:1020300030E0E548844209D101210805FEF77CFE25
:1020400000214FF48010FEF777FE23E0DF48844242
:1020500008D101212020FEF780FE00212020FEF77C
:102060007CFE17E0DA48844209D101218807FEF797
:1020700063FE00214FF08040FEF75EFE0AE0D54887
:10208000844207D101214005FEF756FE002160057C
:10209000FEF752FE10BD2DE9FF4705460E4600240F
:1020A000A14600BFA046B08900B100BF2C8A24F42D
:1020B0004054F08804432C82AC8941F20C60844384
:1020C000B08831890843718908430443AC81AC8AE4
:1020D00024F44074B0890443AC826846FEF7BDFC2A
:1020E000B548854202D0B948854202D1DDF80C904E
:1020F00001E0DDF80890A88900F4004040B109EB48
:10210000C90000EB091031684900B0FBF1F707E0A6
:1021100009EBC90000EB091031688900B0FBF1F749
:102120006420B7FBF0F004012009642101FB107862
:10213000A88900F4004040B1322000EBC800B0FB99
:10214000F1F000F00700044308E0322000EB081033
:102150006421B0FBF1F000F00F0004432C81BDE8D6
:10216000FF874FF41651016000218180C1800181F9
:102170000C21418100218181704710B50246002069
:10218000108A20F470600B884C8823438C8823438A
:10219000CC8823431843108210BD00210180418068
:1021A0008180C180704721B1828942F400528281CE
:1021B00004E082894DF6FF731A4082817047028BDA
:1021C00002F47F420283028B0A430283704721B1EB
:1021D000828942F40042828103E08289C2F30E02C6
:1021E0008281704721B1828A42F40062828204E0D7
:1021F000828A4FF2FF731A4082827047C1F308024D
:102200008280704701468888C0F308007047028AC0
:102210004FF6F0731A400282028A0A430282704724
:1022200021B1828942F00202828104E082894FF664
:10223000FD731A408281704782894FF2FF731A4002
:10224000828182890A4382817047028A4FF6DF7356
:102250001A400282028A0A430282704721B1028A2E
:1022600042F48042028204E0028A4BF6FF731A4075
:1022700002827047818941F001018181704721B15B
:10228000828A42F00802828204E0828A4FF6F77363
:102290001A4082827047028BD2B20283028B42EADA
:1022A00001220283704721B1828A42F02002828299
:1022B00004E0828A4FF6DF731A408282704721B1B0
:1022C000828A42F01002828204E0828A4FF6EF7323
:1022D0001A4082827047828A4FF6FB731A408282CC
:1022E000828A0A438282704721B1828A42F00202C6
:1022F000828204E0828A4FF6FD731A408282704720
:102300001AB1838A0B43838202E0838A8B438382E0
:102310007047F0B50346002400260025002040F653
:102320006A17B94200D100BF1846C1F3421401F048
:102330001F06012707FA06F5012C01D10C3004E035
:10234000022C01D1103000E014301AB107682F437D
:10235000076002E00768AF430760F0BD0246002057
:10236000B1F5007F00D100BF13880B400BB10120F5
:1023700000E00020704701F40072B2F5007F00D148
:1023800000BFCA430280704770B502460024002394
:102390000025002040F66A16B14200D100BFC1F30B
:1023A000421501F01F03012606FA03F3012D13D194
:1023B0009689334017E000000010014000440040BF
:1023C00000480040004C0040005000400014014014
:1023D00000780040007C0040022D02D1168A334074
:1023E00001E0968A33400C12012606FA04F416889E
:1023F000344013B10CB1012000E0002070BD10B5D5
:102400000022002340F66A14A14200D100BF0A1244
:1024100001249440A3B2DC43048010BD10B50446EF
:102420006FF00400FEF7A8F8E11704EB5171C1F357
:10243000C701394A11701046007800EB4001C1EB2A
:10244000C0104FF6FF7101EAC0003449088010BD8A
:102450000146314A12784A434FF0E0235A61002284
:102460009A611A46126942F001021A6100BF4FF0E8
:10247000E022106900F001021AB100F48032002A53
:10248000F5D04FF0E022126922F001024FF0E02374
:102490001A6100229A6170470146204A12884A4315
:1024A0004FF0E0235A6100229A611A46126942F005
:1024B00001021A6100BF4FF0E022106900F0010232
:1024C0001AB100F48032002AF5D04FF0E0221269F0
:1024D00022F001024FF0E0231A6100229A61704756
:1024E00070B504464FF4077094FBF0F0C6B24FF499
:1024F000077094FBF0F100FB114085B205E04FF44A
:102500000770FFF7C9FF701EC6B2002EF7D115B1D4
:102510002846FFF7C1FF70BD280000202A000020D8
:1025200010B5A820FFF77AFF4FF48060FDF7D2FFC7
:1025300002F0DCFB02F0E6FF00F016F800F096F87F
:10254000074802F0C7FC02F054F9642002F023FCB3
:1025500000200449086002F0A0FC012010BD00002A
:1025600020A10700A48242421CB501211120FEF7E0
:1025700045FB1C20009000208DF8040003208DF8FE
:10258000050001208DF8070069463548FEF798F8E8
:102590000120009002208DF8070069463148FEF7BF
:1025A0008FF81CBD10B5044614B101202E490870E7
:1025B0002D480078002837D010212948FEF7E2F88E
:1025C00078B108212648FEF7DDF850B104212448EF
:1025D000FEF7D8F828B101212248FEF7D3F80128E8
:1025E00022D10A20FFF77CFF00201F49087010212C
:1025F0001B48FEF7C7F808B9012010BD082118488C
:10260000FEF7C0F808B90220F7E704211448FEF7E6
:10261000B9F808B90320F0E701211248FEF7B2F833
:1026200001281BD10420E8E710210D48FEF7AAF885
:10263000012813D108210A48FEF7A4F801280DD17A
:1026400004210748FEF79EF8012807D1012105481B
:10265000FEF798F810B90120034908700020CCE774
:1026600000100240000002402C0000201CB5012197
:102670002020FEF7C3FA4FF4C060009001208DF8CF
:10268000040000208DF8060003208DF805000120CD
:102690008DF8070069460448FEF712F84FF4C06150
:1026A0000148FEF789F81CBD001402406648C08945
:1026B000401C6549C88108468088401C00B288805B
:1026C0000846C088401C00B2C88008460089401CEB
:1026D00000B2088108464089401C00B24881084683
:1026E0008089401C00B2888108460078012804D106
:1026F00008464078401C487002E0012052490870AA
:10270000704710B5012002F091FB00F08BFB10BD6B
:1027100010B52DED028B002002F088FBDFED4B0A97
:1027200080EE201AB0EE418A02F011FB00EE100A92
:10273000B8EE400ADFED450A80EE201A444880EDED
:10274000001A4448B0EE480A02F08AF802F0FFFA94
:1027500000EE100AB8EE400ADFED3C0A80EE201AC7
:102760003B4880ED011ABDEC028B10BD10B52DED7C
:10277000028B022002F05AFBDFED340A80EE201AB1
:10278000B0EE418A02F0E3FA00EE100AB8EE400A19
:10279000DFED2E0A80EE201A2D4880ED021A02F09D
:1027A000D6FA00EE100AB8EE400ADFED280A80EEF5
:1027B000201A274880ED031ABDEC028B10BD70472C
:1027C0007047704710B52048007801283BD1224857
:1027D000008800B221490880FFF793FF1A48B0F93A
:1027E0000400022804DB002017498880FFF790FFCF
:1027F0001548B0F90600052804DB00201249C880FE
:10280000FFF7B4FF1048B0F908000A2804DB0020E5
:102810000D490881FFF7D3FF0B48B0F90A001428CF
:1028200004DB002008494881FFF7CAFF0648B0F9D9
:102830000C00322804DB002003498881FFF7C1FF28
:1028400000200149087010BDCC000020002474490C
:10285000DC000020782600209400002030000020BA
:1028600070B505460C462146FE4802F0E2FB70BDFD
:1028700070B504460D46AA20FA4908704870EF204A
:1028800088700220C8700846047145710026002037
:1028900005E0F449095C3144CEB2411CC8B20628B7
:1028A000F7DBF04886710721FFF7DAFF70BD70B5DE
:1028B0002DED0A8B82B00546B0EE408AF0EE608ABC
:1028C000B0EE419AF0EE619AB0EE42AAF0EE62AA42
:1028D000B0EE43BAF0EE63BAB0EE44CA0024AA22C6
:1028E0002146641CDF4842542146641C425405F1D1
:1028F0000F00C2B22146641CDA484254002221462D
:10290000641C42549FEDD80A28EE000ABDEEC00AAE
:1029100010EE100A00B201909DF805202146641CBB
:10292000D04842549DF804202146641C42549FED37
:10293000CE0A28EE800ABDEEC00A10EE100A00B2E0
:1029400001909DF805202146641CC64842549DF81C
:1029500004202046611CCCB2C2490A549FEDC20A31
:1029600029EE000ABDEEC00A10EE100A00B2019076
:102970009DF805202046611CCCB2BA490A549DF846
:1029800004202046611CCCB2B6490A549FEDB60A19
:1029900029EE800ABDEEC00A10EE100A00B20190C6
:1029A0009DF805202046611CCCB2AE490A549DF822
:1029B00004202046611CCCB2AA490A549FEDAA0A01
:1029C0002AEE000ABDEEC00A10EE100A00B2019015
:1029D0009DF805202046611CCCB2A2490A549DF8FE
:1029E00004202046611CCCB29E490A549FED9E0AE9
:1029F0002AEE800ABDEEC00A10EE100A00B2019065
:102A00009DF805202046611CCCB296490A549DF8D9
:102A100004202046611CCCB292490A549FED920AD0
:102A20002BEE000ABDEEC00A10EE100A00B20190B3
:102A30009DF805202046611CCCB28A490A549DF8B5
:102A400004202046611CCCB286490A549FED860AB8
:102A50002BEE800ABDEEC00A10EE100A00B2019003
:102A60009DF805202046611CCCB27E490A549DF891
:102A700004202046611CCCB27A490A549FED7A0AA0
:102A80002CEE000ABDEEC00A10EE100A00B2019052
:102A90009DF805202046611CCCB272490A549DF86D
:102AA00004202046611CCCB26E490A54201FC87015
:102AB0000026002005E06B49095C3144CEB2411C80
:102AC000C8B2A042F7DB2046611CCCB265490E5467
:102AD00021466448FFF7C4FE02B0BDEC0A8B70BD0E
:102AE0007FB50024AA222146641C5E484254214638
:102AF000641C425403222146641C42540022214695
:102B0000641C42549DF801202146641C42549DF8E7
:102B100000202146641C42549DF805202146641C77
:102B200042549DF804202046611CCCB24D490A5401
:102B30009DF809202046611CCCB24A490A549DF8F0
:102B400008202046611CCCB246490A549DF80D204D
:102B50002046611CCCB243490A549DF80C20204603
:102B6000611CCCB23F490A549DF821202046611CCB
:102B7000CCB23C490A549DF820202146601CC4B2C6
:102B8000384842549DF825202046611CCCB2354976
:102B90000A549DF824202046611CCCB231490A54C5
:102BA0009DF829202046611CCCB22E490A549DF87C
:102BB00028202046611CCCB22A490A549DF82D20B9
:102BC0002046611CCCB227490A549DF82C2020468F
:102BD000611CCCB223490A549DF831202046611C67
:102BE000CCB220490A549DF830202046611CCCB25A
:102BF0001C490A549DF835202046611CCCB2194965
:102C00000A549DF834202046611CCCB215490A5460
:102C1000201FC8700025002005E01249095C2944E6
:102C2000CDB2411CC8B2A042F7DB2046611CCCB239
:102C30000C490D5421460B48FFF712FE7FBD2DE9CC
:102C4000FF4F81B005461E46DDE910ABDDE90E8978
:102C500000240027AA222146641C0248425421462F
:102C6000641C03E00401002000007A44425405F192
:102C7000F000C2B22146641CFE48425400222146A4
:102C8000641C4254029800B200909DF80B2021462B
:102C9000641CF84842549DF80A202146641C4254A2
:102CA0009DF809202146641C42549DF808202146C5
:102CB000601CC4B2EF484254039800B200909DF8E3
:102CC0000F202046611CCCB2EA490A549DF80E2020
:102CD0002046611CCCB2E7490A549DF80D202046DD
:102CE000611CCCB2E3490A549DF80C202046611CBB
:102CF000CCB2E0490A5400969DF801202046611CA0
:102D0000CCB2DC490A549DF800202046611CCCB2AC
:102D1000D8490A54CDF800809DF801202046611C56
:102D2000CCB2D4490A549DF800202146601CC4B29C
:102D3000D0484254CDF800909DF801202046611CF7
:102D4000CCB2CC490A549DF800202046611CCCB27C
:102D5000C8490A54CDF800A09DF801202046611C06
:102D6000CCB2C4490A549DF800202046611CCCB264
:102D7000C0490A54CDF800B09DF801202046611CDE
:102D8000CCB2BC490A549DF800202146601CC4B254
:102D9000B8484254129800909DF801202046611CCA
:102DA000CCB2B4490A549DF800202046611CCCB234
:102DB000B0490A54139800909DF801202046611CE8
:102DC000CCB2AC490A549DF800202046611CCCB21C
:102DD000A8490A54149800909DF801202046611CCF
:102DE000CCB2A4490A549DF800202046611CCCB204
:102DF000A0490A54201FC870002005E09D49095CC5
:102E00003944CFB2411CC8B2A042F7DB2046611C56
:102E1000CCB298490F5421469648FFF721FD05B0E2
:102E2000BDE8F08F10B588B09348007893490978D1
:102E300090FBF1F201FB120190480078801E814264
:102E400002D101208E4948748B4800788D49097859
:102E500090FBF1F201FB12018A480078401E81428A
:102E600002D1012086494873834800788649097851
:102E700090FBF1F201FB120183480078801E814231
:102E800002D101207E49C8737B480078401CC0B243
:102E900079490870C82801DD0020087078488078DA
:102EA00048B10020764988707848017878480078E1
:102EB000FFF7DEFC8BE17248407CE8B100207049EE
:102EC00048740A20092108220723CDE90332CDE9FD
:102ED0000510062005210422CDE9002102906D484D
:102EE00090ED000ABDEEC00A10EE101A0323022274
:102EF0000120FFF7A4FE6AE16148407BA8B30020EF
:102F00005F49487340F2DC526348C08900F2DC50EC
:102F100080B26149898901F2DC5189B2CDE90302AD
:102F20005D4805920291408900F2DC5080B25A4916
:102F3000098901F2DC5189B2574CCDE9001064884F
:102F400004F2DC54A3B2544C248804F2DC54A2B240
:102F5000514CE48804F2DC54A1B24F4CA48804F232
:102F6000DC54A0B2FFF7BCFD31E1FFE74448C07973
:102F700058B300204249C8714848D0ED094AB0EE24
:102F8000644AD0ED0A4AF0EE643AD0ED084AB0EE59
:102F9000643AD0ED054AF0EE642AD0ED064AB0EE70
:102FA000642AD0ED044AF0EE641AD0ED014AB0EE86
:102FB000641AD0ED024AF0EE640AD0ED004AB0EE99
:102FC000640A0120FFF773FC01E12D48007A58B331
:102FD00000202B4908723148D0ED154AB0EE644A02
:102FE000D0ED164AF0EE643AD0ED144AB0EE643AF1
:102FF000D0ED114AF0EE642AD0ED124AB0EE642A08
:10300000D0ED104AF0EE641AD0ED0D4AB0EE641A1D
:10301000D0ED0E4AF0EE640AD0ED0C4AB0EE640A30
:103020000220FFF744FCD2E01548407AC0B30020EC
:10303000134948721948D0ED214AB0EE644AD0EDE8
:10304000224AF0EE643AD0ED204AB0EE643AD0ED78
:103050001D4AF0EE642AD0ED1E4AB0EE642AD0ED8F
:103060001C4AF0EE641AD0ED194AB0EE641AD0EDA5
:103070001A4A16E0040100203C0000203D00002018
:10308000F00000203E0000203F000020390000201A
:10309000380000207C2300204C230020B8010020B1
:1030A00009E0F0EE640AD0ED184AB0EE640A03209D
:1030B000FFF7FDFB8BE0FE48807A58B30020FC4907
:1030C0008872FC48D0ED2D4AB0EE644AD0ED2E4A0D
:1030D000F0EE643AD0ED2C4AB0EE643AD0ED294AD5
:1030E000F0EE642AD0ED2A4AB0EE642AD0ED284AE8
:1030F000F0EE641AD0ED254AB0EE641AD0ED264AFF
:10310000F0EE640AD0ED244AB0EE640A0420FFF722
:10311000CEFB5CE0E648C07A58B30020E449C872B0
:10312000E448D0ED394AB0EE644AD0ED3A4AF0EEC8
:10313000643AD0ED384AB0EE643AD0ED354AF0EE5C
:10314000642AD0ED364AB0EE642AD0ED344AF0EE6F
:10315000641AD0ED314AB0EE641AD0ED324AF0EE86
:10316000640AD0ED304AB0EE640A0520FFF79FFBF9
:103170002DE0CF48007B50B30020CD490873CD48E7
:10318000D0ED454AB0EE644AD0ED464AF0EE643ADE
:10319000D0ED444AB0EE643AD0ED414AF0EE642AF4
:1031A000D0ED424AB0EE642AD0ED404AF0EE641A07
:1031B000D0ED3D4AB0EE641AD0ED3E4AF0EE640A1E
:1031C000D0ED3C4AB0EE640A0620FFF770FB08B071
:1031D00010BD03B587B00020069005900AE0059960
:1031E0000798415C06980844C0B206900598401CB8
:1031F000C0B205900898401E05998842EFDCDDE9D1
:103200000701084410F8011C0698814201D009B05A
:1032100000BD07980078AA2803D107984078AF2806
:1032200000D0F4E707988078012818D10798007932
:10323000012814D007980079022810D00798007947
:1032400003280CD007980079042808D00798007943
:10325000212803DB07980079262800DD00BF0798A6
:103260008078022817D107980079012806D1904963
:10327000C871087248728872C8720873079800791A
:10328000A02802D101208A49C87007980079A12896
:1032900001D101F0A9F907988078032846D1864822
:1032A0000078012802D0022001F013FD0798007970
:1032B0000799497941EA00208049888007988079F8
:1032C0000799C97941EA00207C49C8800798007AAB
:1032D0000799497A41EA0020784908800798807A5E
:1032E0000799C97A41EA0020744948800798007B11
:1032F0000799497B41EA0020704908810798807B43
:103300000799C97B41EA00206C4948810798007CF5
:103310000799497C41EA0020684988810798807CA8
:103320000799C97C41EA00206449C88107988078E0
:1033300010287CD107980079000200B207994979DA
:103340000843019005F0E9F89FED5D0B53EC102B5D
:10335000CDE902019DED020B51EC100B05F0F4F8E4
:10336000CDE904019DED040B51EC100B05F0A4F820
:103370005049086007988079000200B20799C9791E
:103380000843019005F0C9F89FED4D0B53EC102B4D
:10339000CDE902019DED020B51EC100B05F0D4F8C4
:1033A000CDE904019DED040B51EC100B05F084F800
:1033B000404988600798007A000200B20799497A6C
:1033C0000843019005F0A9F89FED3D0B53EC102B3D
:1033D000CDE902019DED020B51EC100B05F0B4F8A4
:1033E000CDE904019DED040B51EC100B05F064F8E0
:1033F000304948600798807A000200B20799C97A7C
:103400000843019005F089F89FED2D0B53EC102B2C
:10341000CDE902019DED020B51EC100B05F094F883
:10342000CDE904019DED040B51EC100B00E0C3E06D
:1034300005F042F81F4908610798007B000200B2BE
:103440000799497B0843019005F067F89FED1C0B35
:1034500053EC102BCDE902019DED020B51EC100B4A
:1034600005F072F8CDE904019DED040B51EC100B51
:1034700005F022F80F4988610798807B000200B2AE
:103480000799C97B0843019005F047F89FED0C0BA5
:1034900053EC102BCDE902019DED020B51EC100B0A
:1034A00005F052F8CDE904019DED040B0CE000009D
:1034B000F0000020B80100204D000020360100205F
:1034C000FCA9F1D24D62503F51EC100B04F0F4FF17
:1034D000FD4948610798007C000200B20799497CC9
:1034E0000843019005F019F81FED0B0B53EC102B5E
:1034F000CDE902019DED020B51EC100B05F024F813
:10350000CDE904019DED040B51EC100B04F0D4FF48
:10351000ED4908620798807C000200B20799C97CD7
:103520000843019004F0F9FF1FED1B0B53EC102B27
:10353000CDE902019DED020B51EC100B05F004F8F2
:10354000CDE904019DED040B51EC100B04F0B4FF28
:10355000DD4988620798007D000200B20799497D25
:103560000843019004F0D9FF1FED2B0B53EC102BF7
:10357000CDE902019DED020B51EC100B04F0E4FFCC
:10358000CDE904019DED040B51EC100B04F094FF08
:10359000CD494862CD48807848B90120CB49887030
:1035A00007988078CA490870CA490698087001F0DF
:1035B0001FF90120C84908800798807811287CD11C
:1035C00007980079000200B20799497908430190F1
:1035D00004F0A3FF1FED460B53EC102BCDE90201C5
:1035E0009DED020B51EC100B04F0AEFFCDE9040190
:1035F0009DED040B51EC100B04F05EFFB249086323
:1036000007988079000200B20799C97908430190B0
:1036100004F083FF1FED560B53EC102BCDE9020194
:103620009DED020B51EC100B04F08EFFCDE904016F
:103630009DED040B51EC100B04F03EFFA249886392
:103640000798007A000200B20799497A084301906E
:1036500004F063FF1FED660B53EC102BCDE9020164
:103660009DED020B51EC100B04F06EFFCDE904014F
:103670009DED040B51EC100B04F01EFF92494863C2
:103680000798807A000200B20799C97A084301902E
:1036900004F043FF1FED760B53EC102BCDE9020134
:1036A0009DED020B51EC100B04F04EFFCDE904012F
:1036B0009DED040B51EC100B00E0B5E004F0FCFEB6
:1036C000814908640798007B000200B20799497B92
:1036D0000843019004F021FF1FED870B53EC102BE2
:1036E000CDE902019DED020B51EC100B04F02CFF13
:1036F000CDE904019DED040B51EC100B04F0DCFE50
:10370000714988640798807B000200B20799C97BE1
:103710000843019004F001FF1FED970B53EC102BB1
:10372000CDE902019DED020B51EC100B04F00CFFF2
:10373000CDE904019DED040B51EC100B04F0BCFE2F
:10374000614948640798007C000200B20799497CEF
:103750000843019004F0E1FE1FEDA70B53EC102B82
:10376000CDE902019DED020B51EC100B04F0ECFED3
:10377000CDE904019DED040B51EC100B04F09CFE0F
:10378000514908650798807C000200B20799C97CFE
:103790000843019004F0C1FE1FEDB70B53EC102B52
:1037A000CDE902019DED020B51EC100B04F0CCFEB3
:1037B000CDE904019DED040B51EC100B04F07CFEEF
:1037C000414988650798007D000200B20799497D4C
:1037D0000843019004F0A1FE1FEDC70B53EC102B22
:1037E000CDE902019DED020B51EC100B04F0ACFE93
:1037F000CDE904019DED040B51EC100B04F05CFECF
:10380000314948653148807848B901202F4988708E
:10381000079880782E4908702E490698087000F0A5
:10382000E7FF01202C4908800798807812287CD176
:1038300007980079000200B207994979084301907E
:1038400004F06BFE1FEDE20B53EC102BCDE90201EF
:103850009DED020B51EC100B04F076FECDE9040156
:103860009DED040B51EC100B04F026FE1649086682
:1038700007988079000200B20799C979084301903E
:1038800004F04BFE1FEDF20B53EC102BCDE90201BF
:103890009DED020B51EC100B04F056FECDE9040136
:1038A0009DED040B51EC100B04F006FE06498866F2
:1038B0000798007A000200B20799497A08430190FC
:1038C00004F02BFE0AE00000B8010020F000002008
:1038D00038000020390000203A0000209FEDFE0B48
:1038E00053EC102BCDE902019DED020B51EC100BB6
:1038F00004F02AFECDE904019DED040B51EC100B00
:1039000004F0DAFDF64948660798807A000200B2B2
:103910000799C97A0843019004F0FFFD9FEDEE0B73
:1039200053EC102BCDE9020100E0C4E09DED020B49
:1039300051EC100B04F008FECDE904019DED040BE1
:1039400051EC100B04F0B8FDE54908670798007BBF
:10395000000200B20799497B0843019004F0DDFDA5
:103960009FEDDD0B53EC102BCDE902019DED020B19
:1039700051EC100B04F0E8FDCDE904019DED040BC2
:1039800051EC100B04F098FDD54988670798807BAF
:10399000000200B20799C97B0843019004F0BDFD05
:1039A0009FEDCD0B53EC102BCDE902019DED020BE9
:1039B00051EC100B04F0C8FDCDE904019DED040BA2
:1039C00051EC100B04F078FDC54948670798007C5E
:1039D000000200B20799497C0843019004F09DFD64
:1039E0009FEDBD0B53EC102BCDE902019DED020BB9
:1039F00051EC100B04F0A8FDCDE904019DED040B82
:103A000051EC100B04F058FDB549C1F8800007983F
:103A1000807C000200B20799C97C0843019004F041
:103A20007CFD9FEDAD0B53EC102BCDE902019DED1C
:103A3000020B51EC100B04F087FDCDE904019DED64
:103A4000040B51EC100B04F037FDA549C1F88800B8
:103A50000798007D000200B20799497D0843019054
:103A600004F05BFD9FED9C0B53EC102BCDE90201A4
:103A70009DED020B51EC100B04F066FDCDE9040145
:103A80009DED040B51EC100B04F016FD9449C1F8A8
:103A900084009448807848B901209249887007983A
:103AA00080789149087091490698087000F0A0FE4E
:103AB00001208F4908800798807813287DD10798C6
:103AC0000079000200B2079949790843019004F097
:103AD00024FD9FED810B53EC102BCDE902019DEDF0
:103AE000020B51EC100B04F02FFDCDE904019DED0C
:103AF000040B51EC100B04F0DFFC7949C1F8900085
:103B000007988079000200B20799C97908430190AB
:103B100004F003FD9FED700B53EC102BCDE9020177
:103B20009DED020B51EC100B04F00EFDCDE90401EC
:103B30009DED040B51EC100B04F0BEFC6849C1F87C
:103B400098000798007A000200B20799497A084362
:103B5000019004F0E2FC9FED600B53EC102BCDE9DB
:103B600002019DED020B51EC100B04F0EDFCCDE9D0
:103B700004019DED040B51EC100B04F09DFC584921
:103B8000C1F894000798807A000200B20799C97AB8
:103B90000843019004F0C1FC9FED4F0B53EC102B38
:103BA000CDE902019DED020B51EC100B04F0CCFCB1
:103BB000CDE904019DED040B00E0CCE051EC100BCD
:103BC00004F07AFC4649C1F8A0000798007B000287
:103BD00000B20799497B0843019004F09EFC9FEDD9
:103BE0003E0B53EC102BCDE902019DED020B51EC85
:103BF000100B04F0A9FCCDE904019DED040B51EC80
:103C0000100B04F059FC3649C1F8A8000798807BD6
:103C1000000200B20799C97B0843019004F07DFCC3
:103C20009FED2D0B53EC102BCDE902019DED020B06
:103C300051EC100B04F088FCCDE904019DED040B60
:103C400051EC100B04F038FC2549C1F8A40007988A
:103C5000007C000200B20799497C0843019004F0FF
:103C60005CFC9FED1D0B53EC102BCDE902019DED8B
:103C7000020B51EC100B04F067FCCDE904019DED43
:103C8000040B51EC100B04F017FC1549C1F8B000FF
:103C90000798807C000200B20799C97C0843019014
:103CA00004F03BFC9FED0C0B53EC102BCDE9020113
:103CB0009DED020B51EC100B04F046FCCDE9040124
:103CC0009DED040B51EC100B04F0F6FB0449C1F818
:103CD000B8000798007D0DE0FCA9F1D24D62503F7D
:103CE000B8010020F000002038000020390000203A
:103CF0003A000020000200B20799497D0843019074
:103D000004F00BFC1FED0C0B53EC102BCDE9020162
:103D10009DED020B51EC100B04F016FCCDE90401F3
:103D20009DED040B51EC100B04F0C6FBFE49C1F8ED
:103D3000B400FE48807848B90120FC498870079893
:103D40008078FB490870FB490698087000F050FD28
:103D50000120F94908800798807814287DD10798B8
:103D60000079000200B2079949790843019004F0F4
:103D7000D4FB1FED270B53EC102BCDE902019DED79
:103D8000020B51EC100B04F0DFFBCDE904019DEDBB
:103D9000040B51EC100B04F08FFBE349C1F8C00099
:103DA00007988079000200B20799C9790843019009
:103DB00004F0B3FB1FED380B53EC102BCDE90201DF
:103DC0009DED020B51EC100B04F0BEFBCDE904019C
:103DD0009DED040B51EC100B04F06EFBD249C1F8C1
:103DE000C8000798007A000200B20799497A084390
:103DF000019004F092FB1FED480B53EC102BCDE922
:103E000002019DED020B51EC100B04F09DFBCDE97E
:103E100004019DED040B51EC100B04F04DFBC24965
:103E2000C1F8C4000798807A000200B20799C97AE5
:103E30000843019004F071FB1FED590B53EC102B5C
:103E4000CDE902019DED020B51EC100B04F07CFB5F
:103E5000CDE904019DED040B00E0B8E051EC100B3E
:103E600004F02AFBB049C1F8D0000798007B00029B
:103E700000B20799497B0843019004F04EFB1FED07
:103E80006A0B53EC102BCDE902019DED020B51ECB6
:103E9000100B04F059FBCDE904019DED040B51EC2E
:103EA000100B04F009FBA049C1F8D8000798807BEB
:103EB000000200B20799C97B0843019004F02DFB72
:103EC0001FED7B0B53EC102BCDE902019DED020B96
:103ED00051EC100B04F038FBCDE904019DED040B0F
:103EE00051EC100B04F0E8FA8F49C1F8D4000798A0
:103EF000007C000200B20799497C0843019004F05D
:103F00000CFB1FED8B0B53EC102BCDE902019DED4B
:103F1000020B51EC100B04F017FBCDE904019DEDF1
:103F2000040B51EC100B04F0C7FA7F49C1F8E00014
:103F30000798807C000200B20799C97C0843019071
:103F400004F0EBFA1FED9C0B53EC102BCDE90201B2
:103F50009DED020B51EC100B04F0F6FACDE90401D3
:103F60009DED040B51EC100B04F0A6FA6E49C1F85C
:103F7000E8000798007D000200B20799497D0843D8
:103F8000019004F0CAFA1FEDAC0B53EC102BCDE9F5
:103F900002019DED020B51EC100B04F0D5FACDE9B6
:103FA00004019DED040B51EC100B04F085FA5E4901
:103FB000C1F8E4005D48807848B901205B49887009
:103FC000079880785A4908705A49069808700798E7
:103FD000807815287DD107980079000200B20799F2
:103FE00049790843019004F098FA1FEDC50B53EC92
:103FF000102BCDE902019DED020B51EC100B04F0EA
:10400000A3FACDE904019DED040B51EC100B04F073
:1040100053FA4549C1F8F00007988079000200B2D0
:104020000799C9790843019004F077FA1FEDD60B80
:1040300053EC102BCDE902019DED020B51EC100B5E
:1040400004F082FACDE904019DED040B51EC100B54
:1040500004F032FA3449C1F8F8000798007A0002F7
:1040600000B20799497A0843019004F056FA1FED0F
:10407000E60B53EC102BCDE902019DED020B51EC48
:10408000100B04F061FACDE904019DED040B51EC35
:10409000100B04F011FA2449C1F8F4000798807A53
:1040A000000200B20799C97A0843019004F035FA7A
:1040B0001FEDF70B53EC102BCDE902019DED020B28
:1040C00051EC100B04F040FACDE904019DED040B16
:1040D00000E0C8E051EC100B04F0EEF91249C1F811
:1040E00000010798007B000200B20799497B084352
:1040F000019004F012FA9FED110B53EC102BCDE957
:1041000002019DED020B51EC100B04F01DFACDE9FC
:1041100004019DED040B51EC100B04F0CDF90146A8
:104120000148C0F808110DE0B8010020F00000209F
:1041300038000020390000203A000020FCA9F1D20C
:104140004D62503F0798807B000200B20799C97BFF
:104150000843019004F0E1F91FED080B53EC102B1C
:10416000CDE902019DED020B51EC100B04F0ECF9CE
:10417000CDE904019DED040B51EC100B04F09CF90A
:104180008D49C1F804010798007C000200B207992C
:10419000497C0843019004F0C0F91FED180B53EC63
:1041A000102BCDE902019DED020B51EC100B04F038
:1041B000CBF9CDE904019DED040B51EC100B04F09B
:1041C0007BF97D49C1F810010798807C000200B29C
:1041D0000799C97C0843019004F09FF91FED290B52
:1041E00053EC102BCDE902019DED020B51EC100BAD
:1041F00004F0AAF9CDE904019DED040B51EC100B7C
:1042000004F05AF96C49C1F818010798007D0002C2
:1042100000B20799497D0843019004F07EF91FED33
:10422000390B53EC102BCDE902019DED020B51EC43
:10423000100B04F089F9CDE904019DED040B51EC5C
:10424000100B04F039F95C49C1F814015B4880781F
:1042500048B90120594988700798807858490870F2
:1042600058490698087000BFFEF7D1BF10B5044644
:104270005548007838B9AA2C05D101205249087058
:10428000524804705DE050480078012807D1AF2CF7
:1042900005D102204C4908704C48447051E04A480E
:1042A0000078022807D1F12C05DA0320464908706E
:1042B0004648847045E04448007803280CD1322CED
:1042C0000ADA0420404908704048C470404804702D
:1042D00000204049087034E03B480078042819D198
:1042E0003B480078002815DD39480078401E3849E1
:1042F00008703848007837490978491C354A1170E8
:10430000001D32490C5432480078D0B905202E499E
:10431000087016E02C48007805280FD100202A49A3
:1043200008702C480078001D28490C542948007852
:10433000401DC1B22548FEF74CFF02E00020224993
:10434000087010BD2DE9F04106460F460024AA2250
:104350002146641C204842542146641C4254E022F9
:104360002146641C425400222146641C4254002011
:1043700007E0335C2146621CD4B2174A5354411CF7
:10438000C8B2B842F5DB201F1349C87000250020D1
:1043900005E01149095C2944CDB2411CC8B2A042D4
:1043A000F7DB2046611CCCB20B490D5421460A486C
:1043B000FEF756FABDE8F081B8010020F0000020B9
:1043C0003800002039000020420000204601002073
:1043D00040000020410000200401002038B50122E7
:1043E000F7A1F84802F0F2FC0446C4B100221146DD
:1043F000F3A003F0E4FC044614B14FF0FF3038BDE5
:104400000022EFA1EF4802F0E1FC04463CB100229B
:10441000EBA1104602F0DAFC6FF00100EFE7EAA131
:10442000EA4803F08AF904463CB10022E4A11046B0
:1044300002F0CCFC6FF00200E1E70122E4A1E748C2
:1044400002F0EFFC04463CB10022DDA1104602F070
:10445000BDFC6FF00300D2E76B464022E049DF4825
:1044600002F091FD0446009880B3DC4802F0EAFFB8
:104470000122DCA1D94802F0D4FC04463CB1002260
:10448000CFA1104602F0A2FC6FF00300B7E76B4625
:104490004FF49072D549D14802F075FD044600985A
:1044A00048B1CE4802F0CEFF0022C5A1104602F06E
:1044B0008DFC0120A3E7C94802F0C4FF0022C0A17F
:1044C000104602F083FC6FF0030098E7FFE7C34853
:1044D00002F0B8FF0022BAA1104602F077FC6FF09C
:1044E00004008CE738B50022B5A1B64802F06EFC96
:1044F0000446C4B100221146B1A003F060FC04469A
:1045000014B14FF0FF3038BD0022ADA1AD4802F02C
:104510005DFC04463CB10022A9A1104602F056FC05
:104520006FF00100EFE7A8A1A84803F006F90446E0
:104530003CB10022A2A1104602F048FC6FF002003C
:10454000E1E70A22A2A1A54802F06BFC04463CB1B7
:1045500000229BA1104602F039FC6FF00300D2E765
:104560006B4640229E499D4802F006FE04467CBBF5
:104570009A4802F067FF0A229AA1984802F051FC7B
:1045800004463CB100228EA1104602F01FFC6FF0E1
:104590000300B8E76B464FF4907294498F4802F0DD
:1045A000EBFD04464CB98D4802F04CFF002284A17B
:1045B000104602F00BFC0120A5E7884802F042FFFC
:1045C00000227FA1104602F001FC6FF003009AE781
:1045D000FFE7824802F036FF002279A1104602F080
:1045E000F5FB6FF004008EE710B50022012174A0E6
:1045F00003F0E5FBB7EE000A7C4880ED000AB7EE59
:10460000000A80ED020AB7EE000A80ED010AB7EE5B
:10461000000A80ED040AB7EE000A80ED060AB7EE44
:10462000000A80ED050AB7EE000A80ED080AB7EE31
:10463000000A80ED0A0AB7EE000A80ED090AB7EE1B
:10464000000A80ED0C0AB7EE000A80ED0E0AB7EE04
:10465000000A80ED0D0AB7EE000A80ED100AB7EEF1
:10466000000A80ED120AB7EE000A80ED110AB7EEDB
:10467000000A80ED140AB7EE000A80ED160AB7EEC4
:10468000000A80ED150AB7EE000A80ED180AB7EEB1
:10469000000A80ED1A0AB7EE000A80ED190AB7EE9B
:1046A000000A80ED1C0AB7EE000A80ED1E0AB7EE84
:1046B000000A80ED1D0AB7EE000A80ED200AB7EE71
:1046C000000A80ED220AB7EE000A80ED210AB7EE5B
:1046D000000A80ED200AB7EE000A80ED220AB7EE4C
:1046E000000A80ED210AB7EE000A80ED240AB7EE39
:1046F000000A80ED260AB7EE000A80ED250AB7EE23
:10470000000A80ED280AB7EE000A80ED2A0AB7EE0B
:10471000000A80ED290AB7EE000A80ED2C0AB7EEF8
:10472000000A80ED2E0AB7EE000A80ED2D0AB7EEE2
:10473000000A80ED300AB7EE000A80ED320AB7EECB
:10474000000A80ED310AB7EE000A80ED340AB7EEB8
:10475000000A80ED360AB7EE000A80ED350AB7EEA2
:10476000000A80ED380AB7EE000A80ED3A0AB7EE8B
:10477000000A80ED390AB7EE000A80ED3C0AB7EE78
:10478000000A80ED3E0AB7EE000A80ED3D0AB7EE62
:10479000000A80ED400AB7EE000A80ED420AB7EE4B
:1047A000000A80ED410AB7EE000A80ED440AB7EE38
:1047B000000A80ED460AB7EE000A80ED450A10BDFA
:1047C000303A0000D80200202F00000030230020E3
:1047D00073656E736F722E62696E0000081300209D
:1047E000780100207069642E62696E00B8010020B3
:1047F000704710B5FFF7F2FD0446002C04DAFFF70E
:10480000F3FE01200D490870FFF7F2FF10BD10B54F
:10481000FFF768FE10BD10B50948008820B10848B0
:104820000088401C06490880054800883C2804DDB3
:10483000002003490880FFF7EAFF10BD4300002075
:104840003A0000200246002007E0FE4B1B5632F8DB
:10485000133021F81030431CD8B20828F5DB70471C
:104860003FB50546F8480078012804D1F7492846A5
:10487000FFF7E8FF07E0F4480078022803D1F34986
:10488000F348FFF7DFFF002413E2F04830F814008C
:1048900040F6C411884205DCEC4830F81400B0F54D
:1048A000FA7F07DA0120EB4908550020EA4921F890
:1048B000140012E0E84830F81400401CE64921F8E2
:1048C0001400084630F81400C82806DD4FF4FA60DA
:1048D00021F814000020DF490855DB480078012842
:1048E00003D0D948007802287CD1DA48005D00283E
:1048F00079D1D64830F8140000B22DF81400D7480A
:1049000030F91400D64931F9141088426BDDD548CE
:10491000005D002878D13DF91400D14931F9141017
:10492000401A00EE900AF8EEE01ACC4830F9140074
:10493000CB4931F91410401A00EE900AF8EEE00A63
:1049400081EEA01ADFEDC81ADFEDC80A51EE210A88
:10495000FDEEE00A10EE900A00B210F5FA7F01DADF
:10496000C3484DE03DF91400BD4931F91410401A17
:1049700000EE900AF8EEE01AB84830F91400B84991
:1049800031F91410401A00EE900AF8EEE00A81EEB8
:10499000A01ADFEDB51ADFEDB50A51EE210AFDEEE2
:1049A000E00A10EE900A00B2B0F5FA7F02DD4FF493
:1049B000FA7025E03DF91400A94931F91410401AA4
:1049C00000EE900AF8EEE01AA44830F91400A44969
:1049D00031F91410401A00EE900AF8EEE00A81EE68
:1049E000A01A02E08AE085E00EE0DFED9F1ADFED1D
:1049F0009F0A51EE210AFDEEE00A10EE900A00B285
:104A00009C4921F8140075E03DF91400944931F9EE
:104A10001410401A00EE900AF8EEE01A8F4830F9B0
:104A200014008F4931F91410401A00EE900AF8EE84
:104A3000E00A81EEA01ADFED8C1ADFED8C0A51EE50
:104A4000210AFDEEE00A10EE900A00B210F5FA7F9E
:104A500001DA874849E03DF91400814931F9141021
:104A6000401A00EE900AF8EEE01A7C4830F9140083
:104A70007B4931F91410401A00EE900AF8EEE00A72
:104A800081EEA01ADFED781ADFED780A51EE210AE7
:104A9000FDEEE00A10EE900A00B2B0F5FA7F02DDFA
:104AA0004FF4FA7021E03DF914006D4931F914100A
:104AB000401A00EE900AF8EEE01A684830F9140047
:104AC000674931F91410401A00EE900AF8EEE00A36
:104AD00081EEA01ADFED641ADFED640A51EE210ABF
:104AE000FDEEE00A10EE900A00B2404200B26149C9
:104AF00021F8140000206049087002E001205E499E
:104B00000870DFED5E0A60EE200A5D48C0ED000A25
:104B10003DF9140000EE900AF8EEE00A594800EB67
:104B2000840090ED001A70EEC10AF5EEC00AF1EEB5
:104B300010FA0DDD3DF9140000EE900AF8EEE00ADF
:104B4000504800EB840090ED001A70EEC10A0EE0B0
:104B50003DF9140000EE900AF8EEE00A494800EB37
:104B6000840090ED001A70EEC10AF1EE600A9FED2C
:104B7000461AF4EEC10AF1EE10FA1DD23D4830F9A2
:104B8000140000EE900AF8EEE00A3E4800EB8400C4
:104B900090ED001A30EEC11A3A4800EB8400D0EDD7
:104BA000000A3748D0ED001A41EE810A354800EB83
:104BB0008400C0ED000A20E02E4830F9140000EE19
:104BC000900AF8EEE00A2F4800EB840090ED001AFE
:104BD00030EEC11A2B4800EB8400D0ED000A2848C3
:104BE000D0ED001AB6EE002A61EE821A41EE810A7B
:104BF000244800EB8400C0ED000A1348007820B977
:104C0000DFED220A1F48C0ED020A1E4800EB8400B7
:104C1000D0ED000A1E4800EB840090ED001A70EE03
:104C2000C10A1C4800EB8400C0ED000A154800EBE7
:104C30008400D0ED000A164800EB8400C0ED000AA5
:104C40000C4829E0440000204D000020EC23002007
:104C5000360100204E000020DC23002058000020F8
:104C6000680000207800002000007A440000FA4329
:104C70000CFEFFFF4C2300204C00002034337B420D
:104C8000800000207C2300200000C8420000FAC3FE
:104C90009C230020BC23002030F9140000EE900A71
:104CA000F8EEE00A0E4800EB8400C0ED000A601C3C
:104CB000C4B2082CFFF6E9AD0A480088401C80B257
:104CC00008490880C82803DD0020088006490870CC
:104CD0003FBD054908700021024A1180704700005D
:104CE0005C230020560000204D0000207FB5684660
:104CF000FBF7B3FE4FF47A710198B0FBF1F4E408CE
:104D00002146481EB0F1807F00D31BE0481E4FF0C3
:104D1000E022506150170F22002807DA13071E0EF9
:104D2000634B00F00F052D1F5E5503E013071D0EAA
:104D3000604B1D5400BF00204FF0E022906107201F
:104D4000106100BF6FF00400FBF716FC7FBD5A4AEC
:104D500011684FF0E02252694FF0E0239B69D21AAC
:104D60004FF47A735A434FF0E0235B69B2FBF3F2DE
:104D700001EB4103C3EBC11302EBC300704730B535
:104D80000446FFF7E4FF054600BFFFF7E0FF401BC6
:104D9000A042FAD330BD10B5044603E04FF47A7058
:104DA000FFF7EDFF2000A4F10104F7D110BD10B50D
:104DB0004248007800B910BD4148006840F2E73130
:104DC000884207DA3E480068401C3D490860FDF70C
:104DD0006DFC29E000203A4908603A4800683B2809
:104DE00005DA38480068401C364908601CE000209D
:104DF00034490860344800683B2805DA32480068C6
:104E0000401C314908600FE000202F4908602F48FE
:104E10000068172805DA2D480068401C2B490860F7
:104E200002E000202949086000BFC4E710B504462D
:104E300004EB4400264901EB800090ED000A04EBEE
:104E4000440001EB800080ED010AFFF780FF00EED7
:104E5000100AB8EE400A04EB44001D4901EB800043
:104E600080ED000A04EB440001EB800090ED000AA5
:104E700004EB440001EB8000D0ED010A30EE600A43
:104E800004EB440001EB800080ED020A04EB4400D7
:104E900001EB800090ED020A10BD10B5002404E083
:104EA0002046FFF7C3FF601CC4B2052CF8DB10BD21
:104EB00018ED00E000E400E0840000200000002085
:104EC00094000020900000208C000020880000202A
:104ED000FC23002010B58AB0044601214804FBF7EA
:104EE000D6FE01210846FBF789FE26208DF80C002E
:104EF00002208DF80D0000208DF80E0001208DF8A5
:104F00000F0003A8FBF7EBFA072202216648FBF724
:104F100062FC072203216448FBF75DFC042001903A
:104F200002208DF808008DF8090000208DF80A0095
:104F300001208DF80B0001A95B48FBF7C1FB08209D
:104F4000019002208DF808008DF8090001208DF8ED
:104F50000A0000208DF80B0001A95348FBF7B0FBB5
:104F600006940020ADF81C00ADF81E00ADF820003E
:104F7000ADF824000C20ADF822000020ADF81000A0
:104F8000ADF812004FF40070ADF814000020ADF839
:104F9000160006A94548FDF77EF804A94348FDF729
:104FA000ECF8012240F225514048FDF7B2F9012109
:104FB0003E48FDF7F8F80AB010BD10B53B48008830
:104FC00000F0080018B13948001D0088C4B240F252
:104FD00025513648FDF7D8F958B140F225513348EC
:104FE000FDF70DFA3148001D0088C4B22046FFF7D6
:104FF0003DF940F227712D48FDF7C6F9C0B12C48A4
:1050000001780078401C2A4A10702A48405C2749E1
:10501000091D08801046007827490978884207D181
:1050200022480C30008820F0800020490C31088094
:1050300010BD70B505460E4600240AE0295D1E48E5
:1050400002780078401C1C4B18701A488154601C70
:10505000C4B2B442F2DB15480C30008800F0800086
:1050600028B9012240F227711048FDF752F970BDAE
:1050700010B5002400222146641C1048425401222D
:105080002146641C425402222146641C42540322DD
:105090002146641C425404222146641C4254214689
:1050A000FFF7C7FF10BD00000000024000440040B1
:1050B0009800002038240020990000203826002085
:1050C00010B5044600BF0221F748FCF7FBF80028A2
:1050D000F9D02146F448FCF7ACF800BF0121F248B2
:1050E000FCF7F0F80028F9D0EF48FCF79FF8C0B2C1
:1050F00010BD2DE9F04104460D4616461EE000BFE6
:105100000221E948FCF7DEF80028F9D014B114F8C0
:10511000010B00E0FF2007463946E348FCF789F819
:1051200000BF0121E048FCF7CDF80028F9D0DE48A7
:10513000FCF77CF8C7B20DB105F8017B3000A6F191
:105140000106DCD13046BDE8F08170B505462C463D
:1051500000221021D548FBF733FB9F20FFF7B0FF5B
:10516000FF20FFF7ADFF04F8010BFF20FFF7A8FFBA
:1051700004F8010BFF20FFF7A3FF04F8010B012245
:105180001021CA48FBF71CFB287870BD00B589B018
:1051900001210846FBF732FD01210803FBF788FDDA
:1051A00005221146C148FBF716FB05220621BF4820
:1051B000FBF711FB05220721BC48FBF70CFBE020A5
:1051C000069002208DF81C0003208DF81D000020A1
:1051D0008DF81E0002208DF81F0006A9B348FBF7CA
:1051E0006FFA1020069001208DF81C0000208DF829
:1051F0001E0001208DF81F0000208DF81D0006A95B
:10520000AA48FBF75DFAA848FBF74CFE0020ADF872
:1052100004004FF48270ADF806000020ADF80800DD
:105220000220ADF80A000120ADF80C004002ADF8F4
:105230000E001820ADF810000020ADF81200072075
:10524000ADF8140001A99848FBF778FE01219648B3
:10525000FBF76EFF012210219448FBF7B1FA002200
:1052600010219248FBF7ACFAFF20FFF729FF01223B
:1052700010218E48FBF7A4FA08A8FFF766FF9DF8F7
:105280002000EF2831D14FF48050894948809DF8A3
:105290002200182803D14FF4805088801DE09DF82B
:1052A0002200172804D14FF400608149888014E05F
:1052B0009DF82200162804D14FF480607C49888034
:1052C0000BE09DF82200152804D14FF400707849B6
:1052D000888002E0002076498880754840887449BB
:1052E000898848437249886004E00020704908704A
:1052F00009B000BD01206E49087000BFF8E710B585
:10530000002210216948FBF75BFA0620FFF7D8FE60
:10531000012210216548FBF753FA10BD10B5002299
:1053200010216248FBF74CFA0420FFF7C9FE012266
:1053300010215E48FBF744FA10BD10B5002400BFF1
:10534000002210215948FBF73BFA0520FFF7B8FE71
:10535000FF20FFF7B5FE0446012210215348FBF75A
:105360002FFA04F001000028EAD110BD70B5044600
:105370000D46FFF7C4FF002210214C48FBF720FA2E
:105380002020FFF79DFEC4F30740FFF799FEC4F30A
:105390000720FFF795FEE0B2FFF792FE01221021F1
:1053A0004248FBF70DFA0DB1FFF7C7FF70BD70B5AE
:1053B00004460D461646FFF7A2FF002210213B4887
:1053C000FBF7FEF90220FFF77BFEC4F30740FFF76F
:1053D00077FEC4F30720FFF773FEE0B2FFF770FE1D
:1053E00003E02878FFF76CFE6D1C3000A6F1010683
:1053F000F7D1012210212D48FBF7E2F9FFF79DFFBD
:1054000070BD70B504460D4616460022102127488F
:10541000FBF7D6F90320FFF753FEC4F30740FFF76D
:105420004FFEC4F30720FFF74BFEE0B2FFF748FE44
:1054300004E0FF20FFF744FE28706D1C3000A6F149
:105440000106F6D1012210211848FBF7B9F970BD09
:105450002DE9F04104460D461646002700BF0DE039
:105460001348428829462046FFF7CBFF1048408862
:1054700005440F4840880444781C87B2B742EFDBEC
:10548000BDE8F0812DE9F04104460D46164600279F
:1054900007494888C11700EB11614FEA2128FFF73F
:1054A0002EFF00BF25E00000003001400000024058
:1054B0006C26002001212046FFF758FF104948883C
:1054C000C11700EB11614FEA212809E04FF4807207
:1054D00029462046FFF76BFF05F5807504F58074BB
:1054E0005FEA0800A8F101011FFA81F8EED1781CEB
:1054F00087B2B742DEDBBDE8F081014870470000AB
:105500006C26002000B587B001210620FBF7BFFB09
:1055100001210E20FBF772FB1D208DF804000120F5
:105520008DF805008DF806008DF8070001A8FAF740
:10553000D6FF1E208DF8040001208DF805008DF89F
:1055400006008DF8070001A8FAF7C9FFC0200590F2
:1055500002208DF8180003208DF8190000208DF826
:105560001A0002208DF81B0005A9FB48FBF7A8F8DC
:105570000320059002208DF8180003208DF81900F3
:1055800000208DF81A0002208DF81B0005A9F348B1
:10559000FBF796F802220621EF48FBF71CF90222DE
:1055A0000721ED48FBF717F902220021EB48FBF732
:1055B00012F902220121E948FBF70DF95320E849CD
:1055C00008800020ADF808000A20ADF80A0001208C
:1055D000ADF80C000020ADF80E00ADF8100002A9E7
:1055E000DF482838FCF722FB0420ADF808000A2029
:1055F000ADF80A000120ADF80C000020ADF80E0057
:10560000ADF8100002A9D6482838FCF70FFB082097
:10561000ADF808000A20ADF80A000120ADF80C0032
:105620000020ADF80E00ADF8100002A9CC482838D3
:10563000FCF7FCFA0C20ADF808000A20ADF80A00CF
:105640000120ADF80C000020ADF80E00ADF8100000
:1056500002A9C3482838FCF7E9FA0121C0482838D4
:10566000FBF796FF01220221BD482838FCF7A8FB72
:1056700001220421BA482838FCF7A2FB01220821A4
:10568000B7482838FCF79CFB01221021B448283881
:10569000FCF796FB4FF47040059002208DF818003F
:1056A00003208DF8190000208DF81A0002208DF8D3
:1056B0001B0005A9AB48FBF703F802220C21A948FF
:1056C000FBF789F802220D21A648FBF784F8022295
:1056D0000E21A448FBF77FF802220F21A148FBF717
:1056E0007AF85320A04908800020ADF808000A206D
:1056F000ADF80A000120ADF80C000020ADF80E0056
:10570000ADF8100002A998482838FCF78FFA042059
:10571000ADF808000A20ADF80A000120ADF80C0031
:105720000020ADF80E00ADF8100002A98E48283810
:10573000FCF77CFA0820ADF808000A20ADF80A0052
:105740000120ADF80C000020ADF80E00ADF81000FF
:1057500002A985482838FCF769FA0C20ADF8080042
:105760000A20ADF80A000120ADF80C000020ADF8C9
:105770000E00ADF8100002A97B482838FCF756FA55
:10578000012179482838FBF703FF012202217648DE
:105790002838FCF715FB0122042173482838FCF750
:1057A0000FFB0122082170482838FCF709FB012271
:1057B00010216D482838FCF703FB07B000BD10B579
:1057C0000120FFF786FA66481838008800F00200CA
:1057D00038B34FF6FD706249183908804FF6FF5014
:1057E00008805D481030006800F0400030B15C482F
:1057F0002838FCF799FA5D4908801EE05848283897
:10580000FCF792FA5A4908800846008857490988E7
:10581000884207DB5648008854490988401A554990
:1058200008800AE0514800884FF6FF71081A504975
:1058300009880844401C4F490880494818380088A6
:1058400000F0040038B34FF6FB7045491839088062
:105850004FF6FF30088040481030006800F08000AC
:1058600030B13F482838FCF762FA434908801EE00F
:105870003B482838FCF75BFA404908800846008816
:105880003D490988884207DB3C4800883A49098835
:10589000401A384948800AE0374800884FF6FF71BF
:1058A000081A364909880844401C324948802C4867
:1058B0001838008800F0080038B34FF6F770284910
:1058C000183908804FF2FF700880244810300068B3
:1058D00000F0010030B122482838FCF72BFA2849A3
:1058E00008801EE01E482838FCF724FA2549088065
:1058F0000846008822490988884207DB2148008839
:105900001F490988401A1B4988800AE01C48008802
:105910004FF6FF71081A1B4909880844401C1549B5
:1059200088800F481838008800F0100070B34FF6D8
:10593000EF700B49183908804EF6FF700880074851
:105940001030006800F0020008B305482838FCF762
:10595000F4F90D49088038E00008024000040240D4
:1059600028040040000C0240280800409A00002053
:105970009C000020782600209E000020A00000202F
:10598000A2000020A4000020A60000201DE0804806
:10599000FCF7D3F97F490880084600887E490988CA
:1059A000884207DB7B4800887B490988401A7B498D
:1059B000C8800AE0784800884FF6FF71081A7549D8
:1059C00009880844401C7549C88010BD10B50120E5
:1059D000FFF77FF97248008800F0020028B34FF605
:1059E000FD706F4908804FF6FF5008806D480068D1
:1059F00000F4805030B16A481038FCF795F96A49D4
:105A000008801EE066481038FCF78EF96749088068
:105A10000846008864490988884207DB6348008893
:105A200061490988401A5D4908810AE05E4800889A
:105A30004FF6FF71081A5D4909880844401C574910
:105A400008815748008800F0040028B34FF6FB7027
:105A5000534908804FF6FF3008805248006800F430
:105A6000005030B14E481038FCF761F950490880B9
:105A70001EE04B481038FCF75AF94E49088008469A
:105A800000884B490988884207DB4A480088484912
:105A90000988401A414948810AE0454800884FF684
:105AA000FF71081A434909880844401C3B49488152
:105AB0003B48008800F0080028B34FF6F7703849DB
:105AC00008804FF2FF7008803648006800F480407C
:105AD00030B133481038FCF72DF9374908801EE003
